{
  "contractName": "FlightSuretyApp",
  "abi": [
    {
      "inputs": [
        {
          "internalType": "address",
          "name": "dataContract",
          "type": "address"
        }
      ],
      "stateMutability": "nonpayable",
      "type": "constructor"
    },
    {
      "anonymous": false,
      "inputs": [
        {
          "indexed": false,
          "internalType": "address",
          "name": "newAirline",
          "type": "address"
        }
      ],
      "name": "AirlineRegistered",
      "type": "event"
    },
    {
      "anonymous": false,
      "inputs": [
        {
          "indexed": false,
          "internalType": "address",
          "name": "newAirline",
          "type": "address"
        },
        {
          "indexed": false,
          "internalType": "address",
          "name": "voterAirline",
          "type": "address"
        },
        {
          "indexed": false,
          "internalType": "bool",
          "name": "ballot",
          "type": "bool"
        }
      ],
      "name": "AirlineVoted",
      "type": "event"
    },
    {
      "anonymous": false,
      "inputs": [
        {
          "indexed": false,
          "internalType": "address",
          "name": "airline",
          "type": "address"
        },
        {
          "indexed": false,
          "internalType": "string",
          "name": "flight",
          "type": "string"
        },
        {
          "indexed": false,
          "internalType": "uint256",
          "name": "timestamp",
          "type": "uint256"
        },
        {
          "indexed": false,
          "internalType": "uint8",
          "name": "status",
          "type": "uint8"
        }
      ],
      "name": "FlightStatusInfo",
      "type": "event"
    },
    {
      "anonymous": false,
      "inputs": [
        {
          "indexed": false,
          "internalType": "address",
          "name": "airline",
          "type": "address"
        },
        {
          "indexed": false,
          "internalType": "string",
          "name": "flightNumber",
          "type": "string"
        },
        {
          "indexed": false,
          "internalType": "uint256",
          "name": "timestamp",
          "type": "uint256"
        }
      ],
      "name": "InsurancePayoutCredit",
      "type": "event"
    },
    {
      "anonymous": false,
      "inputs": [
        {
          "indexed": false,
          "internalType": "address",
          "name": "airline",
          "type": "address"
        },
        {
          "indexed": false,
          "internalType": "string",
          "name": "flightNumber",
          "type": "string"
        },
        {
          "indexed": false,
          "internalType": "uint256",
          "name": "timestamps",
          "type": "uint256"
        },
        {
          "indexed": false,
          "internalType": "address",
          "name": "passenger",
          "type": "address"
        },
        {
          "indexed": false,
          "internalType": "uint256",
          "name": "amount",
          "type": "uint256"
        }
      ],
      "name": "InsurancePurchaseEvent",
      "type": "event"
    },
    {
      "anonymous": false,
      "inputs": [
        {
          "indexed": false,
          "internalType": "address",
          "name": "airline",
          "type": "address"
        },
        {
          "indexed": false,
          "internalType": "string",
          "name": "flight",
          "type": "string"
        },
        {
          "indexed": false,
          "internalType": "uint256",
          "name": "timestamp",
          "type": "uint256"
        },
        {
          "indexed": false,
          "internalType": "uint8",
          "name": "status",
          "type": "uint8"
        }
      ],
      "name": "OracleReport",
      "type": "event"
    },
    {
      "anonymous": false,
      "inputs": [
        {
          "indexed": false,
          "internalType": "uint8",
          "name": "index",
          "type": "uint8"
        },
        {
          "indexed": false,
          "internalType": "address",
          "name": "airline",
          "type": "address"
        },
        {
          "indexed": false,
          "internalType": "string",
          "name": "flight",
          "type": "string"
        },
        {
          "indexed": false,
          "internalType": "uint256",
          "name": "timestamp",
          "type": "uint256"
        }
      ],
      "name": "OracleRequest",
      "type": "event"
    },
    {
      "anonymous": false,
      "inputs": [
        {
          "indexed": false,
          "internalType": "address",
          "name": "airline",
          "type": "address"
        },
        {
          "indexed": false,
          "internalType": "string",
          "name": "flight",
          "type": "string"
        },
        {
          "indexed": false,
          "internalType": "uint256",
          "name": "timestamp",
          "type": "uint256"
        },
        {
          "indexed": false,
          "internalType": "uint8",
          "name": "status",
          "type": "uint8"
        }
      ],
      "name": "OracleResponseEvent",
      "type": "event"
    },
    {
      "anonymous": false,
      "inputs": [
        {
          "indexed": false,
          "internalType": "address",
          "name": "airline",
          "type": "address"
        }
      ],
      "name": "VoteRequestEvent",
      "type": "event"
    },
    {
      "anonymous": false,
      "inputs": [
        {
          "indexed": false,
          "internalType": "address",
          "name": "account",
          "type": "address"
        },
        {
          "indexed": false,
          "internalType": "uint256",
          "name": "amount",
          "type": "uint256"
        }
      ],
      "name": "WithdrawalEvent",
      "type": "event"
    },
    {
      "inputs": [],
      "name": "REGISTRATION_FEE",
      "outputs": [
        {
          "internalType": "uint256",
          "name": "",
          "type": "uint256"
        }
      ],
      "stateMutability": "view",
      "type": "function",
      "constant": true
    },
    {
      "inputs": [],
      "name": "RegistrationFee",
      "outputs": [
        {
          "internalType": "uint256",
          "name": "",
          "type": "uint256"
        }
      ],
      "stateMutability": "view",
      "type": "function",
      "constant": true
    },
    {
      "inputs": [],
      "name": "isOperational",
      "outputs": [
        {
          "internalType": "bool",
          "name": "",
          "type": "bool"
        }
      ],
      "stateMutability": "view",
      "type": "function",
      "constant": true
    },
    {
      "inputs": [],
      "name": "totalRegisteredAirlines",
      "outputs": [
        {
          "internalType": "uint256",
          "name": "",
          "type": "uint256"
        }
      ],
      "stateMutability": "view",
      "type": "function",
      "constant": true
    },
    {
      "inputs": [
        {
          "internalType": "address",
          "name": "account",
          "type": "address"
        }
      ],
      "name": "getAccountCredit",
      "outputs": [
        {
          "internalType": "uint256",
          "name": "",
          "type": "uint256"
        }
      ],
      "stateMutability": "view",
      "type": "function",
      "constant": true
    },
    {
      "inputs": [
        {
          "internalType": "address",
          "name": "oracleAcccount",
          "type": "address"
        },
        {
          "internalType": "uint8",
          "name": "index",
          "type": "uint8"
        }
      ],
      "name": "checkOracleIndex",
      "outputs": [
        {
          "internalType": "bool",
          "name": "",
          "type": "bool"
        }
      ],
      "stateMutability": "view",
      "type": "function",
      "constant": true
    },
    {
      "inputs": [
        {
          "internalType": "address",
          "name": "airline",
          "type": "address"
        }
      ],
      "name": "getAirlineRegistrationStatus",
      "outputs": [
        {
          "internalType": "bool",
          "name": "",
          "type": "bool"
        }
      ],
      "stateMutability": "view",
      "type": "function",
      "constant": true
    },
    {
      "inputs": [
        {
          "internalType": "address",
          "name": "airline",
          "type": "address"
        }
      ],
      "name": "getAirlineOperationalStatus",
      "outputs": [
        {
          "internalType": "bool",
          "name": "",
          "type": "bool"
        }
      ],
      "stateMutability": "view",
      "type": "function",
      "constant": true
    },
    {
      "inputs": [
        {
          "internalType": "address",
          "name": "airline",
          "type": "address"
        },
        {
          "internalType": "string",
          "name": "flightNumber",
          "type": "string"
        },
        {
          "internalType": "uint256",
          "name": "timestamps",
          "type": "uint256"
        }
      ],
      "name": "getFlightStatus",
      "outputs": [
        {
          "internalType": "bool",
          "name": "",
          "type": "bool"
        }
      ],
      "stateMutability": "view",
      "type": "function",
      "constant": true
    },
    {
      "inputs": [],
      "name": "getRegisteredAirlinesAccounts",
      "outputs": [
        {
          "internalType": "address[]",
          "name": "",
          "type": "address[]"
        }
      ],
      "stateMutability": "view",
      "type": "function",
      "constant": true
    },
    {
      "inputs": [
        {
          "internalType": "address",
          "name": "airline",
          "type": "address"
        }
      ],
      "name": "registerAirline",
      "outputs": [],
      "stateMutability": "nonpayable",
      "type": "function"
    },
    {
      "inputs": [
        {
          "internalType": "address",
          "name": "airline",
          "type": "address"
        }
      ],
      "name": "getVotesQty",
      "outputs": [
        {
          "internalType": "uint256",
          "name": "",
          "type": "uint256"
        }
      ],
      "stateMutability": "view",
      "type": "function",
      "constant": true
    },
    {
      "inputs": [
        {
          "internalType": "address",
          "name": "airline",
          "type": "address"
        }
      ],
      "name": "getVoters",
      "outputs": [
        {
          "internalType": "address[]",
          "name": "",
          "type": "address[]"
        }
      ],
      "stateMutability": "view",
      "type": "function",
      "constant": true
    },
    {
      "inputs": [
        {
          "internalType": "address",
          "name": "airline",
          "type": "address"
        },
        {
          "internalType": "bool",
          "name": "vote",
          "type": "bool"
        }
      ],
      "name": "voteAirline",
      "outputs": [],
      "stateMutability": "nonpayable",
      "type": "function"
    },
    {
      "inputs": [],
      "name": "fund",
      "outputs": [],
      "stateMutability": "payable",
      "type": "function",
      "payable": true
    },
    {
      "inputs": [
        {
          "internalType": "address",
          "name": "account",
          "type": "address"
        }
      ],
      "name": "getFunding",
      "outputs": [
        {
          "internalType": "uint256",
          "name": "",
          "type": "uint256"
        }
      ],
      "stateMutability": "view",
      "type": "function",
      "constant": true
    },
    {
      "inputs": [
        {
          "internalType": "string",
          "name": "flightNumber",
          "type": "string"
        },
        {
          "internalType": "uint256",
          "name": "timestamp",
          "type": "uint256"
        }
      ],
      "name": "registerFlight",
      "outputs": [],
      "stateMutability": "nonpayable",
      "type": "function"
    },
    {
      "inputs": [
        {
          "internalType": "address",
          "name": "airline",
          "type": "address"
        },
        {
          "internalType": "string",
          "name": "flightNumber",
          "type": "string"
        },
        {
          "internalType": "uint256",
          "name": "timestamps",
          "type": "uint256"
        }
      ],
      "name": "purchaseInsurance",
      "outputs": [],
      "stateMutability": "payable",
      "type": "function",
      "payable": true
    },
    {
      "inputs": [
        {
          "internalType": "uint256",
          "name": "amount",
          "type": "uint256"
        }
      ],
      "name": "withdraw",
      "outputs": [],
      "stateMutability": "payable",
      "type": "function",
      "payable": true
    },
    {
      "inputs": [],
      "name": "registerOracle",
      "outputs": [],
      "stateMutability": "payable",
      "type": "function",
      "payable": true
    },
    {
      "inputs": [],
      "name": "getMyIndexes",
      "outputs": [
        {
          "internalType": "uint8[3]",
          "name": "",
          "type": "uint8[3]"
        }
      ],
      "stateMutability": "view",
      "type": "function",
      "constant": true
    },
    {
      "inputs": [
        {
          "internalType": "uint8",
          "name": "index",
          "type": "uint8"
        },
        {
          "internalType": "address",
          "name": "airline",
          "type": "address"
        },
        {
          "internalType": "string",
          "name": "flight",
          "type": "string"
        },
        {
          "internalType": "uint256",
          "name": "timestamp",
          "type": "uint256"
        },
        {
          "internalType": "uint8",
          "name": "statusCode",
          "type": "uint8"
        }
      ],
      "name": "submitOracleResponse",
      "outputs": [],
      "stateMutability": "nonpayable",
      "type": "function"
    },
    {
      "inputs": [
        {
          "internalType": "address",
          "name": "airline",
          "type": "address"
        },
        {
          "internalType": "string",
          "name": "flight",
          "type": "string"
        },
        {
          "internalType": "uint256",
          "name": "timestamp",
          "type": "uint256"
        }
      ],
      "name": "fetchFlightStatus",
      "outputs": [],
      "stateMutability": "nonpayable",
      "type": "function"
    },
    {
      "inputs": [
        {
          "internalType": "address",
          "name": "airline",
          "type": "address"
        },
        {
          "internalType": "string",
          "name": "flight",
          "type": "string"
        },
        {
          "internalType": "uint256",
          "name": "timestamp",
          "type": "uint256"
        }
      ],
      "name": "getFlightStatusCode",
      "outputs": [
        {
          "internalType": "uint256",
          "name": "",
          "type": "uint256"
        }
      ],
      "stateMutability": "view",
      "type": "function",
      "constant": true
    }
  ],
  "bytecode": "0x60806040526005600060146101000a81548160ff021916908360ff1602179055506000600360006101000a81548160ff021916908360ff1602179055503480156200004957600080fd5b5060405162004adf38038062004adf83398181016040528101906200006f919062000161565b336000806101000a81548173ffffffffffffffffffffffffffffffffffffffff021916908373ffffffffffffffffffffffffffffffffffffffff16021790555080600160006101000a81548173ffffffffffffffffffffffffffffffffffffffff021916908373ffffffffffffffffffffffffffffffffffffffff1602179055505062000193565b600080fd5b600073ffffffffffffffffffffffffffffffffffffffff82169050919050565b60006200012982620000fc565b9050919050565b6200013b816200011c565b81146200014757600080fd5b50565b6000815190506200015b8162000130565b92915050565b6000602082840312156200017a5762000179620000f7565b5b60006200018a848285016200014a565b91505092915050565b61493c80620001a36000396000f3fe60806040526004361061014b5760003560e01c80638c84bb4a116100b6578063bdfd98771161006f578063bdfd987714610482578063bff85972146104ab578063c10f2700146104d6578063cd905dff146104ff578063d8c2705d1461052a578063f83f11c0146105675761014b565b80638c84bb4a146103685780639de5f957146103a5578063a9279ed8146103e2578063ad0a4f32146103fe578063b4ca82b81461043b578063b60d4288146104785761014b565b8063351ba61b11610108578063351ba61b1461024457806339cfc995146102815780633c752e55146102aa5780634c7ebd37146102d55780635f1cc0e61461031257806364b4f7511461033d5761014b565b80630ab519ec146101505780631eeb8858146101795780632d15cc04146101b65780632e1a7d4d146101f3578063339d25901461020f578063340288dc14610219575b600080fd5b34801561015c57600080fd5b5061017760048036038101906101729190613214565b610590565b005b34801561018557600080fd5b506101a0600480360381019061019b9190613254565b610e16565b6040516101ad9190613290565b60405180910390f35b3480156101c257600080fd5b506101dd60048036038101906101d89190613254565b610ebb565b6040516101ea9190613369565b60405180910390f35b61020d600480360381019061020891906133c1565b610f65565b005b6102176110e9565b005b34801561022557600080fd5b5061022e6111d6565b60405161023b9190613369565b60405180910390f35b34801561025057600080fd5b5061026b60048036038101906102669190613534565b611343565b60405161027891906135b2565b60405180910390f35b34801561028d57600080fd5b506102a860048036038101906102a391906135cd565b6114be565b005b3480156102b657600080fd5b506102bf61170e565b6040516102cc91906135b2565b60405180910390f35b3480156102e157600080fd5b506102fc60048036038101906102f79190613254565b6117a6565b60405161030991906135b2565b60405180910390f35b34801561031e57600080fd5b5061032761184b565b60405161033491906136e1565b60405180910390f35b34801561034957600080fd5b5061035261198b565b60405161035f91906135b2565b60405180910390f35b34801561037457600080fd5b5061038f600480360381019061038a9190613728565b611997565b60405161039c9190613290565b60405180910390f35b3480156103b157600080fd5b506103cc60048036038101906103c79190613534565b611b08565b6040516103d99190613290565b60405180910390f35b6103fc60048036038101906103f79190613534565b611bb3565b005b34801561040a57600080fd5b5061042560048036038101906104209190613254565b611da7565b60405161043291906135b2565b60405180910390f35b34801561044757600080fd5b50610462600480360381019061045d9190613254565b611f1c565b60405161046f9190613290565b60405180910390f35b610480611fc1565b005b34801561048e57600080fd5b506104a960048036038101906104a49190613254565b612391565b005b3480156104b757600080fd5b506104c06125ff565b6040516104cd91906135b2565b60405180910390f35b3480156104e257600080fd5b506104fd60048036038101906104f89190613768565b61260b565b005b34801561050b57600080fd5b5061051461299b565b6040516105219190613290565b60405180910390f35b34801561053657600080fd5b50610551600480360381019061054c9190613254565b612a33565b60405161055e91906135b2565b60405180910390f35b34801561057357600080fd5b5061058e60048036038101906105899190613534565b612ad8565b005b600160009054906101000a900473ffffffffffffffffffffffffffffffffffffffff1673ffffffffffffffffffffffffffffffffffffffff1663cd905dff6040518163ffffffff1660e01b8152600401602060405180830381865afa1580156105fd573d6000803e3d6000fd5b505050506040513d601f19601f820116820180604052508101906106219190613814565b610660576040517f08c379a0000000000000000000000000000000000000000000000000000000008152600401610657906138c4565b60405180910390fd5b600060149054906101000a900460ff1660ff1661067b61170e565b10156106bc576040517f08c379a00000000000000000000000000000000000000000000000000000000081526004016106b390613956565b60405180910390fd5b600160009054906101000a900473ffffffffffffffffffffffffffffffffffffffff1673ffffffffffffffffffffffffffffffffffffffff16631eeb8858836040518263ffffffff1660e01b81526004016107179190613985565b602060405180830381865afa158015610734573d6000803e3d6000fd5b505050506040513d601f19601f820116820180604052508101906107589190613814565b15610798576040517f08c379a000000000000000000000000000000000000000000000000000000000815260040161078f906139ec565b60405180910390fd5b600080600160009054906101000a900473ffffffffffffffffffffffffffffffffffffffff1673ffffffffffffffffffffffffffffffffffffffff1663a90d0dcc856040518263ffffffff1660e01b81526004016107f69190613985565b602060405180830381865afa158015610813573d6000803e3d6000fd5b505050506040513d601f19601f820116820180604052508101906108379190613a21565b9050600061084361170e565b905060008214156108575760009250610974565b6000600160009054906101000a900473ffffffffffffffffffffffffffffffffffffffff1673ffffffffffffffffffffffffffffffffffffffff1663d4f50f98876040518263ffffffff1660e01b81526004016108b49190613985565b600060405180830381865afa1580156108d1573d6000803e3d6000fd5b505050506040513d6000823e3d601f19601f820116820180604052508101906108fa9190613b2b565b905060005b83811015610971573373ffffffffffffffffffffffffffffffffffffffff1682828151811061093157610930613b74565b5b602002602001015173ffffffffffffffffffffffffffffffffffffffff16141561095e5760019450610971565b808061096990613bd2565b9150506108ff565b50505b82156109b5576040517f08c379a00000000000000000000000000000000000000000000000000000000081526004016109ac90613c67565b60405180910390fd5b600160009054906101000a900473ffffffffffffffffffffffffffffffffffffffff1673ffffffffffffffffffffffffffffffffffffffff1663b255380b8633876040518463ffffffff1660e01b8152600401610a1493929190613c87565b600060405180830381600087803b158015610a2e57600080fd5b505af1158015610a42573d6000803e3d6000fd5b505050507fcf4d5aeace80a1e315b59442cc300cb4378d6595a1cef27cb174d5d860616ad6853386604051610a7993929190613c87565b60405180910390a1600115158415151415610b1f57600160009054906101000a900473ffffffffffffffffffffffffffffffffffffffff1673ffffffffffffffffffffffffffffffffffffffff1663c58ad5308660016040518363ffffffff1660e01b8152600401610aec929190613d03565b600060405180830381600087803b158015610b0657600080fd5b505af1158015610b1a573d6000803e3d6000fd5b505050505b6000600160009054906101000a900473ffffffffffffffffffffffffffffffffffffffff1673ffffffffffffffffffffffffffffffffffffffff1663d8c2705d876040518263ffffffff1660e01b8152600401610b7c9190613985565b602060405180830381865afa158015610b99573d6000803e3d6000fd5b505050506040513d601f19601f82011682018060405250810190610bbd9190613a21565b905060006001600284610bd09190613d5b565b1415610c0457610bfd6001610bef600286612bde90919063ffffffff16565b612bf490919063ffffffff16565b9050610c1b565b610c18600284612bde90919063ffffffff16565b90505b808210610d7757600160009054906101000a900473ffffffffffffffffffffffffffffffffffffffff1673ffffffffffffffffffffffffffffffffffffffff166395386ae28860006040518363ffffffff1660e01b8152600401610c80929190613d8c565b600060405180830381600087803b158015610c9a57600080fd5b505af1158015610cae573d6000803e3d6000fd5b50505050600160009054906101000a900473ffffffffffffffffffffffffffffffffffffffff1673ffffffffffffffffffffffffffffffffffffffff1663de683bb2886040518263ffffffff1660e01b8152600401610d0d9190613985565b600060405180830381600087803b158015610d2757600080fd5b505af1158015610d3b573d6000803e3d6000fd5b505050507f89a6354fb229eda6cbc28306798727b4d524818d2c375220bc3f360f24cffaca87604051610d6e9190613985565b60405180910390a15b82841415610e0d57600160009054906101000a900473ffffffffffffffffffffffffffffffffffffffff1673ffffffffffffffffffffffffffffffffffffffff1663de683bb2886040518263ffffffff1660e01b8152600401610dda9190613985565b600060405180830381600087803b158015610df457600080fd5b505af1158015610e08573d6000803e3d6000fd5b505050505b50505050505050565b6000600160009054906101000a900473ffffffffffffffffffffffffffffffffffffffff1673ffffffffffffffffffffffffffffffffffffffff16631eeb8858836040518263ffffffff1660e01b8152600401610e739190613985565b602060405180830381865afa158015610e90573d6000803e3d6000fd5b505050506040513d601f19601f82011682018060405250810190610eb49190613814565b9050919050565b6060600160009054906101000a900473ffffffffffffffffffffffffffffffffffffffff1673ffffffffffffffffffffffffffffffffffffffff1663d4f50f98836040518263ffffffff1660e01b8152600401610f189190613985565b600060405180830381865afa158015610f35573d6000803e3d6000fd5b505050506040513d6000823e3d601f19601f82011682018060405250810190610f5e9190613b2b565b9050919050565b3273ffffffffffffffffffffffffffffffffffffffff163373ffffffffffffffffffffffffffffffffffffffff1614610fd3576040517f08c379a0000000000000000000000000000000000000000000000000000000008152600401610fca90613e27565b60405180910390fd5b80610fdd336117a6565b101561101e576040517f08c379a000000000000000000000000000000000000000000000000000000000815260040161101590613e93565b60405180910390fd5b600160009054906101000a900473ffffffffffffffffffffffffffffffffffffffff1673ffffffffffffffffffffffffffffffffffffffff16637715aa7333836040518363ffffffff1660e01b815260040161107b929190613eb3565b600060405180830381600087803b15801561109557600080fd5b505af11580156110a9573d6000803e3d6000fd5b505050507f2f174ca282119315c59efaf21147aef438581dabdeb498198ae28964373dd8bc33826040516110de929190613eb3565b60405180910390a150565b670de0b6b3a7640000341015611134576040517f08c379a000000000000000000000000000000000000000000000000000000000815260040161112b90613f28565b60405180910390fd5b600061113f33612c0a565b9050604051806040016040528060011515815260200182815250600460003373ffffffffffffffffffffffffffffffffffffffff1673ffffffffffffffffffffffffffffffffffffffff16815260200190815260200160002060008201518160000160006101000a81548160ff0219169083151502179055506020820151816001019060036111cf929190613091565b5090505050565b6060600160009054906101000a900473ffffffffffffffffffffffffffffffffffffffff1673ffffffffffffffffffffffffffffffffffffffff1663cd905dff6040518163ffffffff1660e01b8152600401602060405180830381865afa158015611245573d6000803e3d6000fd5b505050506040513d601f19601f820116820180604052508101906112699190613814565b6112a8576040517f08c379a000000000000000000000000000000000000000000000000000000000815260040161129f906138c4565b60405180910390fd5b600160009054906101000a900473ffffffffffffffffffffffffffffffffffffffff1673ffffffffffffffffffffffffffffffffffffffff1663340288dc6040518163ffffffff1660e01b8152600401600060405180830381865afa158015611315573d6000803e3d6000fd5b505050506040513d6000823e3d601f19601f8201168201806040525081019061133e9190613b2b565b905090565b6000600160009054906101000a900473ffffffffffffffffffffffffffffffffffffffff1673ffffffffffffffffffffffffffffffffffffffff1663cd905dff6040518163ffffffff1660e01b8152600401602060405180830381865afa1580156113b2573d6000803e3d6000fd5b505050506040513d601f19601f820116820180604052508101906113d69190613814565b611415576040517f08c379a000000000000000000000000000000000000000000000000000000000815260040161140c906138c4565b60405180910390fd5b600160009054906101000a900473ffffffffffffffffffffffffffffffffffffffff1673ffffffffffffffffffffffffffffffffffffffff1663351ba61b8585856040518463ffffffff1660e01b815260040161147493929190613fbf565b602060405180830381865afa158015611491573d6000803e3d6000fd5b505050506040513d601f19601f820116820180604052508101906114b59190613a21565b90509392505050565b600160009054906101000a900473ffffffffffffffffffffffffffffffffffffffff1673ffffffffffffffffffffffffffffffffffffffff1663b4ca82b8336040518263ffffffff1660e01b81526004016115199190613985565b602060405180830381865afa158015611536573d6000803e3d6000fd5b505050506040513d601f19601f8201168201806040525081019061155a9190613814565b611599576040517f08c379a000000000000000000000000000000000000000000000000000000000815260040161159090614049565b60405180910390fd5b600160009054906101000a900473ffffffffffffffffffffffffffffffffffffffff1673ffffffffffffffffffffffffffffffffffffffff16639de5f9573384846040518463ffffffff1660e01b81526004016115f893929190613fbf565b602060405180830381865afa158015611615573d6000803e3d6000fd5b505050506040513d601f19601f820116820180604052508101906116399190613814565b15611679576040517f08c379a0000000000000000000000000000000000000000000000000000000008152600401611670906140db565b60405180910390fd5b600160009054906101000a900473ffffffffffffffffffffffffffffffffffffffff1673ffffffffffffffffffffffffffffffffffffffff16633cc0be9c3384846040518463ffffffff1660e01b81526004016116d893929190613fbf565b600060405180830381600087803b1580156116f257600080fd5b505af1158015611706573d6000803e3d6000fd5b505050505050565b6000600160009054906101000a900473ffffffffffffffffffffffffffffffffffffffff1673ffffffffffffffffffffffffffffffffffffffff1663c23bcf096040518163ffffffff1660e01b8152600401602060405180830381865afa15801561177d573d6000803e3d6000fd5b505050506040513d601f19601f820116820180604052508101906117a19190613a21565b905090565b6000600160009054906101000a900473ffffffffffffffffffffffffffffffffffffffff1673ffffffffffffffffffffffffffffffffffffffff16634c7ebd37836040518263ffffffff1660e01b81526004016118039190613985565b602060405180830381865afa158015611820573d6000803e3d6000fd5b505050506040513d601f19601f820116820180604052508101906118449190613a21565b9050919050565b61185361312b565b600460003373ffffffffffffffffffffffffffffffffffffffff1673ffffffffffffffffffffffffffffffffffffffff16815260200190815260200160002060000160009054906101000a900460ff166118e2576040517f08c379a00000000000000000000000000000000000000000000000000000000081526004016118d990614147565b60405180910390fd5b600460003373ffffffffffffffffffffffffffffffffffffffff1673ffffffffffffffffffffffffffffffffffffffff168152602001908152602001600020600101600380602002604051908101604052809291908260038015611981576020028201916000905b82829054906101000a900460ff1660ff168152602001906001019060208260000104928301926001038202915080841161194a5790505b5050505050905090565b670de0b6b3a764000081565b60008160ff16600460008573ffffffffffffffffffffffffffffffffffffffff1673ffffffffffffffffffffffffffffffffffffffff1681526020019081526020016000206001016000600381106119f2576119f1613b74565b5b602091828204019190069054906101000a900460ff1660ff161480611a8657508160ff16600460008573ffffffffffffffffffffffffffffffffffffffff1673ffffffffffffffffffffffffffffffffffffffff168152602001908152602001600020600101600160038110611a6b57611a6a613b74565b5b602091828204019190069054906101000a900460ff1660ff16145b80611b0057508160ff16600460008573ffffffffffffffffffffffffffffffffffffffff1673ffffffffffffffffffffffffffffffffffffffff168152602001908152602001600020600101600260038110611ae557611ae4613b74565b5b602091828204019190069054906101000a900460ff1660ff16145b905092915050565b6000600160009054906101000a900473ffffffffffffffffffffffffffffffffffffffff1673ffffffffffffffffffffffffffffffffffffffff16639de5f9578585856040518463ffffffff1660e01b8152600401611b6993929190613fbf565b602060405180830381865afa158015611b86573d6000803e3d6000fd5b505050506040513d601f19601f82011682018060405250810190611baa9190613814565b90509392505050565b600160009054906101000a900473ffffffffffffffffffffffffffffffffffffffff1673ffffffffffffffffffffffffffffffffffffffff1663cd905dff6040518163ffffffff1660e01b8152600401602060405180830381865afa158015611c20573d6000803e3d6000fd5b505050506040513d601f19601f82011682018060405250810190611c449190613814565b611c83576040517f08c379a0000000000000000000000000000000000000000000000000000000008152600401611c7a906138c4565b60405180910390fd5b611c8e838383611b08565b611ccd576040517f08c379a0000000000000000000000000000000000000000000000000000000008152600401611cc4906141d9565b60405180910390fd5b600160009054906101000a900473ffffffffffffffffffffffffffffffffffffffff1673ffffffffffffffffffffffffffffffffffffffff16638c9f1afe3485853334876040518763ffffffff1660e01b8152600401611d319594939291906141f9565b6000604051808303818588803b158015611d4a57600080fd5b505af1158015611d5e573d6000803e3d6000fd5b50505050507fc74b44fab70b016109f4d4986f15feaa7afd40bad9b165104eff4f57e309b8588383833334604051611d9a959493929190614253565b60405180910390a1505050565b6000600160009054906101000a900473ffffffffffffffffffffffffffffffffffffffff1673ffffffffffffffffffffffffffffffffffffffff1663cd905dff6040518163ffffffff1660e01b8152600401602060405180830381865afa158015611e16573d6000803e3d6000fd5b505050506040513d601f19601f82011682018060405250810190611e3a9190613814565b611e79576040517f08c379a0000000000000000000000000000000000000000000000000000000008152600401611e70906138c4565b60405180910390fd5b600160009054906101000a900473ffffffffffffffffffffffffffffffffffffffff1673ffffffffffffffffffffffffffffffffffffffff1663ad0a4f32836040518263ffffffff1660e01b8152600401611ed49190613985565b602060405180830381865afa158015611ef1573d6000803e3d6000fd5b505050506040513d601f19601f82011682018060405250810190611f159190613a21565b9050919050565b6000600160009054906101000a900473ffffffffffffffffffffffffffffffffffffffff1673ffffffffffffffffffffffffffffffffffffffff1663b4ca82b8836040518263ffffffff1660e01b8152600401611f799190613985565b602060405180830381865afa158015611f96573d6000803e3d6000fd5b505050506040513d601f19601f82011682018060405250810190611fba9190613814565b9050919050565b600160009054906101000a900473ffffffffffffffffffffffffffffffffffffffff1673ffffffffffffffffffffffffffffffffffffffff1663cd905dff6040518163ffffffff1660e01b8152600401602060405180830381865afa15801561202e573d6000803e3d6000fd5b505050506040513d601f19601f820116820180604052508101906120529190613814565b612091576040517f08c379a0000000000000000000000000000000000000000000000000000000008152600401612088906138c4565b60405180910390fd5b678ac7230489e80000803410156120dd576040517f08c379a00000000000000000000000000000000000000000000000000000000081526004016120d4906142f9565b60405180910390fd5b678ac7230489e8000033600082346120f59190614319565b90508173ffffffffffffffffffffffffffffffffffffffff166108fc829081150290604051600060405180830381858888f1935050505015801561213d573d6000803e3d6000fd5b50600160009054906101000a900473ffffffffffffffffffffffffffffffffffffffff1673ffffffffffffffffffffffffffffffffffffffff16631eeb8858336040518263ffffffff1660e01b81526004016121999190613985565b602060405180830381865afa1580156121b6573d6000803e3d6000fd5b505050506040513d601f19601f820116820180604052508101906121da9190613814565b612219576040517f08c379a000000000000000000000000000000000000000000000000000000000815260040161221090614399565b60405180910390fd5b600160009054906101000a900473ffffffffffffffffffffffffffffffffffffffff1673ffffffffffffffffffffffffffffffffffffffff1663b4ca82b8336040518263ffffffff1660e01b81526004016122749190613985565b602060405180830381865afa158015612291573d6000803e3d6000fd5b505050506040513d601f19601f820116820180604052508101906122b59190613814565b156122f5576040517f08c379a00000000000000000000000000000000000000000000000000000000081526004016122ec90614405565b60405180910390fd5b600160009054906101000a900473ffffffffffffffffffffffffffffffffffffffff1673ffffffffffffffffffffffffffffffffffffffff166323024408678ac7230489e80000336040518363ffffffff1660e01b81526004016123599190613985565b6000604051808303818588803b15801561237257600080fd5b505af1158015612386573d6000803e3d6000fd5b505050505050505050565b600160009054906101000a900473ffffffffffffffffffffffffffffffffffffffff1673ffffffffffffffffffffffffffffffffffffffff1663cd905dff6040518163ffffffff1660e01b8152600401602060405180830381865afa1580156123fe573d6000803e3d6000fd5b505050506040513d601f19601f820116820180604052508101906124229190613814565b612461576040517f08c379a0000000000000000000000000000000000000000000000000000000008152600401612458906138c4565b60405180910390fd5b600073ffffffffffffffffffffffffffffffffffffffff168173ffffffffffffffffffffffffffffffffffffffff1614156124d1576040517f08c379a00000000000000000000000000000000000000000000000000000000081526004016124c890614471565b60405180910390fd5b60006124db61170e565b9050600060149054906101000a900460ff1660ff168110156125c357600160009054906101000a900473ffffffffffffffffffffffffffffffffffffffff1673ffffffffffffffffffffffffffffffffffffffff166395386ae28360006040518363ffffffff1660e01b8152600401612555929190613d8c565b600060405180830381600087803b15801561256f57600080fd5b505af1158015612583573d6000803e3d6000fd5b505050507f89a6354fb229eda6cbc28306798727b4d524818d2c375220bc3f360f24cffaca826040516125b69190613985565b60405180910390a16125fb565b7ffa4b756e9be85feefc75559b50ec1cfc7d9ecc5f4998839290531b9e1c14a8eb826040516125f29190613985565b60405180910390a15b5050565b678ac7230489e8000081565b8460ff16600460003373ffffffffffffffffffffffffffffffffffffffff1673ffffffffffffffffffffffffffffffffffffffff16815260200190815260200160002060010160006003811061266457612663613b74565b5b602091828204019190069054906101000a900460ff1660ff1614806126f857508460ff16600460003373ffffffffffffffffffffffffffffffffffffffff1673ffffffffffffffffffffffffffffffffffffffff1681526020019081526020016000206001016001600381106126dd576126dc613b74565b5b602091828204019190069054906101000a900460ff1660ff16145b8061277257508460ff16600460003373ffffffffffffffffffffffffffffffffffffffff1673ffffffffffffffffffffffffffffffffffffffff16815260200190815260200160002060010160026003811061275757612756613b74565b5b602091828204019190069054906101000a900460ff1660ff16145b6127b1576040517f08c379a00000000000000000000000000000000000000000000000000000000081526004016127a890614503565b60405180910390fd5b6000858585856040516020016127ca94939291906145fe565b6040516020818303038152906040528051906020012090506005600082815260200190815260200160002060000160149054906101000a900460ff16612845576040517f08c379a000000000000000000000000000000000000000000000000000000000815260040161283c906146ba565b60405180910390fd5b6005600082815260200190815260200160002060010160008360ff1660ff168152602001908152602001600020339080600181540180825580915050600190039060005260206000200160009091909190916101000a81548173ffffffffffffffffffffffffffffffffffffffff021916908373ffffffffffffffffffffffffffffffffffffffff1602179055507f43c853095c2752648493c88b4baac4d580d2594ffb00c6f1d4242d844514f7838585858560405161290894939291906146e9565b60405180910390a160036005600083815260200190815260200160002060010160008460ff1660ff1681526020019081526020016000208054905010612993577fe23f5229de535c091e3b7bec2665f5d698192d3b31393066e8987b7a05076b6c8585858560405161297d94939291906146e9565b60405180910390a16129928686868686612df1565b5b505050505050565b6000600160009054906101000a900473ffffffffffffffffffffffffffffffffffffffff1673ffffffffffffffffffffffffffffffffffffffff1663cd905dff6040518163ffffffff1660e01b8152600401602060405180830381865afa158015612a0a573d6000803e3d6000fd5b505050506040513d601f19601f82011682018060405250810190612a2e9190613814565b905090565b6000600160009054906101000a900473ffffffffffffffffffffffffffffffffffffffff1673ffffffffffffffffffffffffffffffffffffffff1663d8c2705d836040518263ffffffff1660e01b8152600401612a909190613985565b602060405180830381865afa158015612aad573d6000803e3d6000fd5b505050506040513d601f19601f82011682018060405250810190612ad19190613a21565b9050919050565b6000612ae333612fc5565b9050600081858585604051602001612afe94939291906145fe565b604051602081830303815290604052805190602001209050336005600083815260200190815260200160002060000160006101000a81548173ffffffffffffffffffffffffffffffffffffffff021916908373ffffffffffffffffffffffffffffffffffffffff16021790555060016005600083815260200190815260200160002060000160146101000a81548160ff0219169083151502179055507f3ed01f2c3fc24c6b329d931e35b03e390d23497d22b3f90e15b600343e93df1182868686604051612bcf9493929190614735565b60405180910390a15050505050565b60008183612bec9190614781565b905092915050565b60008183612c0291906147b2565b905092915050565b612c1261312b565b612c1a61312b565b612c2383612fc5565b81600060038110612c3757612c36613b74565b5b602002019060ff16908160ff168152505080600060038110612c5c57612c5b613b74565b5b602002015181600160038110612c7557612c74613b74565b5b602002019060ff16908160ff16815250505b80600060038110612c9b57612c9a613b74565b5b602002015160ff1681600160038110612cb757612cb6613b74565b5b602002015160ff161415612cf857612cce83612fc5565b81600160038110612ce257612ce1613b74565b5b602002019060ff16908160ff1681525050612c87565b80600160038110612d0c57612d0b613b74565b5b602002015181600260038110612d2557612d24613b74565b5b602002019060ff16908160ff16815250505b80600060038110612d4b57612d4a613b74565b5b602002015160ff1681600260038110612d6757612d66613b74565b5b602002015160ff161480612db0575080600160038110612d8a57612d89613b74565b5b602002015160ff1681600260038110612da657612da5613b74565b5b602002015160ff16145b15612de857612dbe83612fc5565b81600260038110612dd257612dd1613b74565b5b602002019060ff16908160ff1681525050612d37565b80915050919050565b600085858585604051602001612e0a94939291906145fe565b60405160208183030381529060405280519060200120905060006005600083815260200190815260200160002060000160146101000a81548160ff021916908315150217905550600160009054906101000a900473ffffffffffffffffffffffffffffffffffffffff1673ffffffffffffffffffffffffffffffffffffffff166306910747868686866040518563ffffffff1660e01b8152600401612eb29493929190614839565b600060405180830381600087803b158015612ecc57600080fd5b505af1158015612ee0573d6000803e3d6000fd5b5050505060148260ff161415612fbd57600160009054906101000a900473ffffffffffffffffffffffffffffffffffffffff1673ffffffffffffffffffffffffffffffffffffffff1663c8820a708686866040518463ffffffff1660e01b8152600401612f4f93929190613fbf565b600060405180830381600087803b158015612f6957600080fd5b505af1158015612f7d573d6000803e3d6000fd5b505050507fb9a6a7dcb0afc21d8130135aa02e64251aa614dc7215dee9dc492d740d7b893b858585604051612fb493929190613fbf565b60405180910390a15b505050505050565b600080600a905060008160ff166003600081819054906101000a900460ff1680929190612ff190614885565b91906101000a81548160ff021916908360ff16021790555060ff16436130179190614319565b408560405160200161302a9291906148da565b6040516020818303038152906040528051906020012060001c61304d9190613d5b565b905060fa600360009054906101000a900460ff1660ff161115613087576000600360006101000a81548160ff021916908360ff1602179055505b8092505050919050565b826003601f0160209004810192821561311a5791602002820160005b838211156130eb57835183826101000a81548160ff021916908360ff16021790555092602001926001016020816000010492830192600103026130ad565b80156131185782816101000a81549060ff02191690556001016020816000010492830192600103026130eb565b505b509050613127919061314d565b5090565b6040518060600160405280600390602082028036833780820191505090505090565b5b8082111561316657600081600090555060010161314e565b5090565b6000604051905090565b600080fd5b600080fd5b600073ffffffffffffffffffffffffffffffffffffffff82169050919050565b60006131a98261317e565b9050919050565b6131b98161319e565b81146131c457600080fd5b50565b6000813590506131d6816131b0565b92915050565b60008115159050919050565b6131f1816131dc565b81146131fc57600080fd5b50565b60008135905061320e816131e8565b92915050565b6000806040838503121561322b5761322a613174565b5b6000613239858286016131c7565b925050602061324a858286016131ff565b9150509250929050565b60006020828403121561326a57613269613174565b5b6000613278848285016131c7565b91505092915050565b61328a816131dc565b82525050565b60006020820190506132a56000830184613281565b92915050565b600081519050919050565b600082825260208201905092915050565b6000819050602082019050919050565b6132e08161319e565b82525050565b60006132f283836132d7565b60208301905092915050565b6000602082019050919050565b6000613316826132ab565b61332081856132b6565b935061332b836132c7565b8060005b8381101561335c57815161334388826132e6565b975061334e836132fe565b92505060018101905061332f565b5085935050505092915050565b60006020820190508181036000830152613383818461330b565b905092915050565b6000819050919050565b61339e8161338b565b81146133a957600080fd5b50565b6000813590506133bb81613395565b92915050565b6000602082840312156133d7576133d6613174565b5b60006133e5848285016133ac565b91505092915050565b600080fd5b600080fd5b6000601f19601f8301169050919050565b7f4e487b7100000000000000000000000000000000000000000000000000000000600052604160045260246000fd5b613441826133f8565b810181811067ffffffffffffffff821117156134605761345f613409565b5b80604052505050565b600061347361316a565b905061347f8282613438565b919050565b600067ffffffffffffffff82111561349f5761349e613409565b5b6134a8826133f8565b9050602081019050919050565b82818337600083830152505050565b60006134d76134d284613484565b613469565b9050828152602081018484840111156134f3576134f26133f3565b5b6134fe8482856134b5565b509392505050565b600082601f83011261351b5761351a6133ee565b5b813561352b8482602086016134c4565b91505092915050565b60008060006060848603121561354d5761354c613174565b5b600061355b868287016131c7565b935050602084013567ffffffffffffffff81111561357c5761357b613179565b5b61358886828701613506565b9250506040613599868287016133ac565b9150509250925092565b6135ac8161338b565b82525050565b60006020820190506135c760008301846135a3565b92915050565b600080604083850312156135e4576135e3613174565b5b600083013567ffffffffffffffff81111561360257613601613179565b5b61360e85828601613506565b925050602061361f858286016133ac565b9150509250929050565b600060039050919050565b600081905092915050565b6000819050919050565b600060ff82169050919050565b61365f81613649565b82525050565b60006136718383613656565b60208301905092915050565b6000602082019050919050565b61369381613629565b61369d8184613634565b92506136a88261363f565b8060005b838110156136d95781516136c08782613665565b96506136cb8361367d565b9250506001810190506136ac565b505050505050565b60006060820190506136f6600083018461368a565b92915050565b61370581613649565b811461371057600080fd5b50565b600081359050613722816136fc565b92915050565b6000806040838503121561373f5761373e613174565b5b600061374d858286016131c7565b925050602061375e85828601613713565b9150509250929050565b600080600080600060a0868803121561378457613783613174565b5b600061379288828901613713565b95505060206137a3888289016131c7565b945050604086013567ffffffffffffffff8111156137c4576137c3613179565b5b6137d088828901613506565b93505060606137e1888289016133ac565b92505060806137f288828901613713565b9150509295509295909350565b60008151905061380e816131e8565b92915050565b60006020828403121561382a57613829613174565b5b6000613838848285016137ff565b91505092915050565b600082825260208201905092915050565b7f436f6e74726163742069732063757272656e746c79206e6f74206f706572617460008201527f696f6e616c000000000000000000000000000000000000000000000000000000602082015250565b60006138ae602583613841565b91506138b982613852565b604082019050919050565b600060208201905081810360008301526138dd816138a1565b9050919050565b7f4e6f20766f746174696f6e206e65656465642e204c657373207468616e20352060008201527f6169726c696e6573207265676973746572656400000000000000000000000000602082015250565b6000613940603383613841565b915061394b826138e4565b604082019050919050565b6000602082019050818103600083015261396f81613933565b9050919050565b61397f8161319e565b82525050565b600060208201905061399a6000830184613976565b92915050565b7f4169726c696e6520697320616c72656164792072656769737465726564000000600082015250565b60006139d6601d83613841565b91506139e1826139a0565b602082019050919050565b60006020820190508181036000830152613a05816139c9565b9050919050565b600081519050613a1b81613395565b92915050565b600060208284031215613a3757613a36613174565b5b6000613a4584828501613a0c565b91505092915050565b600067ffffffffffffffff821115613a6957613a68613409565b5b602082029050602081019050919050565b600080fd5b600081519050613a8e816131b0565b92915050565b6000613aa7613aa284613a4e565b613469565b90508083825260208201905060208402830185811115613aca57613ac9613a7a565b5b835b81811015613af35780613adf8882613a7f565b845260208401935050602081019050613acc565b5050509392505050565b600082601f830112613b1257613b116133ee565b5b8151613b22848260208601613a94565b91505092915050565b600060208284031215613b4157613b40613174565b5b600082015167ffffffffffffffff811115613b5f57613b5e613179565b5b613b6b84828501613afd565b91505092915050565b7f4e487b7100000000000000000000000000000000000000000000000000000000600052603260045260246000fd5b7f4e487b7100000000000000000000000000000000000000000000000000000000600052601160045260246000fd5b6000613bdd8261338b565b91507fffffffffffffffffffffffffffffffffffffffffffffffffffffffffffffffff821415613c1057613c0f613ba3565b5b600182019050919050565b7f5265717565737465722068617320616c726561647920766f7465640000000000600082015250565b6000613c51601b83613841565b9150613c5c82613c1b565b602082019050919050565b60006020820190508181036000830152613c8081613c44565b9050919050565b6000606082019050613c9c6000830186613976565b613ca96020830185613976565b613cb66040830184613281565b949350505050565b6000819050919050565b6000819050919050565b6000613ced613ce8613ce384613cbe565b613cc8565b61338b565b9050919050565b613cfd81613cd2565b82525050565b6000604082019050613d186000830185613976565b613d256020830184613cf4565b9392505050565b7f4e487b7100000000000000000000000000000000000000000000000000000000600052601260045260246000fd5b6000613d668261338b565b9150613d718361338b565b925082613d8157613d80613d2c565b5b828206905092915050565b6000604082019050613da16000830185613976565b613dae6020830184613281565b9392505050565b7f50617373656e676572206163636f756e74206973206e656564656420746f206d60008201527f616b65207769746864726177616c000000000000000000000000000000000000602082015250565b6000613e11602e83613841565b9150613e1c82613db5565b604082019050919050565b60006020820190508181036000830152613e4081613e04565b9050919050565b7f4e6f7420656e6f756768742062616c616e636520696e206163636f756e740000600082015250565b6000613e7d601e83613841565b9150613e8882613e47565b602082019050919050565b60006020820190508181036000830152613eac81613e70565b9050919050565b6000604082019050613ec86000830185613976565b613ed560208301846135a3565b9392505050565b7f526567697374726174696f6e2066656520697320726571756972656400000000600082015250565b6000613f12601c83613841565b9150613f1d82613edc565b602082019050919050565b60006020820190508181036000830152613f4181613f05565b9050919050565b600081519050919050565b60005b83811015613f71578082015181840152602081019050613f56565b83811115613f80576000848401525b50505050565b6000613f9182613f48565b613f9b8185613841565b9350613fab818560208601613f53565b613fb4816133f8565b840191505092915050565b6000606082019050613fd46000830186613976565b8181036020830152613fe68185613f86565b9050613ff560408301846135a3565b949350505050565b7f4169726c696e6520686173206e6f74206265656e2066756e6465640000000000600082015250565b6000614033601b83613841565b915061403e82613ffd565b602082019050919050565b6000602082019050818103600083015261406281614026565b9050919050565b7f5468697320666c696768742068617320616c7265616479206265656e2072656760008201527f6973746572656400000000000000000000000000000000000000000000000000602082015250565b60006140c5602783613841565b91506140d082614069565b604082019050919050565b600060208201905081810360008301526140f4816140b8565b9050919050565b7f4e6f74207265676973746572656420617320616e206f7261636c650000000000600082015250565b6000614131601b83613841565b915061413c826140fb565b602082019050919050565b6000602082019050818103600083015261416081614124565b9050919050565b7f466c6967687420646f6573206e6f74206578697374206f72206973206e6f742060008201527f7265676973746572656400000000000000000000000000000000000000000000602082015250565b60006141c3602a83613841565b91506141ce82614167565b604082019050919050565b600060208201905081810360008301526141f2816141b6565b9050919050565b600060a08201905061420e6000830188613976565b81810360208301526142208187613f86565b905061422f6040830186613976565b61423c60608301856135a3565b61424960808301846135a3565b9695505050505050565b600060a0820190506142686000830188613976565b818103602083015261427a8187613f86565b905061428960408301866135a3565b6142966060830185613976565b6142a360808301846135a3565b9695505050505050565b7f5061796d656e7420697320696e737566696369656e7400000000000000000000600082015250565b60006142e3601683613841565b91506142ee826142ad565b602082019050919050565b60006020820190508181036000830152614312816142d6565b9050919050565b60006143248261338b565b915061432f8361338b565b92508282101561434257614341613ba3565b5b828203905092915050565b7f4169726c696e65206973206e6f74207265676973746572656400000000000000600082015250565b6000614383601983613841565b915061438e8261434d565b602082019050919050565b600060208201905081810360008301526143b281614376565b9050919050565b7f4169726c696e652077617320616c72656164792066756e646564000000000000600082015250565b60006143ef601a83613841565b91506143fa826143b9565b602082019050919050565b6000602082019050818103600083015261441e816143e2565b9050919050565b7f496e76616c69644163636f756e74416464726573730000000000000000000000600082015250565b600061445b601583613841565b915061446682614425565b602082019050919050565b6000602082019050818103600083015261448a8161444e565b9050919050565b7f496e64657820646f6573206e6f74206d61746368206f7261636c65207265717560008201527f6573740000000000000000000000000000000000000000000000000000000000602082015250565b60006144ed602383613841565b91506144f882614491565b604082019050919050565b6000602082019050818103600083015261451c816144e0565b9050919050565b60008160f81b9050919050565b600061453b82614523565b9050919050565b61455361454e82613649565b614530565b82525050565b60008160601b9050919050565b600061457182614559565b9050919050565b600061458382614566565b9050919050565b61459b6145968261319e565b614578565b82525050565b600081905092915050565b60006145b782613f48565b6145c181856145a1565b93506145d1818560208601613f53565b80840191505092915050565b6000819050919050565b6145f86145f38261338b565b6145dd565b82525050565b600061460a8287614542565b60018201915061461a828661458a565b60148201915061462a82856145ac565b915061463682846145e7565b60208201915081905095945050505050565b7f466c69676874206f722074696d657374616d7020646f206e6f74206d6174636860008201527f206f7261636c6520726571756573740000000000000000000000000000000000602082015250565b60006146a4602f83613841565b91506146af82614648565b604082019050919050565b600060208201905081810360008301526146d381614697565b9050919050565b6146e381613649565b82525050565b60006080820190506146fe6000830187613976565b81810360208301526147108186613f86565b905061471f60408301856135a3565b61472c60608301846146da565b95945050505050565b600060808201905061474a60008301876146da565b6147576020830186613976565b81810360408301526147698185613f86565b905061477860608301846135a3565b95945050505050565b600061478c8261338b565b91506147978361338b565b9250826147a7576147a6613d2c565b5b828204905092915050565b60006147bd8261338b565b91506147c88361338b565b9250827fffffffffffffffffffffffffffffffffffffffffffffffffffffffffffffffff038211156147fd576147fc613ba3565b5b828201905092915050565b600061482361481e61481984613649565b613cc8565b61338b565b9050919050565b61483381614808565b82525050565b600060808201905061484e6000830187613976565b81810360208301526148608186613f86565b905061486f60408301856135a3565b61487c606083018461482a565b95945050505050565b600061489082613649565b915060ff8214156148a4576148a3613ba3565b5b600182019050919050565b6000819050919050565b6000819050919050565b6148d46148cf826148af565b6148b9565b82525050565b60006148e682856148c3565b6020820191506148f6828461458a565b601482019150819050939250505056fea26469706673582212204bd1ba1f5986b585ef75a9f8274db8925c108038f9ff4078abc13ed7508924af64736f6c634300080a0033",
  "immutableReferences": {},
  "source": "// SPDX-License-Identifier: MIT\npragma solidity >=0.4.22 <0.9.0;\n\n// It's important to avoid vulnerabilities due to numeric overflow bugs\n// OpenZeppelin's SafeMath library, when used correctly, protects agains such bugs\n// More info: https://www.nccgroup.trust/us/about-us/newsroom-and-events/blog/2018/november/smart-contract-insecurity-bad-arithmetic/\nimport \"@openzeppelin/contracts/utils/math/SafeMath.sol\";\n\ncontract FlightSuretyApp {\n\n    /* Event triggered when an existing airlines vots for a new one */\n    event AirlineVoted(address newAirline, address voterAirline, bool ballot);\n\n    /* Event triggered when a new airline has been registered */\n    event AirlineRegistered(address newAirline);\n\n    /* Event triggered when a user buys an insurance */\n    event InsurancePurchaseEvent(address airline, string flightNumber, uint timestamps, address passenger, uint amount);\n\n    /* Event triggered when a user withdraws */\n    event WithdrawalEvent(address account, uint256 amount);\n\n    /* Event triggered when an oracle responds */\n    event OracleResponseEvent(address airline, string flight, uint256 timestamp, uint8 status);\n\n    /* Event triggered when a flight was delayed and adds to the insuree the credit */\n    event InsurancePayoutCredit(address airline, string flightNumber, uint256 timestamp);\n\n    \n    // Allow SafeMath functions to be called for all uint256 types (similar to \"prototype\" in Javascript)\n    using SafeMath for uint256; \n\n    /********************************************************************************************/\n    /*                                       DATA VARIABLES                                     */\n    /********************************************************************************************/\n\n    // Flight status codees\n    uint8 private constant STATUS_CODE_UNKNOWN = 0;\n    uint8 private constant STATUS_CODE_ON_TIME = 10;\n    uint8 private constant STATUS_CODE_LATE_AIRLINE = 20;\n    uint8 private constant STATUS_CODE_LATE_WEATHER = 30;\n    uint8 private constant STATUS_CODE_LATE_TECHNICAL = 40;\n    uint8 private constant STATUS_CODE_LATE_OTHER = 50;\n\n    // Account used to deploy contract\n    address private contractOwner; \n\n    /* Number of airlines already registered until needed to vote for a new one */\n    uint8 threshold = 5;\n    \n    IFlightSuretyData flightSuretyData;\n\n    uint256 public constant RegistrationFee = 10 ether;\n\n    struct Flight {\n        bool isRegistered;\n        uint8 statusCode;\n        uint256 updatedTimestamp;        \n        address airline;\n    }\n\n    mapping(bytes32 => Flight) private flights;\n\n    /********************************************************************************************/\n    /*                                       FUNCTION MODIFIERS                                 */\n    /********************************************************************************************/\n\n    // Modifiers help avoid duplication of code. They are typically used to validate something\n    // before a function is allowed to be executed.\n\n    /**\n    * @dev Modifier that requires the \"operational\" boolean variable to be \"true\"\n    *      This is used on all state changing functions to pause the contract in \n    *      the event there is an issue that needs to be fixed\n    */\n    modifier requireIsOperational()\n    {\n        // Modify to call data contract's status\n        require(flightSuretyData.isOperational(), \"Contract is currently not operational\");  \n\n        // All modifiers require an \"_\" which indicates where the function body will be added\n        _;\n    }\n\n    /**\n    * @dev Modifier that requires that what is being paid is enough\n    */\n    modifier paidEnough(uint256 _value)\n    {\n        require(msg.value >= _value, 'Payment is insuficient');\n        _;\n    }\n\n    /**\n    * @dev Modifier that validates the payment, returning if there are remaining funds\n    */\n    modifier checkPayment(uint256 _value, address payable account)\n    {\n        uint256 spare = msg.value - _value;\n        account.transfer(spare);\n        _;\n    }\n\n    /**\n    * @dev Modifier that requires the \"ContractOwner\" account to be the function caller\n    */\n    modifier requireContractOwner()\n    {\n        require(msg.sender == contractOwner, \"Caller is not contract owner\");\n        _;\n    }\n\n    /********************************************************************************************/\n    /*                                       CONSTRUCTOR                                        */\n    /********************************************************************************************/\n\n    /**\n    * @dev Contract constructor\n    *\n    */\n    constructor(address dataContract)\n    {\n        contractOwner = msg.sender;\n        flightSuretyData = IFlightSuretyData(dataContract);\n    }\n\n    /********************************************************************************************/\n    /*                                       UTILITY FUNCTIONS                                  */\n    /********************************************************************************************/\n\n    function isOperational  \n                            () \n                            public \n                            view \n                            returns(bool) \n    {\n        return flightSuretyData.isOperational();\n    }\n\n   /**\n    * @dev This method returns the total number of registered airlines\n    */\n    function totalRegisteredAirlines\n                                    ()\n                                    public\n                                    view\n                                    returns(uint)\n    {\n        return flightSuretyData.getRegisteredAirlines();\n    }\n\n    /**\n    * @dev\n    */\n    function getAccountCredit\n                                (\n                                    address account\n                                )\n                                public\n                                view\n                                returns(uint256)\n    {\n        return flightSuretyData.getAccountCredit(account);\n    }\n\n    /**\n    * @dev \n    */\n    function checkOracleIndex\n                                (\n                                    address oracleAcccount,\n                                    uint8 index\n                                )\n                                public\n                                view\n                                returns(bool)\n    {\n        return  oracles[oracleAcccount].indexes[0] == index || \n                oracles[oracleAcccount].indexes[1] == index ||\n                oracles[oracleAcccount].indexes[2] == index;\n    }\n\n\n\n    /********************************************************************************************/\n    /*                                     SMART CONTRACT FUNCTIONS                             */\n    /********************************************************************************************/\n\n    function getAirlineRegistrationStatus\n                                        (\n                                            address airline\n                                        )\n                                        public\n                                        view\n                                        returns(bool)\n    {\n        return flightSuretyData.getAirlineRegistrationStatus(airline);\n    }\n\n    function getAirlineOperationalStatus\n                                        (\n                                            address airline\n                                        )\n                                        public\n                                        view\n                                        returns(bool)\n    {\n        return flightSuretyData.getAirlineOperationalStatus(airline);\n    }\n\n    function getFlightStatus\n                                        (\n                                            address airline,\n                                            string memory flightNumber,\n                                            uint256 timestamps\n                                        )\n                                        public\n                                        view\n                                        returns(bool)\n    {\n        return flightSuretyData.getFlightStatus(airline, flightNumber, timestamps);\n    }\n    \n   /**\n    * @dev Get the addresses of all the registered airlines\n    *\n    */   \n    function getRegisteredAirlinesAccounts\n                                        ()\n                                        public\n                                        view\n                                        requireIsOperational\n                                        returns(address[] memory)\n    {\n        return flightSuretyData.getRegisteredAirlinesAccounts();\n    }\n\n   /**\n    * @dev Add an airline to the registration queue\n    *\n    */   \n    function registerAirline\n                            (\n                                address airline   \n                            )\n                            external\n                            requireIsOperational\n    {\n        /* Validations */\n        require(airline != address(0), \"InvalidAccountAddress\");\n        // require(flightSuretyData.getAirlineOperationalStatus(msg.sender), \"AirlineHasNotBeenFunded\");\n        //TODO *** check this ***\n        //require(!flightSuretyData.getAirlineRegistrationStatus(msg.sender), \"AirlineAddressAlreadyRegistered\");\n\n        uint registeredAccounts = totalRegisteredAirlines();\n\n        if(registeredAccounts < threshold)\n        {\n            flightSuretyData.registerAirline(airline, false);\n            emit AirlineRegistered(airline);\n        }\n        else\n        {\n            emit VoteRequestEvent(airline);\n        }\n    }\n\n\n   /**\n    * @dev Get the amount of votes that an airline has \n    */\n    function getVotesQty\n                        (\n                            address airline\n                        )\n                        public\n                        view\n                        returns(uint)\n    {\n        return flightSuretyData.getVotesQty(airline);\n    }\n\n   /**\n    * @dev Get the voters af an airline\n    */\n    function getVoters\n                        (\n                            address airline\n                        )\n                        public\n                        view\n                        returns(address[] memory)\n    {\n        return flightSuretyData.getVoter(airline);\n    }\n\n\n\n   /**\n    * @dev This method gives a vote to an applicant airline, when the total airlines registered \n    *      are more than 5. \n    */\n    function voteAirline\n                        (\n                            address airline,\n                            bool vote\n                        )\n                        public\n                        requireIsOperational\n    {\n        require(totalRegisteredAirlines() >= threshold, 'No votation needed. Less than 5 airlines registered');\n        require(!flightSuretyData.getAirlineRegistrationStatus(airline), 'Airline is already registered');\n\n        /**\n        * Validation: Avoid duplication of voting\n        */\n        bool isDuplicate = false;\n        uint256 currentVotersNum = flightSuretyData.getVotersLength(airline);\n        uint256 registeredAirlines = totalRegisteredAirlines();\n\n        if(currentVotersNum == 0)\n        {\n            isDuplicate = false;\n        }\n        else\n        {\n            address[] memory currentVoters = flightSuretyData.getVoter(airline);\n            for(uint i = 0; i < currentVotersNum; i++)\n            {\n                if(currentVoters[i] == msg.sender)\n                {\n                    isDuplicate = true;\n                    break;\n                }\n            }\n        }\n\n        require(!isDuplicate, 'Requester has already voted');\n        flightSuretyData.addVoteInformation(airline, msg.sender, vote);        \n        emit AirlineVoted(airline, msg.sender, vote);\n\n        if(vote == true)\n        {\n            flightSuretyData.addVoteToAirline(airline, 1);\n        }\n\n        uint votesQty = flightSuretyData.getVotesQty(airline);\n        uint multipartyThreshold;\n\n        /**\n        * Get the 50% of the already registered airlines\n        */\n        if(registeredAirlines%2 == 1)\n        {\n            multipartyThreshold = registeredAirlines.div(2).add(1);\n        }\n        else\n        {\n            multipartyThreshold = registeredAirlines.div(2);\n        }\n\n        if(votesQty >= multipartyThreshold)\n        {\n            flightSuretyData.registerAirline(airline, false);\n            flightSuretyData.deleteVoteCounter(airline);\n            emit AirlineRegistered(airline);\n        }\n\n        /**\n        * All registered airlines has voted, so close the voting\n        */\n        if(currentVotersNum == registeredAirlines)\n        {\n            flightSuretyData.deleteVoteCounter(airline);\n        }\n        \n    }\n\n   /**\n    * @dev When writing a smart contract, you need to ensure that money is being sent to the contract and out \n    *      of the contract as well. Payable does this for you, any function in Solidity with the modifier Payable \n    *      ensures that the function can send and receive Ether\n    */\n    function fund\n                ()\n                public\n                payable\n                requireIsOperational\n                paidEnough(RegistrationFee)\n                checkPayment(RegistrationFee, payable(msg.sender))\n    {\n\n        /* Validate that the ariline is already registered */\n        require(flightSuretyData.getAirlineRegistrationStatus(msg.sender), 'Airline is not registered');\n\n        /* Validate that the airline has not been already paid the funding */\n        require(!flightSuretyData.getAirlineOperationalStatus(msg.sender), 'Airline was already funded');\n\n        // Send the payment\n        flightSuretyData.fund{value:RegistrationFee}(msg.sender);\n    }\n\n   /**\n    * @dev \n    *\n    */\n    function getFunding\n                      (address account)\n                      public\n                      view\n                      requireIsOperational\n                      returns(uint256)\n    {\n        return flightSuretyData.getFunding(account);\n    }      \n\n   /**\n    * @dev Register a future flight for insuring.\n    *\n    */  \n    function registerFlight\n                                (\n                                    string memory flightNumber,\n                                    uint256 timestamp\n                                )\n                                external\n    {\n        /* Validate airline operational status */\n        require(flightSuretyData.getAirlineOperationalStatus(msg.sender), 'Airline has not been funded');\n        \n        /* Validate that the flight has not been already registered */\n        require(!flightSuretyData.getFlightStatus(\n            msg.sender, flightNumber, timestamp), \n            \"This flight has already been registered\"\n        );\n\n        /* Register the new flight */\n        flightSuretyData.registerFlight(msg.sender, flightNumber, timestamp);\n    }\n\n   /**\n    * @dev Called after oracle has updated flight status\n    *\n    */  \n   /**\n    * @dev Called after oracle has updated flight status\n    *\n    */  \n    function processFlightStatus(\n        uint8 index,\n        address airline,\n        string memory flight,\n        uint256 timestamp,\n        uint8 statusCode\n    )\n        internal\n    {\n        //Ryan added: if the flight is delayed due to airline, automatically process credit to insuree\n        bytes32 key = keccak256(abi.encodePacked(index, airline, flight, timestamp)); \n        oracleResponses[key].isOpen = false;\n        flightSuretyData.addFlightStatusCode(airline, flight, timestamp, statusCode);\n\n        if(statusCode == 20){\n            flightSuretyData.creditInsurees(airline, flight, timestamp);\n            emit InsurancePayoutCredit(airline, flight, timestamp);\n        }\n    }\n    \n    /**\n    * @dev For a user when buys an insurance to a flight\n    */\n    function purchaseInsurance\n                                (\n                                    address airline,\n                                    string memory flightNumber,\n                                    uint timestamps\n                                )\n                                public\n                                payable\n                                requireIsOperational\n    {\n        // Validate that flight exists or is registered\n        require(getFlightStatus(airline, flightNumber, timestamps), 'Flight does not exist or is not registered');\n\n        // Send ETH to data contract\n        flightSuretyData.buy{value: msg.value}(airline, flightNumber, msg.sender, msg.value, timestamps);\n\n        // Emit event\n        emit InsurancePurchaseEvent(airline, flightNumber, timestamps, msg.sender, msg.value);\n    }\n\n    /**\n    * @dev \n    */\n    function withdraw\n                        (\n                            uint256 amount\n                        )\n                        payable\n                        public\n    {\n        // check whether caller is EOA (not contract account)\n        // https://ethereum.stackexchange.com/questions/113962/what-does-msg-sender-tx-origin-actually-do-why\n        require(msg.sender == tx.origin, \"Passenger account is needed to make withdrawal\");\n        \n        // Check that there is enough balance to withdraw\n        require(getAccountCredit(msg.sender) >= amount, 'Not enought balance in account');\n\n        // Send the payment\n        flightSuretyData.payToInsuree(msg.sender, amount);\n\n        // Emit event\n        emit WithdrawalEvent(msg.sender, amount);\n\n    }\n\n    // Oracle managment\n\n    // Incremented to add pseudo-randomness at various points\n    uint8 private nonce = 0;    \n\n    // Fee to be paid when registering oracle\n    uint256 public constant REGISTRATION_FEE = 1 ether;\n\n    // Number of oracles that must respond for valid status\n    uint256 private constant MIN_RESPONSES = 3;\n\n    struct Oracle {\n        bool isRegistered;\n        uint8[3] indexes;        \n    }\n\n    // Track all registered oracles\n    mapping(address => Oracle) private oracles;\n\n    // Model for responses from oracles\n    struct ResponseInfo {\n        address requester;                              // Account that requested status\n        bool isOpen;                                    // If open, oracle responses are accepted\n        mapping(uint8 => address[]) responses;          // Mapping key is the status code reported\n                                                        // This lets us group responses and identify                                                       \n                                                        // the response that majority of the oracles\n    }\n\n    // Track all oracle responses\n    // Key = hash(index, flight, timestamp)\n    mapping(bytes32 => ResponseInfo) private oracleResponses;\n\n    /* Event triggered when a new airlines registers and needs votation to be authorized to enter */\n    event VoteRequestEvent(address airline);\n\n\n    // Event fired each time an oracle submits a response\n    event FlightStatusInfo(address airline, string flight, uint256 timestamp, uint8 status);\n\n    event OracleReport(address airline, string flight, uint256 timestamp, uint8 status);\n\n    // Event fired when flight status request is submitted\n    // Oracles track this and if they have a matching index\n    // they fetch data and submit a response\n    event OracleRequest(uint8 index, address airline, string flight, uint256 timestamp);\n\n    // Register an oracle with the contract\n    function registerOracle\n                            (\n                            )\n                            external\n                            payable\n    {\n        // Require registration fee\n        require(msg.value >= REGISTRATION_FEE, \"Registration fee is required\");\n\n        uint8[3] memory indexes = generateIndexes(msg.sender);\n\n        oracles[msg.sender] = Oracle({\n                                        isRegistered: true,\n                                        indexes: indexes\n                                    });\n    }\n\n    function getMyIndexes\n                            (\n                            )\n                            view\n                            external\n                            returns(uint8[3] memory)\n    {\n        require(oracles[msg.sender].isRegistered, \"Not registered as an oracle\");\n\n        return oracles[msg.sender].indexes;\n    }\n\n    // Called by oracle when a response is available to an outstanding request\n    // For the response to be accepted, there must be a pending request that is open\n    // and matches one of the three Indexes randomly assigned to the oracle at the\n    // time of registration (i.e. uninvited oracles are not welcome)\n    function submitOracleResponse\n                        (\n                            uint8 index,\n                            address airline,\n                            string memory flight,\n                            uint256 timestamp,\n                            uint8 statusCode\n                        )\n                        external\n    {\n        require((oracles[msg.sender].indexes[0] == index) || (oracles[msg.sender].indexes[1] == index) || (oracles[msg.sender].indexes[2] == index), \"Index does not match oracle request\");\n\n\n        bytes32 key = keccak256(abi.encodePacked(index, airline, flight, timestamp)); \n        require(oracleResponses[key].isOpen, \"Flight or timestamp do not match oracle request\");\n\n        oracleResponses[key].responses[statusCode].push(msg.sender);\n\n        // Information isn't considered verified until at least MIN_RESPONSES\n        // oracles respond with the *** same *** information\n        emit OracleReport(airline, flight, timestamp, statusCode);\n        \n        if (oracleResponses[key].responses[statusCode].length >= MIN_RESPONSES) {\n\n            emit FlightStatusInfo(airline, flight, timestamp, statusCode);\n\n            // Handle flight status as appropriate\n            processFlightStatus(index, airline, flight, timestamp, statusCode);\n        }\n    }\n\n    function getFlightKey\n                        (\n                            address airline,\n                            string memory flight,\n                            uint256 timestamp\n                        )\n                        pure\n                        internal\n                        returns(bytes32) \n    {\n        return keccak256(abi.encodePacked(airline, flight, timestamp));\n    }\n\n    /**\n    * @dev Generate a request for oracles to fetch flight status\n    */\n    function fetchFlightStatus\n                                (\n                                    address airline,\n                                    string memory flight,\n                                    uint256 timestamp\n                                )\n                                public\n    {\n        uint8 index = getRandomIndex(msg.sender);\n\n        // Generate a unique key for storing the request\n        bytes32 key = keccak256(abi.encodePacked(index, airline, flight, timestamp));\n        \n        oracleResponses[key].requester = msg.sender;\n        oracleResponses[key].isOpen = true;\n\n        emit OracleRequest(index, airline, flight, timestamp);\n    }\n\n    /**\n    * @dev\n    */\n    function getFlightStatusCode\n                                (\n                                    address airline,\n                                    string memory flight,\n                                    uint256 timestamp\n                                )\n                                public \n                                view\n                                requireIsOperational\n                                returns(uint256)\n    {\n        return flightSuretyData.getFlightStatusCode(airline, flight, timestamp);\n    }\n                                \n\n\n\n    // Returns array of three non-duplicating integers from 0-9\n    function generateIndexes\n                            (                       \n                                address account         \n                            )\n                            internal\n                            returns(uint8[3] memory)\n    {\n        uint8[3] memory indexes;\n        indexes[0] = getRandomIndex(account);\n        \n        indexes[1] = indexes[0];\n        while(indexes[1] == indexes[0]) {\n            indexes[1] = getRandomIndex(account);\n        }\n\n        indexes[2] = indexes[1];\n        while((indexes[2] == indexes[0]) || (indexes[2] == indexes[1])) {\n            indexes[2] = getRandomIndex(account);\n        }\n\n        return indexes;\n    }\n\n    // Returns array of three non-duplicating integers from 0-9\n    function getRandomIndex\n                            (\n                                address account\n                            )\n                            internal\n                            returns (uint8)\n    {\n        uint8 maxValue = 10;\n\n        // Pseudo random number...the incrementing nonce adds variation\n        uint8 random = uint8(uint256(keccak256(abi.encodePacked(blockhash(block.number - nonce++), account))) % maxValue);\n\n        if (nonce > 250) {\n            nonce = 0;  // Can only fetch blockhashes for last 256 blocks so we adapt\n        }\n\n        return random;\n    }\n}\n\n/**\n* @dev We add a reference to the Data Contract. For this we create an interface.\n*      We are telling the app contract how to interact with the data contract\n*/\nabstract contract IFlightSuretyData {\n    function isOperational() public view virtual returns(bool);\n    function registerAirline(address airline, bool fundComplete) external virtual;\n    function getAirlineOperationalStatus(address airlineAddress) external view virtual returns(bool);\n    function getAirlineRegistrationStatus(address airlineAddress) external view virtual returns(bool);\n    function getRegisteredAirlines() external view virtual returns(uint256);\n    function getRegisteredAirlinesAccounts() external view virtual returns(address [] memory);\n    function fund(address account) external virtual payable;\n    function getFlightStatus(address airline, string memory flightNumber, uint256 timestamp) external virtual view returns(bool);\n    function registerFlight(address airline, string memory flight, uint256 timestamp) external virtual;\n    function getFunding(address account) external view virtual returns(uint256);\n    function getVotersLength(address account) external view virtual returns(uint256);\n    function getVoter(address account) external view virtual returns(address[] memory);\n    function addVoteToAirline(address enteringAirline, uint newVote) external virtual;\n    function getVotesQty(address airline) external virtual view returns(uint);\n    function deleteVoteCounter(address airline) external virtual;\n    function getVoters(address airline) external view virtual returns(address[] memory);\n    function addVoteInformation(address enteringAirline, address registeredAirline, bool vote) external virtual;\n    function buy(address account, string memory flightNumber, address insuree, uint amount, uint timestamps) external virtual payable;\n    function getAccountCredit(address account) external virtual view returns(uint256);\n    function payToInsuree(address account, uint256 amount) external payable virtual;\n    function getFlightStatusCode(address airline, string memory flight, uint256 timestamp) external view virtual returns(uint256);\n    function creditInsurees(address airline, string memory flightNumber, uint256 timestamp) external virtual;\n    function addFlightStatusCode(address airline,string memory newFlight, uint256 timestamp, uint256 statusCode) virtual external;\n\n\n}",
  "sourcePath": "/Users/juani/code/courses/udacity_blockchain_developer/flight-surety/contracts/FlightSuretyApp.sol",
  "compiler": {
    "name": "solc",
    "version": "0.8.10+commit.fc410830.Emscripten.clang"
  },
  "schemaVersion": "3.4.11",
  "updatedAt": "2023-03-03T19:18:42.392Z",
  "networkType": "ethereum",
  "devdoc": {
    "kind": "dev",
    "methods": {
      "constructor": {
        "details": "Contract constructor"
      },
      "fetchFlightStatus(address,string,uint256)": {
        "details": "Generate a request for oracles to fetch flight status"
      },
      "fund()": {
        "details": "When writing a smart contract, you need to ensure that money is being sent to the contract and out       of the contract as well. Payable does this for you, any function in Solidity with the modifier Payable       ensures that the function can send and receive Ether"
      },
      "getRegisteredAirlinesAccounts()": {
        "details": "Get the addresses of all the registered airlines"
      },
      "getVoters(address)": {
        "details": "Get the voters af an airline"
      },
      "getVotesQty(address)": {
        "details": "Get the amount of votes that an airline has "
      },
      "purchaseInsurance(address,string,uint256)": {
        "details": "For a user when buys an insurance to a flight"
      },
      "registerAirline(address)": {
        "details": "Add an airline to the registration queue"
      },
      "registerFlight(string,uint256)": {
        "details": "Register a future flight for insuring."
      },
      "totalRegisteredAirlines()": {
        "details": "This method returns the total number of registered airlines"
      },
      "voteAirline(address,bool)": {
        "details": "This method gives a vote to an applicant airline, when the total airlines registered       are more than 5. "
      }
    },
    "version": 1
  },
  "userdoc": {
    "kind": "user",
    "methods": {},
    "version": 1
  }
}