{
  "contractName": "FlightSuretyData",
  "abi": [
    {
      "inputs": [],
      "stateMutability": "nonpayable",
      "type": "constructor"
    },
    {
      "anonymous": false,
      "inputs": [
        {
          "indexed": false,
          "internalType": "address",
          "name": "authContract",
          "type": "address"
        }
      ],
      "name": "AuthorizedContract",
      "type": "event"
    },
    {
      "anonymous": false,
      "inputs": [
        {
          "indexed": false,
          "internalType": "address",
          "name": "authContract",
          "type": "address"
        }
      ],
      "name": "DeAuthorizedContract",
      "type": "event"
    },
    {
      "stateMutability": "payable",
      "type": "fallback",
      "payable": true
    },
    {
      "stateMutability": "payable",
      "type": "receive",
      "payable": true
    },
    {
      "inputs": [],
      "name": "isOperational",
      "outputs": [
        {
          "internalType": "bool",
          "name": "",
          "type": "bool"
        }
      ],
      "stateMutability": "view",
      "type": "function",
      "constant": true
    },
    {
      "inputs": [
        {
          "internalType": "bool",
          "name": "mode",
          "type": "bool"
        }
      ],
      "name": "setOperatingStatus",
      "outputs": [],
      "stateMutability": "nonpayable",
      "type": "function"
    },
    {
      "inputs": [
        {
          "internalType": "address",
          "name": "contractAddress",
          "type": "address"
        }
      ],
      "name": "authorizeCaller",
      "outputs": [],
      "stateMutability": "nonpayable",
      "type": "function"
    },
    {
      "inputs": [
        {
          "internalType": "address",
          "name": "contractAddress",
          "type": "address"
        }
      ],
      "name": "deauthorizeContract",
      "outputs": [],
      "stateMutability": "nonpayable",
      "type": "function"
    },
    {
      "inputs": [
        {
          "internalType": "address",
          "name": "account",
          "type": "address"
        }
      ],
      "name": "getAccountCredit",
      "outputs": [
        {
          "internalType": "uint256",
          "name": "",
          "type": "uint256"
        }
      ],
      "stateMutability": "view",
      "type": "function",
      "constant": true
    },
    {
      "inputs": [
        {
          "internalType": "address",
          "name": "account",
          "type": "address"
        },
        {
          "internalType": "uint256",
          "name": "amount",
          "type": "uint256"
        }
      ],
      "name": "payToInsuree",
      "outputs": [],
      "stateMutability": "payable",
      "type": "function",
      "payable": true
    },
    {
      "inputs": [
        {
          "internalType": "address",
          "name": "airline",
          "type": "address"
        },
        {
          "internalType": "string",
          "name": "newFlight",
          "type": "string"
        },
        {
          "internalType": "uint256",
          "name": "timestamp",
          "type": "uint256"
        },
        {
          "internalType": "uint256",
          "name": "statusCode",
          "type": "uint256"
        }
      ],
      "name": "addFlightStatusCode",
      "outputs": [],
      "stateMutability": "nonpayable",
      "type": "function"
    },
    {
      "inputs": [
        {
          "internalType": "address",
          "name": "airline",
          "type": "address"
        },
        {
          "internalType": "string",
          "name": "flightNumber",
          "type": "string"
        },
        {
          "internalType": "uint256",
          "name": "timestamp",
          "type": "uint256"
        }
      ],
      "name": "creditInsurees",
      "outputs": [],
      "stateMutability": "nonpayable",
      "type": "function"
    },
    {
      "inputs": [],
      "name": "getRegisteredAirlines",
      "outputs": [
        {
          "internalType": "uint256",
          "name": "",
          "type": "uint256"
        }
      ],
      "stateMutability": "view",
      "type": "function",
      "constant": true
    },
    {
      "inputs": [],
      "name": "getRegisteredAirlinesAccounts",
      "outputs": [
        {
          "internalType": "address[]",
          "name": "",
          "type": "address[]"
        }
      ],
      "stateMutability": "view",
      "type": "function",
      "constant": true
    },
    {
      "inputs": [
        {
          "internalType": "address",
          "name": "airlineAddress",
          "type": "address"
        }
      ],
      "name": "getAirlineRegistrationStatus",
      "outputs": [
        {
          "internalType": "bool",
          "name": "",
          "type": "bool"
        }
      ],
      "stateMutability": "view",
      "type": "function",
      "constant": true
    },
    {
      "inputs": [
        {
          "internalType": "address",
          "name": "airlineAddress",
          "type": "address"
        }
      ],
      "name": "getAirlineOperationalStatus",
      "outputs": [
        {
          "internalType": "bool",
          "name": "",
          "type": "bool"
        }
      ],
      "stateMutability": "view",
      "type": "function",
      "constant": true
    },
    {
      "inputs": [
        {
          "internalType": "address",
          "name": "airlineAddress",
          "type": "address"
        },
        {
          "internalType": "bool",
          "name": "fundComplete",
          "type": "bool"
        }
      ],
      "name": "registerAirline",
      "outputs": [],
      "stateMutability": "nonpayable",
      "type": "function"
    },
    {
      "inputs": [
        {
          "internalType": "address",
          "name": "account",
          "type": "address"
        }
      ],
      "name": "fund",
      "outputs": [],
      "stateMutability": "payable",
      "type": "function",
      "payable": true
    },
    {
      "inputs": [
        {
          "internalType": "address",
          "name": "account",
          "type": "address"
        }
      ],
      "name": "getFunding",
      "outputs": [
        {
          "internalType": "uint256",
          "name": "",
          "type": "uint256"
        }
      ],
      "stateMutability": "view",
      "type": "function",
      "constant": true
    },
    {
      "inputs": [
        {
          "internalType": "address",
          "name": "airlineAddress",
          "type": "address"
        },
        {
          "internalType": "string",
          "name": "flight",
          "type": "string"
        },
        {
          "internalType": "uint256",
          "name": "timestamp",
          "type": "uint256"
        }
      ],
      "name": "registerFlight",
      "outputs": [],
      "stateMutability": "nonpayable",
      "type": "function"
    },
    {
      "inputs": [
        {
          "internalType": "address",
          "name": "airline",
          "type": "address"
        },
        {
          "internalType": "string",
          "name": "flightNumber",
          "type": "string"
        },
        {
          "internalType": "uint256",
          "name": "timestamp",
          "type": "uint256"
        }
      ],
      "name": "getFlightStatus",
      "outputs": [
        {
          "internalType": "bool",
          "name": "",
          "type": "bool"
        }
      ],
      "stateMutability": "view",
      "type": "function",
      "constant": true
    },
    {
      "inputs": [
        {
          "internalType": "address",
          "name": "airline",
          "type": "address"
        },
        {
          "internalType": "string",
          "name": "flight",
          "type": "string"
        },
        {
          "internalType": "uint256",
          "name": "timestamp",
          "type": "uint256"
        },
        {
          "internalType": "uint256",
          "name": "code",
          "type": "uint256"
        }
      ],
      "name": "setFlightStatusCode",
      "outputs": [],
      "stateMutability": "nonpayable",
      "type": "function"
    },
    {
      "inputs": [
        {
          "internalType": "address",
          "name": "airline",
          "type": "address"
        },
        {
          "internalType": "string",
          "name": "flight",
          "type": "string"
        },
        {
          "internalType": "uint256",
          "name": "timestamp",
          "type": "uint256"
        }
      ],
      "name": "getFlightStatusCode",
      "outputs": [
        {
          "internalType": "uint256",
          "name": "",
          "type": "uint256"
        }
      ],
      "stateMutability": "view",
      "type": "function",
      "constant": true
    },
    {
      "inputs": [
        {
          "internalType": "address",
          "name": "airline",
          "type": "address"
        },
        {
          "internalType": "string",
          "name": "flight",
          "type": "string"
        },
        {
          "internalType": "address",
          "name": "insuree",
          "type": "address"
        },
        {
          "internalType": "uint256",
          "name": "amount",
          "type": "uint256"
        },
        {
          "internalType": "uint256",
          "name": "timestamp",
          "type": "uint256"
        }
      ],
      "name": "buy",
      "outputs": [],
      "stateMutability": "payable",
      "type": "function",
      "payable": true
    },
    {
      "inputs": [
        {
          "internalType": "address",
          "name": "airline",
          "type": "address"
        },
        {
          "internalType": "string",
          "name": "flight",
          "type": "string"
        },
        {
          "internalType": "uint256",
          "name": "timestamp",
          "type": "uint256"
        }
      ],
      "name": "getFlightPremium",
      "outputs": [
        {
          "internalType": "uint256",
          "name": "",
          "type": "uint256"
        }
      ],
      "stateMutability": "view",
      "type": "function",
      "constant": true
    },
    {
      "inputs": [
        {
          "internalType": "address",
          "name": "account",
          "type": "address"
        }
      ],
      "name": "getVoter",
      "outputs": [
        {
          "internalType": "address[]",
          "name": "",
          "type": "address[]"
        }
      ],
      "stateMutability": "view",
      "type": "function",
      "constant": true
    },
    {
      "inputs": [
        {
          "internalType": "address",
          "name": "account",
          "type": "address"
        }
      ],
      "name": "getVotersLength",
      "outputs": [
        {
          "internalType": "uint256",
          "name": "",
          "type": "uint256"
        }
      ],
      "stateMutability": "view",
      "type": "function",
      "constant": true
    },
    {
      "inputs": [
        {
          "internalType": "address",
          "name": "account",
          "type": "address"
        }
      ],
      "name": "getVotesQty",
      "outputs": [
        {
          "internalType": "uint256",
          "name": "",
          "type": "uint256"
        }
      ],
      "stateMutability": "view",
      "type": "function",
      "constant": true
    },
    {
      "inputs": [
        {
          "internalType": "address",
          "name": "enteringAirline",
          "type": "address"
        },
        {
          "internalType": "address",
          "name": "registeredAirline",
          "type": "address"
        },
        {
          "internalType": "bool",
          "name": "vote",
          "type": "bool"
        }
      ],
      "name": "addVoteInformation",
      "outputs": [],
      "stateMutability": "nonpayable",
      "type": "function"
    },
    {
      "inputs": [
        {
          "internalType": "address",
          "name": "enteringAirline",
          "type": "address"
        },
        {
          "internalType": "uint256",
          "name": "newVote",
          "type": "uint256"
        }
      ],
      "name": "addVoteToAirline",
      "outputs": [],
      "stateMutability": "nonpayable",
      "type": "function"
    },
    {
      "inputs": [
        {
          "internalType": "address",
          "name": "airline",
          "type": "address"
        }
      ],
      "name": "deleteVoteCounter",
      "outputs": [],
      "stateMutability": "nonpayable",
      "type": "function"
    }
  ],
  "bytecode": "0x60806040526001600060146101000a81548160ff021916908315150217905550600067ffffffffffffffff8111156200003d576200003c62000287565b5b6040519080825280602002602001820160405280156200006c5781602001602082028036833780820191505090505b506001908051906020019062000084929190620001d9565b503480156200009257600080fd5b50336000806101000a81548173ffffffffffffffffffffffffffffffffffffffff021916908373ffffffffffffffffffffffffffffffffffffffff160217905550604051806040016040528060011515815260200160001515815250600560003373ffffffffffffffffffffffffffffffffffffffff1673ffffffffffffffffffffffffffffffffffffffff16815260200190815260200160002060008201518160000160006101000a81548160ff02191690831515021790555060208201518160000160016101000a81548160ff0219169083151502179055509050506001339080600181540180825580915050600190039060005260206000200160009091909190916101000a81548173ffffffffffffffffffffffffffffffffffffffff021916908373ffffffffffffffffffffffffffffffffffffffff160217905550620002b6565b82805482825590600052602060002090810192821562000255579160200282015b82811115620002545782518260006101000a81548173ffffffffffffffffffffffffffffffffffffffff021916908373ffffffffffffffffffffffffffffffffffffffff16021790555091602001919060010190620001fa565b5b50905062000264919062000268565b5090565b5b808211156200028357600081600090555060010162000269565b5090565b7f4e487b7100000000000000000000000000000000000000000000000000000000600052604160045260246000fd5b61392680620002c66000396000f3fe6080604052600436106101a05760003560e01c806395386ae2116100ec578063c58ad5301161008a578063d4f50f9811610064578063d4f50f98146105cc578063d8c2705d14610609578063de683bb214610646578063fe50b7a01461066f576101a7565b8063c58ad5301461054f578063c8820a7014610578578063cd905dff146105a1576101a7565b8063ad0a4f32116100c6578063ad0a4f3214610481578063b255380b146104be578063b4ca82b8146104e7578063c23bcf0914610524576101a7565b806395386ae2146103de5780639de5f95714610407578063a90d0dcc14610444576101a7565b8063351ba61b116101595780636e861c0e116101335780636e861c0e1461035457806372bcd8411461037d5780637715aa73146103a65780638c9f1afe146103c2576101a7565b8063351ba61b146102b15780633cc0be9c146102ee5780634c7ebd3714610317576101a7565b806306910747146101b2578063110466ed146101db5780631eeb88581461020457806323024408146102415780632c388d5d1461025d578063340288dc14610286576101a7565b366101a757005b6101b0336106ac565b005b3480156101be57600080fd5b506101d960048036038101906101d49190612fe9565b6107cf565b005b3480156101e757600080fd5b5061020260048036038101906101fd91906130a4565b61092c565b005b34801561021057600080fd5b5061022b600480360381019061022691906130d1565b6109d7565b604051610238919061310d565b60405180910390f35b61025b600480360381019061025691906130d1565b6106ac565b005b34801561026957600080fd5b50610284600480360381019061027f91906130d1565b610b00565b005b34801561029257600080fd5b5061029b610c0d565b6040516102a891906131e6565b60405180910390f35b3480156102bd57600080fd5b506102d860048036038101906102d39190613208565b610d6c565b6040516102e59190613286565b60405180910390f35b3480156102fa57600080fd5b5061031560048036038101906103109190613208565b610ecf565b005b34801561032357600080fd5b5061033e600480360381019061033991906130d1565b611157565b60405161034b9190613286565b60405180910390f35b34801561036057600080fd5b5061037b600480360381019061037691906130d1565b611270565b005b34801561038957600080fd5b506103a4600480360381019061039f9190612fe9565b61137b565b005b6103c060048036038101906103bb91906132a1565b6114d8565b005b6103dc60048036038101906103d791906132e1565b611689565b005b3480156103ea57600080fd5b5061040560048036038101906104009190613378565b6119b7565b005b34801561041357600080fd5b5061042e60048036038101906104299190613208565b611aba565b60405161043b919061310d565b60405180910390f35b34801561045057600080fd5b5061046b600480360381019061046691906130d1565b611c2a565b6040516104789190613286565b60405180910390f35b34801561048d57600080fd5b506104a860048036038101906104a391906130d1565b611d49565b6040516104b59190613286565b60405180910390f35b3480156104ca57600080fd5b506104e560048036038101906104e091906133b8565b611de6565b005b3480156104f357600080fd5b5061050e600480360381019061050991906130d1565b611ff6565b60405161051b919061310d565b60405180910390f35b34801561053057600080fd5b5061053961211f565b6040516105469190613286565b60405180910390f35b34801561055b57600080fd5b50610576600480360381019061057191906132a1565b6121fc565b005b34801561058457600080fd5b5061059f600480360381019061059a9190613208565b612366565b005b3480156105ad57600080fd5b506105b66127b2565b6040516105c3919061310d565b60405180910390f35b3480156105d857600080fd5b506105f360048036038101906105ee91906130d1565b6127c8565b60405161060091906131e6565b60405180910390f35b34801561061557600080fd5b50610630600480360381019061062b91906130d1565b612969565b60405161063d9190613286565b60405180910390f35b34801561065257600080fd5b5061066d600480360381019061066891906130d1565b612a82565b005b34801561067b57600080fd5b5061069660048036038101906106919190613208565b612b99565b6040516106a39190613286565b60405180910390f35b600060149054906101000a900460ff166106fb576040517f08c379a00000000000000000000000000000000000000000000000000000000081526004016106f29061348e565b60405180910390fd5b6001600260003373ffffffffffffffffffffffffffffffffffffffff1673ffffffffffffffffffffffffffffffffffffffff168152602001908152602001600020541461077d576040517f08c379a0000000000000000000000000000000000000000000000000000000008152600401610774906134fa565b60405180910390fd5b34600660008373ffffffffffffffffffffffffffffffffffffffff1673ffffffffffffffffffffffffffffffffffffffff168152602001908152602001600020819055506107cc816001612cf6565b50565b600060149054906101000a900460ff1661081e576040517f08c379a00000000000000000000000000000000000000000000000000000000081526004016108159061348e565b60405180910390fd5b6001600260003373ffffffffffffffffffffffffffffffffffffffff1673ffffffffffffffffffffffffffffffffffffffff16815260200190815260200160002054146108a0576040517f08c379a0000000000000000000000000000000000000000000000000000000008152600401610897906134fa565b60405180910390fd5b600083836040516020016108b59291906135b5565b60405160208183030381529060405280519060200120905081600460008773ffffffffffffffffffffffffffffffffffffffff1673ffffffffffffffffffffffffffffffffffffffff1681526020019081526020016000206000838152602001908152602001600020600201819055505050505050565b60008054906101000a900473ffffffffffffffffffffffffffffffffffffffff1673ffffffffffffffffffffffffffffffffffffffff163373ffffffffffffffffffffffffffffffffffffffff16146109ba576040517f08c379a00000000000000000000000000000000000000000000000000000000081526004016109b190613629565b60405180910390fd5b80600060146101000a81548160ff02191690831515021790555050565b60008060149054906101000a900460ff16610a27576040517f08c379a0000000000000000000000000000000000000000000000000000000008152600401610a1e9061348e565b60405180910390fd5b6001600260003373ffffffffffffffffffffffffffffffffffffffff1673ffffffffffffffffffffffffffffffffffffffff1681526020019081526020016000205414610aa9576040517f08c379a0000000000000000000000000000000000000000000000000000000008152600401610aa0906134fa565b60405180910390fd5b600560008373ffffffffffffffffffffffffffffffffffffffff1673ffffffffffffffffffffffffffffffffffffffff16815260200190815260200160002060000160009054906101000a900460ff169050919050565b60008054906101000a900473ffffffffffffffffffffffffffffffffffffffff1673ffffffffffffffffffffffffffffffffffffffff163373ffffffffffffffffffffffffffffffffffffffff1614610b8e576040517f08c379a0000000000000000000000000000000000000000000000000000000008152600401610b8590613629565b60405180910390fd5b6001600260008373ffffffffffffffffffffffffffffffffffffffff1673ffffffffffffffffffffffffffffffffffffffff168152602001908152602001600020819055507f2c74592fddad593c2c4403101ce9b30930711ab87571268ddd1e1989ee1d791781604051610c029190613658565b60405180910390a150565b6060600060149054906101000a900460ff16610c5e576040517f08c379a0000000000000000000000000000000000000000000000000000000008152600401610c559061348e565b60405180910390fd5b6001600260003373ffffffffffffffffffffffffffffffffffffffff1673ffffffffffffffffffffffffffffffffffffffff1681526020019081526020016000205414610ce0576040517f08c379a0000000000000000000000000000000000000000000000000000000008152600401610cd7906134fa565b60405180910390fd5b6001805480602002602001604051908101604052809291908181526020018280548015610d6257602002820191906000526020600020905b8160009054906101000a900473ffffffffffffffffffffffffffffffffffffffff1673ffffffffffffffffffffffffffffffffffffffff1681526020019060010190808311610d18575b5050505050905090565b60008060149054906101000a900460ff16610dbc576040517f08c379a0000000000000000000000000000000000000000000000000000000008152600401610db39061348e565b60405180910390fd5b6001600260003373ffffffffffffffffffffffffffffffffffffffff1673ffffffffffffffffffffffffffffffffffffffff1681526020019081526020016000205414610e3e576040517f08c379a0000000000000000000000000000000000000000000000000000000008152600401610e35906134fa565b60405180910390fd5b60008383604051602001610e539291906135b5565b6040516020818303038152906040528051906020012090506000600460008773ffffffffffffffffffffffffffffffffffffffff1673ffffffffffffffffffffffffffffffffffffffff168152602001908152602001600020600083815260200190815260200160002060020154905080925050509392505050565b600060149054906101000a900460ff16610f1e576040517f08c379a0000000000000000000000000000000000000000000000000000000008152600401610f159061348e565b60405180910390fd5b6001600260003373ffffffffffffffffffffffffffffffffffffffff1673ffffffffffffffffffffffffffffffffffffffff1681526020019081526020016000205414610fa0576040517f08c379a0000000000000000000000000000000000000000000000000000000008152600401610f97906134fa565b60405180910390fd5b60008282604051602001610fb59291906135b5565b604051602081830303815290604052805190602001209050600360008573ffffffffffffffffffffffffffffffffffffffff1673ffffffffffffffffffffffffffffffffffffffff1681526020019081526020016000208190806001815401808255809150506001900390600052602060002001600090919091909150556001600460008673ffffffffffffffffffffffffffffffffffffffff1673ffffffffffffffffffffffffffffffffffffffff168152602001908152602001600020600083815260200190815260200160002060000160006101000a81548160ff0219169083151502179055506000600460008673ffffffffffffffffffffffffffffffffffffffff1673ffffffffffffffffffffffffffffffffffffffff1681526020019081526020016000206000838152602001908152602001600020600101819055506014600460008673ffffffffffffffffffffffffffffffffffffffff1673ffffffffffffffffffffffffffffffffffffffff16815260200190815260200160002060008381526020019081526020016000206002018190555050505050565b60008060149054906101000a900460ff166111a7576040517f08c379a000000000000000000000000000000000000000000000000000000000815260040161119e9061348e565b60405180910390fd5b6001600260003373ffffffffffffffffffffffffffffffffffffffff1673ffffffffffffffffffffffffffffffffffffffff1681526020019081526020016000205414611229576040517f08c379a0000000000000000000000000000000000000000000000000000000008152600401611220906134fa565b60405180910390fd5b600b60008373ffffffffffffffffffffffffffffffffffffffff1673ffffffffffffffffffffffffffffffffffffffff168152602001908152602001600020549050919050565b60008054906101000a900473ffffffffffffffffffffffffffffffffffffffff1673ffffffffffffffffffffffffffffffffffffffff163373ffffffffffffffffffffffffffffffffffffffff16146112fe576040517f08c379a00000000000000000000000000000000000000000000000000000000081526004016112f590613629565b60405180910390fd5b600260008273ffffffffffffffffffffffffffffffffffffffff1673ffffffffffffffffffffffffffffffffffffffff168152602001908152602001600020600090557fd5cf915bcf19ee4a2edf05f0add6e4520e02eda58f4b4a99387be2a7ae79cefb816040516113709190613658565b60405180910390a150565b600060149054906101000a900460ff166113ca576040517f08c379a00000000000000000000000000000000000000000000000000000000081526004016113c19061348e565b60405180910390fd5b6001600260003373ffffffffffffffffffffffffffffffffffffffff1673ffffffffffffffffffffffffffffffffffffffff168152602001908152602001600020541461144c576040517f08c379a0000000000000000000000000000000000000000000000000000000008152600401611443906134fa565b60405180910390fd5b600083836040516020016114619291906135b5565b60405160208183030381529060405280519060200120905081600460008773ffffffffffffffffffffffffffffffffffffffff1673ffffffffffffffffffffffffffffffffffffffff1681526020019081526020016000206000838152602001908152602001600020600201819055505050505050565b600060149054906101000a900460ff16611527576040517f08c379a000000000000000000000000000000000000000000000000000000000815260040161151e9061348e565b60405180910390fd5b6001600260003373ffffffffffffffffffffffffffffffffffffffff1673ffffffffffffffffffffffffffffffffffffffff16815260200190815260200160002054146115a9576040517f08c379a00000000000000000000000000000000000000000000000000000000081526004016115a0906134fa565b60405180910390fd5b6115fb81600b60008573ffffffffffffffffffffffffffffffffffffffff1673ffffffffffffffffffffffffffffffffffffffff16815260200190815260200160002054612da390919063ffffffff16565b600b60008473ffffffffffffffffffffffffffffffffffffffff1673ffffffffffffffffffffffffffffffffffffffff168152602001908152602001600020819055508173ffffffffffffffffffffffffffffffffffffffff166108fc829081150290604051600060405180830381858888f19350505050158015611684573d6000803e3d6000fd5b505050565b600060149054906101000a900460ff166116d8576040517f08c379a00000000000000000000000000000000000000000000000000000000081526004016116cf9061348e565b60405180910390fd5b6001600260003373ffffffffffffffffffffffffffffffffffffffff1673ffffffffffffffffffffffffffffffffffffffff168152602001908152602001600020541461175a576040517f08c379a0000000000000000000000000000000000000000000000000000000008152600401611751906134fa565b60405180910390fd5b6000848260405160200161176f9291906135b5565b6040516020818303038152906040528051906020012090506117ed83600460008973ffffffffffffffffffffffffffffffffffffffff1673ffffffffffffffffffffffffffffffffffffffff168152602001908152602001600020600084815260200190815260200160002060010154612db990919063ffffffff16565b600460008873ffffffffffffffffffffffffffffffffffffffff1673ffffffffffffffffffffffffffffffffffffffff168152602001908152602001600020600083815260200190815260200160002060010181905550600860008773ffffffffffffffffffffffffffffffffffffffff1673ffffffffffffffffffffffffffffffffffffffff1681526020019081526020016000206000828152602001908152602001600020849080600181540180825580915050600190039060005260206000200160009091909190916101000a81548173ffffffffffffffffffffffffffffffffffffffff021916908373ffffffffffffffffffffffffffffffffffffffff16021790555060405180604001604052808481526020016000815250600960008873ffffffffffffffffffffffffffffffffffffffff1673ffffffffffffffffffffffffffffffffffffffff168152602001908152602001600020600083815260200190815260200160002060008673ffffffffffffffffffffffffffffffffffffffff1673ffffffffffffffffffffffffffffffffffffffff1681526020019081526020016000206000820151816000015560208201518160010155905050505050505050565b6040518060400160405280600115158152602001821515815250600560008473ffffffffffffffffffffffffffffffffffffffff1673ffffffffffffffffffffffffffffffffffffffff16815260200190815260200160002060008201518160000160006101000a81548160ff02191690831515021790555060208201518160000160016101000a81548160ff0219169083151502179055509050506001829080600181540180825580915050600190039060005260206000200160009091909190916101000a81548173ffffffffffffffffffffffffffffffffffffffff021916908373ffffffffffffffffffffffffffffffffffffffff1602179055505050565b60008060149054906101000a900460ff16611b0a576040517f08c379a0000000000000000000000000000000000000000000000000000000008152600401611b019061348e565b60405180910390fd5b6001600260003373ffffffffffffffffffffffffffffffffffffffff1673ffffffffffffffffffffffffffffffffffffffff1681526020019081526020016000205414611b8c576040517f08c379a0000000000000000000000000000000000000000000000000000000008152600401611b83906134fa565b60405180910390fd5b60008383604051602001611ba19291906135b5565b6040516020818303038152906040528051906020012090506000600460008773ffffffffffffffffffffffffffffffffffffffff1673ffffffffffffffffffffffffffffffffffffffff168152602001908152602001600020600083815260200190815260200160002060000160009054906101000a900460ff16905080925050509392505050565b60008060149054906101000a900460ff16611c7a576040517f08c379a0000000000000000000000000000000000000000000000000000000008152600401611c719061348e565b60405180910390fd5b6001600260003373ffffffffffffffffffffffffffffffffffffffff1673ffffffffffffffffffffffffffffffffffffffff1681526020019081526020016000205414611cfc576040517f08c379a0000000000000000000000000000000000000000000000000000000008152600401611cf3906134fa565b60405180910390fd5b600760008373ffffffffffffffffffffffffffffffffffffffff1673ffffffffffffffffffffffffffffffffffffffff168152602001908152602001600020600001805490509050919050565b60008060149054906101000a900460ff16611d99576040517f08c379a0000000000000000000000000000000000000000000000000000000008152600401611d909061348e565b60405180910390fd5b6000600660008473ffffffffffffffffffffffffffffffffffffffff1673ffffffffffffffffffffffffffffffffffffffff16815260200190815260200160002054905080915050919050565b600060149054906101000a900460ff16611e35576040517f08c379a0000000000000000000000000000000000000000000000000000000008152600401611e2c9061348e565b60405180910390fd5b6001600260003373ffffffffffffffffffffffffffffffffffffffff1673ffffffffffffffffffffffffffffffffffffffff1681526020019081526020016000205414611eb7576040517f08c379a0000000000000000000000000000000000000000000000000000000008152600401611eae906134fa565b60405180910390fd5b600760008473ffffffffffffffffffffffffffffffffffffffff1673ffffffffffffffffffffffffffffffffffffffff168152602001908152602001600020600001829080600181540180825580915050600190039060005260206000200160009091909190916101000a81548173ffffffffffffffffffffffffffffffffffffffff021916908373ffffffffffffffffffffffffffffffffffffffff16021790555080600760008573ffffffffffffffffffffffffffffffffffffffff1673ffffffffffffffffffffffffffffffffffffffff16815260200190815260200160002060010160008473ffffffffffffffffffffffffffffffffffffffff1673ffffffffffffffffffffffffffffffffffffffff16815260200190815260200160002060006101000a81548160ff021916908315150217905550505050565b60008060149054906101000a900460ff16612046576040517f08c379a000000000000000000000000000000000000000000000000000000000815260040161203d9061348e565b60405180910390fd5b6001600260003373ffffffffffffffffffffffffffffffffffffffff1673ffffffffffffffffffffffffffffffffffffffff16815260200190815260200160002054146120c8576040517f08c379a00000000000000000000000000000000000000000000000000000000081526004016120bf906134fa565b60405180910390fd5b600560008373ffffffffffffffffffffffffffffffffffffffff1673ffffffffffffffffffffffffffffffffffffffff16815260200190815260200160002060000160019054906101000a900460ff169050919050565b60008060149054906101000a900460ff1661216f576040517f08c379a00000000000000000000000000000000000000000000000000000000081526004016121669061348e565b60405180910390fd5b6001600260003373ffffffffffffffffffffffffffffffffffffffff1673ffffffffffffffffffffffffffffffffffffffff16815260200190815260200160002054146121f1576040517f08c379a00000000000000000000000000000000000000000000000000000000081526004016121e8906134fa565b60405180910390fd5b600180549050905090565b600060149054906101000a900460ff1661224b576040517f08c379a00000000000000000000000000000000000000000000000000000000081526004016122429061348e565b60405180910390fd5b6001600260003373ffffffffffffffffffffffffffffffffffffffff1673ffffffffffffffffffffffffffffffffffffffff16815260200190815260200160002054146122cd576040517f08c379a00000000000000000000000000000000000000000000000000000000081526004016122c4906134fa565b60405180910390fd5b61231f81600a60008573ffffffffffffffffffffffffffffffffffffffff1673ffffffffffffffffffffffffffffffffffffffff16815260200190815260200160002054612db990919063ffffffff16565b600a60008473ffffffffffffffffffffffffffffffffffffffff1673ffffffffffffffffffffffffffffffffffffffff168152602001908152602001600020819055505050565b600060149054906101000a900460ff166123b5576040517f08c379a00000000000000000000000000000000000000000000000000000000081526004016123ac9061348e565b60405180910390fd5b6001600260003373ffffffffffffffffffffffffffffffffffffffff1673ffffffffffffffffffffffffffffffffffffffff1681526020019081526020016000205414612437576040517f08c379a000000000000000000000000000000000000000000000000000000000815260040161242e906134fa565b60405180910390fd5b6000828260405160200161244c9291906135b5565b6040516020818303038152906040528051906020012090506000600860008673ffffffffffffffffffffffffffffffffffffffff1673ffffffffffffffffffffffffffffffffffffffff168152602001908152602001600020600083815260200190815260200160002080548060200260200160405190810160405280929190818152602001828054801561253657602002820191906000526020600020905b8160009054906101000a900473ffffffffffffffffffffffffffffffffffffffff1673ffffffffffffffffffffffffffffffffffffffff16815260200190600101908083116124ec575b5050505050905060008151905060008111612586576040517f08c379a000000000000000000000000000000000000000000000000000000000815260040161257d906136e5565b60405180910390fd5b60005b818110156127a9576000808483815181106125a7576125a6613705565b5b60200260200101519050612668600261265a6003600960008e73ffffffffffffffffffffffffffffffffffffffff1673ffffffffffffffffffffffffffffffffffffffff16815260200190815260200160002060008b815260200190815260200160002060008673ffffffffffffffffffffffffffffffffffffffff1673ffffffffffffffffffffffffffffffffffffffff16815260200190815260200160002060000154612dcf90919063ffffffff16565b612de590919063ffffffff16565b915081600960008b73ffffffffffffffffffffffffffffffffffffffff1673ffffffffffffffffffffffffffffffffffffffff168152602001908152602001600020600088815260200190815260200160002060008373ffffffffffffffffffffffffffffffffffffffff1673ffffffffffffffffffffffffffffffffffffffff1681526020019081526020016000206001018190555061275182600b60008473ffffffffffffffffffffffffffffffffffffffff1673ffffffffffffffffffffffffffffffffffffffff16815260200190815260200160002054612db990919063ffffffff16565b600b60008373ffffffffffffffffffffffffffffffffffffffff1673ffffffffffffffffffffffffffffffffffffffff16815260200190815260200160002081905550505080806127a190613763565b915050612589565b50505050505050565b60008060149054906101000a900460ff16905090565b6060600060149054906101000a900460ff16612819576040517f08c379a00000000000000000000000000000000000000000000000000000000081526004016128109061348e565b60405180910390fd5b6001600260003373ffffffffffffffffffffffffffffffffffffffff1673ffffffffffffffffffffffffffffffffffffffff168152602001908152602001600020541461289b576040517f08c379a0000000000000000000000000000000000000000000000000000000008152600401612892906134fa565b60405180910390fd5b600760008373ffffffffffffffffffffffffffffffffffffffff1673ffffffffffffffffffffffffffffffffffffffff16815260200190815260200160002060000180548060200260200160405190810160405280929190818152602001828054801561295d57602002820191906000526020600020905b8160009054906101000a900473ffffffffffffffffffffffffffffffffffffffff1673ffffffffffffffffffffffffffffffffffffffff1681526020019060010190808311612913575b50505050509050919050565b60008060149054906101000a900460ff166129b9576040517f08c379a00000000000000000000000000000000000000000000000000000000081526004016129b09061348e565b60405180910390fd5b6001600260003373ffffffffffffffffffffffffffffffffffffffff1673ffffffffffffffffffffffffffffffffffffffff1681526020019081526020016000205414612a3b576040517f08c379a0000000000000000000000000000000000000000000000000000000008152600401612a32906134fa565b60405180910390fd5b600a60008373ffffffffffffffffffffffffffffffffffffffff1673ffffffffffffffffffffffffffffffffffffffff168152602001908152602001600020549050919050565b600060149054906101000a900460ff16612ad1576040517f08c379a0000000000000000000000000000000000000000000000000000000008152600401612ac89061348e565b60405180910390fd5b6001600260003373ffffffffffffffffffffffffffffffffffffffff1673ffffffffffffffffffffffffffffffffffffffff1681526020019081526020016000205414612b53576040517f08c379a0000000000000000000000000000000000000000000000000000000008152600401612b4a906134fa565b60405180910390fd5b600a60008273ffffffffffffffffffffffffffffffffffffffff1673ffffffffffffffffffffffffffffffffffffffff1681526020019081526020016000206000905550565b60008060149054906101000a900460ff16612be9576040517f08c379a0000000000000000000000000000000000000000000000000000000008152600401612be09061348e565b60405180910390fd5b6001600260003373ffffffffffffffffffffffffffffffffffffffff1673ffffffffffffffffffffffffffffffffffffffff1681526020019081526020016000205414612c6b576040517f08c379a0000000000000000000000000000000000000000000000000000000008152600401612c62906134fa565b60405180910390fd5b60008383604051602001612c809291906135b5565b604051602081830303815290604052805190602001209050600460008673ffffffffffffffffffffffffffffffffffffffff1673ffffffffffffffffffffffffffffffffffffffff1681526020019081526020016000206000828152602001908152602001600020600101549150509392505050565b600060149054906101000a900460ff16612d45576040517f08c379a0000000000000000000000000000000000000000000000000000000008152600401612d3c9061348e565b60405180910390fd5b80600560008473ffffffffffffffffffffffffffffffffffffffff1673ffffffffffffffffffffffffffffffffffffffff16815260200190815260200160002060000160016101000a81548160ff0219169083151502179055505050565b60008183612db191906137ac565b905092915050565b60008183612dc791906137e0565b905092915050565b60008183612ddd9190613836565b905092915050565b60008183612df391906138bf565b905092915050565b6000604051905090565b600080fd5b600080fd5b600073ffffffffffffffffffffffffffffffffffffffff82169050919050565b6000612e3a82612e0f565b9050919050565b612e4a81612e2f565b8114612e5557600080fd5b50565b600081359050612e6781612e41565b92915050565b600080fd5b600080fd5b6000601f19601f8301169050919050565b7f4e487b7100000000000000000000000000000000000000000000000000000000600052604160045260246000fd5b612ec082612e77565b810181811067ffffffffffffffff82111715612edf57612ede612e88565b5b80604052505050565b6000612ef2612dfb565b9050612efe8282612eb7565b919050565b600067ffffffffffffffff821115612f1e57612f1d612e88565b5b612f2782612e77565b9050602081019050919050565b82818337600083830152505050565b6000612f56612f5184612f03565b612ee8565b905082815260208101848484011115612f7257612f71612e72565b5b612f7d848285612f34565b509392505050565b600082601f830112612f9a57612f99612e6d565b5b8135612faa848260208601612f43565b91505092915050565b6000819050919050565b612fc681612fb3565b8114612fd157600080fd5b50565b600081359050612fe381612fbd565b92915050565b6000806000806080858703121561300357613002612e05565b5b600061301187828801612e58565b945050602085013567ffffffffffffffff81111561303257613031612e0a565b5b61303e87828801612f85565b935050604061304f87828801612fd4565b925050606061306087828801612fd4565b91505092959194509250565b60008115159050919050565b6130818161306c565b811461308c57600080fd5b50565b60008135905061309e81613078565b92915050565b6000602082840312156130ba576130b9612e05565b5b60006130c88482850161308f565b91505092915050565b6000602082840312156130e7576130e6612e05565b5b60006130f584828501612e58565b91505092915050565b6131078161306c565b82525050565b600060208201905061312260008301846130fe565b92915050565b600081519050919050565b600082825260208201905092915050565b6000819050602082019050919050565b61315d81612e2f565b82525050565b600061316f8383613154565b60208301905092915050565b6000602082019050919050565b600061319382613128565b61319d8185613133565b93506131a883613144565b8060005b838110156131d95781516131c08882613163565b97506131cb8361317b565b9250506001810190506131ac565b5085935050505092915050565b600060208201905081810360008301526132008184613188565b905092915050565b60008060006060848603121561322157613220612e05565b5b600061322f86828701612e58565b935050602084013567ffffffffffffffff8111156132505761324f612e0a565b5b61325c86828701612f85565b925050604061326d86828701612fd4565b9150509250925092565b61328081612fb3565b82525050565b600060208201905061329b6000830184613277565b92915050565b600080604083850312156132b8576132b7612e05565b5b60006132c685828601612e58565b92505060206132d785828601612fd4565b9150509250929050565b600080600080600060a086880312156132fd576132fc612e05565b5b600061330b88828901612e58565b955050602086013567ffffffffffffffff81111561332c5761332b612e0a565b5b61333888828901612f85565b945050604061334988828901612e58565b935050606061335a88828901612fd4565b925050608061336b88828901612fd4565b9150509295509295909350565b6000806040838503121561338f5761338e612e05565b5b600061339d85828601612e58565b92505060206133ae8582860161308f565b9150509250929050565b6000806000606084860312156133d1576133d0612e05565b5b60006133df86828701612e58565b93505060206133f086828701612e58565b92505060406134018682870161308f565b9150509250925092565b600082825260208201905092915050565b7f436f6e74726163742069732063757272656e746c79206e6f74206f706572617460008201527f696f6e616c000000000000000000000000000000000000000000000000000000602082015250565b600061347860258361340b565b91506134838261341c565b604082019050919050565b600060208201905081810360008301526134a78161346b565b9050919050565b7f43616c6c6572206973206e6f7420617574686f72697a65640000000000000000600082015250565b60006134e460188361340b565b91506134ef826134ae565b602082019050919050565b60006020820190508181036000830152613513816134d7565b9050919050565b600081519050919050565b600081905092915050565b60005b8381101561354e578082015181840152602081019050613533565b8381111561355d576000848401525b50505050565b600061356e8261351a565b6135788185613525565b9350613588818560208601613530565b80840191505092915050565b6000819050919050565b6135af6135aa82612fb3565b613594565b82525050565b60006135c18285613563565b91506135cd828461359e565b6020820191508190509392505050565b7f43616c6c6572206973206e6f7420636f6e7472616374206f776e657200000000600082015250565b6000613613601c8361340b565b915061361e826135dd565b602082019050919050565b6000602082019050818103600083015261364281613606565b9050919050565b61365281612e2f565b82525050565b600060208201905061366d6000830184613649565b92915050565b7f4e6f20696e73757265657320666f72207468652064656c6179656420666c696760008201527f6874000000000000000000000000000000000000000000000000000000000000602082015250565b60006136cf60228361340b565b91506136da82613673565b604082019050919050565b600060208201905081810360008301526136fe816136c2565b9050919050565b7f4e487b7100000000000000000000000000000000000000000000000000000000600052603260045260246000fd5b7f4e487b7100000000000000000000000000000000000000000000000000000000600052601160045260246000fd5b600061376e82612fb3565b91507fffffffffffffffffffffffffffffffffffffffffffffffffffffffffffffffff8214156137a1576137a0613734565b5b600182019050919050565b60006137b782612fb3565b91506137c283612fb3565b9250828210156137d5576137d4613734565b5b828203905092915050565b60006137eb82612fb3565b91506137f683612fb3565b9250827fffffffffffffffffffffffffffffffffffffffffffffffffffffffffffffffff0382111561382b5761382a613734565b5b828201905092915050565b600061384182612fb3565b915061384c83612fb3565b9250817fffffffffffffffffffffffffffffffffffffffffffffffffffffffffffffffff048311821515161561388557613884613734565b5b828202905092915050565b7f4e487b7100000000000000000000000000000000000000000000000000000000600052601260045260246000fd5b60006138ca82612fb3565b91506138d583612fb3565b9250826138e5576138e4613890565b5b82820490509291505056fea2646970667358221220ee30eb5d455d439bafc79ba0c1210772cfe91b8f743495df17fd4b6972bc4c4564736f6c634300080a0033",
  "immutableReferences": {},
  "source": "// SPDX-License-Identifier: MIT\npragma solidity >=0.4.22 <0.9.0;\n\nimport \"@openzeppelin/contracts/utils/math/SafeMath.sol\";\n\ncontract FlightSuretyData {\n    using SafeMath for uint256;\n\n    /********************************************************************************************/\n    /*                                       DATA VARIABLES                                     */\n    /********************************************************************************************/\n\n    address private contractOwner;                                      // Account used to deploy contract\n    bool private operational = true;                                    // Blocks all state changes throughout the contract if false\n\n    address[] multiCalls = new address[](0);\n\n    struct Airline {\n        bool registered;\n        bool operational;\n    }\n\n    struct AirlineRegistrationRequest {\n        string name;\n        address airlineAddress;\n    }\n\n    struct flightInfo{\n        bool isRegistered; \n        uint256 totalPremium;\n        uint256 statusCode;\n    }\n\n    struct InsureeInfo{\n        uint256 insuranceAmount;\n        uint256 payout;\n    }\n\n    struct Voter {\n        address[] airlineVoters;\n        mapping(address => bool) voteResults;\n    }\n\n    mapping(address => uint256) private authorizedCaller;\n    \n    mapping(address => bytes32 []) flightList; \n    mapping(address => mapping(bytes32 => flightInfo)) flights;\n    mapping(address => Airline) airlines;\n    mapping(address => uint256) funding;\n    mapping(address => Voter) voters;\n    mapping(address => mapping(bytes32 => address [])) insureeList;   //store the passenger addresses for each flight\n    mapping(address => mapping(bytes32 => mapping(address => InsureeInfo))) insurees;    //For each flight, it keeps track of premium and payout for each insuree\n    mapping(address => uint) voteCount;\n    mapping(address => uint256) accountCredit;   //keep track of each passenger's account balance\n    \n    /********************************************************************************************/\n    /*                                       EVENT DEFINITIONS                                  */\n    /********************************************************************************************/\n\n    event AuthorizedContract(address authContract);\n    event DeAuthorizedContract(address authContract);\n\n    /**\n    * @dev Constructor\n    *      The deploying account becomes contractOwner\n    */\n    constructor\n                                (                                    \n                                )  \n    {\n        contractOwner = msg.sender;\n        \n        airlines[msg.sender] = Airline({\n            registered: true,\n            operational: false\n        }); \n\n        multiCalls.push(msg.sender);\n    }\n\n    /********************************************************************************************/\n    /*                                       FUNCTION MODIFIERS                                 */\n    /********************************************************************************************/\n\n    // Modifiers help avoid duplication of code. They are typically used to validate something\n    // before a function is allowed to be executed.\n\n    /**\n    * @dev Modifier that requires the \"operational\" boolean variable to be \"true\"\n    *      This is used on all state changing functions to pause the contract in \n    *      the event there is an issue that needs to be fixed\n    */\n    modifier requireIsOperational() \n    {\n        require(operational, \"Contract is currently not operational\");\n        _;  // All modifiers require an \"_\" which indicates where the function body will be added\n    }\n\n    /**\n    * @dev Modifier that requires the \"ContractOwner\" account to be the function caller\n    */\n    modifier requireContractOwner()\n    {\n        require(msg.sender == contractOwner, \"Caller is not contract owner\");\n        _;\n    }\n\n    modifier isCallerAuthorized()\n    {\n        require(authorizedCaller[msg.sender] == 1, \"Caller is not authorized\");\n        _;\n    }\n\n    /********************************************************************************************/\n    /*                                       UTILITY FUNCTIONS                                  */\n    /********************************************************************************************/\n\n    /**\n    * @dev Get operating status of contract\n    *\n    * @return A bool that is the current operating status\n    */      \n    function isOperational() \n                            public \n                            view \n                            returns(bool) \n    {\n        return operational;\n    }\n\n    /**\n    * @dev Sets contract operations on/off\n    *\n    * When operational mode is disabled, all write transactions except for this one will fail\n    */    \n    function setOperatingStatus\n                            (\n                                bool mode\n                            ) \n                            external\n                            requireContractOwner \n    {\n        operational = mode;\n    }\n\n    function authorizeCaller(address contractAddress) external\n        requireContractOwner\n    {\n        authorizedCaller[contractAddress] = 1;\n        emit AuthorizedContract(contractAddress);\n    }\n\n\n    function deauthorizeContract(address contractAddress) external\n        requireContractOwner\n    {\n        delete authorizedCaller[contractAddress];\n        emit DeAuthorizedContract(contractAddress);\n    }\n\n    function getAccountCredit\n                                (\n                                    address account\n                                )\n                                external\n                                view\n                                requireIsOperational\n                                isCallerAuthorized\n                                returns(uint256)\n    {\n        return accountCredit[account];\n    }\n\n    /**\n    * @dev \n    */\n    function payToInsuree\n                            (\n                                address account,\n                                uint256 amount\n                            )\n                            external\n                            payable\n                            requireIsOperational\n                            isCallerAuthorized\n    {\n        // Before the payment, substract to the credit of the insuree\n        accountCredit[account] = accountCredit[account].sub(amount);\n\n        // Transfer the amount\n        payable(account).transfer(amount);\n    }\n\n    /**\n    * @dev\n    */\n    function addFlightStatusCode(address airline,string memory newFlight, uint256 timestamp, uint256 statusCode) external\n        requireIsOperational\n        isCallerAuthorized\n    {\n        bytes32 key = keccak256(abi.encodePacked(newFlight, timestamp));\n        flights[airline][key].statusCode = statusCode;\n    }\n\n    /**\n     *  @dev Credits payouts to insurees\n    */\n    function creditInsurees(address airline, string memory flightNumber, uint256 timestamp) external\n        requireIsOperational\n        isCallerAuthorized \n    {\n        bytes32 key = keccak256(abi.encodePacked(flightNumber, timestamp));\n        address [] memory creditAccounts = insureeList[airline][key];\n        uint256 accountsLength = creditAccounts.length;\n\n        require(accountsLength > 0, \"No insurees for the delayed flight\");\n\n        for(uint256 i =0; i < accountsLength; i++){\n            uint256 creditAmount = 0;\n            address account = creditAccounts[i];\n            creditAmount = insurees[airline][key][account].insuranceAmount.mul(3).div(2);\n            \n            // update insureeInfo of flight \n            insurees[airline][key][account].payout = creditAmount;\n\n            // update individal passenger account credit\n            accountCredit[account] = accountCredit[account].add(creditAmount);\n        }\n    }\n\n    /********************************************************************************************/\n    /*                                     SMART CONTRACT FUNCTIONS                             */\n    /********************************************************************************************/\n\n   /**\n    * @dev \n    */\n    function getRegisteredAirlines\n                                ()\n                                external\n                                view\n                                requireIsOperational\n                                isCallerAuthorized\n                                returns(uint256)\n    {\n        return multiCalls.length;\n    }\n\n    /**\n    * @dev \n    *      \n    *\n    */\n    function getRegisteredAirlinesAccounts\n                                        ()\n                                        external\n                                        view\n                                        requireIsOperational\n                                        isCallerAuthorized\n                                        returns(address[] memory)\n    {\n        return multiCalls;\n    }\n\n\n    /**\n     * @dev Returns if the airline is registered or not by the address\n     * @return bool \n     */\n    function getAirlineRegistrationStatus\n                                         (   \n                                            address airlineAddress\n                                         )\n                                         external\n                                         view\n                                         requireIsOperational\n                                         isCallerAuthorized\n                                         returns(bool)\n    {\n        return airlines[airlineAddress].registered;\n    }\n\n    /**\n     * @dev Returns if the airline is funded or not by the address\n     * @return bool \n     */\n     function getAirlineOperationalStatus\n                                        (\n                                            address airlineAddress\n                                        )\n                                        external\n                                        view\n                                        requireIsOperational\n                                        isCallerAuthorized\n                                        returns(bool)\n    {\n        return airlines[airlineAddress].operational;\n    }\n\n    /**\n     * @dev Sets the operational status to the airline, either to true or false\n     */\n     function setAirlineOperationalStatus\n                                        (\n                                            address airlineAddress,\n                                            bool status\n                                        )\n                                        private\n                                        requireIsOperational\n    {\n        airlines[airlineAddress].operational = status;\n    }\n\n   /**\n    * @dev Add an airline to the registration queue\n    *      Can only be called from FlightSuretyApp contract\n    *\n    */   \n    function registerAirline\n                            (\n                                address airlineAddress,\n                                bool fundComplete   \n                            )\n                            external\n    {\n        airlines[airlineAddress] = Airline({\n            registered: true,\n            operational: fundComplete\n        });\n\n        multiCalls.push(airlineAddress);\n    }\n\n   /**\n    * @dev Initial funding for the insurance. Unless there are too many delayed flights\n    *      resulting in insurance payouts, the contract should be self-sustaining\n    *\n    */  \n    function fund\n                (\n                    address account     \n                )\n                payable\n                public\n                requireIsOperational\n                isCallerAuthorized\n    {\n        funding[account] = msg.value;\n        setAirlineOperationalStatus(account, true);\n    }\n\n   /**\n    * @dev Initial funding for the insurance. Unless there are too many delayed flights\n    *      resulting in insurance payouts, the contract should be self-sustaining\n    */  \n    function getFunding\n                (\n                    address account     \n                )\n                public\n                view\n                requireIsOperational\n                returns(uint256)\n    {\n        uint256 funds = funding[account];\n        return funds;\n    }\n\n   /**\n    * @dev Add a flight to the airline\n    *      \n    *\n    */\n    function registerFlight\n                            (\n                                address airlineAddress,\n                                string memory flight,\n                                uint256 timestamp\n                            )\n                            requireIsOperational\n                            isCallerAuthorized\n                            external\n    {\n        bytes32 key = keccak256(abi.encodePacked(flight, timestamp));\n        flightList[airlineAddress].push(key);\n        flights[airlineAddress][key].isRegistered = true;\n        flights[airlineAddress][key].totalPremium = 0;\n        flights[airlineAddress][key].statusCode = 20;\n    }\n\n   /**\n    * @dev Gets the state of a filight, either if it is \n    *      registered or not.\n    *        \n    *    \n    */\n    function getFlightStatus\n                            (\n                                address airline,\n                                string memory flightNumber,\n                                uint256 timestamp\n                            )\n                            external\n                            view\n                            requireIsOperational\n                            isCallerAuthorized\n                            returns(bool)\n    {\n        bytes32 key = keccak256(abi.encodePacked(flightNumber, timestamp));\n        bool result = flights[airline][key].isRegistered;\n        return result;\n    }\n\n   /**\n    * @dev \n    *        \n    *    \n    */\n    function setFlightStatusCode\n                                (\n                                    address airline,\n                                    string memory flight,\n                                    uint256 timestamp,\n                                    uint256 code\n                                )\n                                external\n                                requireIsOperational\n                                isCallerAuthorized\n    {\n        bytes32 key = keccak256(abi.encodePacked(flight, timestamp));\n        flights[airline][key].statusCode = code;\n    }\n\n\n   /**\n    * @dev \n    *        \n    *    \n    */\n    function getFlightStatusCode\n                                (\n                                    address airline,\n                                    string memory flight,\n                                    uint256 timestamp\n                                )\n                                external\n                                view\n                                requireIsOperational\n                                isCallerAuthorized\n                                returns(uint256)\n    {\n        bytes32 key = keccak256(abi.encodePacked(flight, timestamp));\n        uint statusCode = flights[airline][key].statusCode;\n        return statusCode;\n    }\n\n                            \n\n\n   /**\n    * @dev Buy insurance for a flight\n    *      Increment premiums: Premiums are the amount you pay for your insurance every month\n    *\n    */   \n    function buy\n                            (\n                                address airline,\n                                string memory flight,\n                                address insuree,\n                                uint256 amount,\n                                uint256 timestamp                             \n                            )\n                            external\n                            payable\n                            requireIsOperational\n                            isCallerAuthorized\n    {\n        // Increment the total premium collected for a flight\n        bytes32 key = keccak256(abi.encodePacked(flight, timestamp));\n        flights[airline][key].totalPremium = flights[airline][key].totalPremium.add(amount);\n\n        // Add the new insuree to the insuree list \n        insureeList[airline][key].push(insuree);\n        \n        insurees[airline][key][insuree] = InsureeInfo({ insuranceAmount: amount, payout: 0 }); \n    }\n\n    \n\n   /**\n    * @dev \n    *      \n    *\n    */   \n    function getFlightPremium\n                            (\n                                address airline,\n                                string memory flight,\n                                uint256 timestamp\n                            )\n                            external\n                            view\n                            requireIsOperational\n                            isCallerAuthorized\n                            returns(uint256)\n    {\n        bytes32 key = keccak256(abi.encodePacked(flight, timestamp));\n        return flights[airline][key].totalPremium;\n    }\n\n    /**\n     *  @dev Amount of voters\n    */\n    function getVoter\n                    (\n                        address account\n                    )\n                    external\n                    view\n                    requireIsOperational\n                    isCallerAuthorized\n                    returns(address[] memory)\n    {\n        return voters[account].airlineVoters;\n    }\n\n//   struct Voter {\n//         address[] airlineVoters;\n//         mapping(address => bool) voteResults;\n//     }\n//     mapping(address => Voter) voters;\n\n    /**\n     *  @dev Amount of voters\n    */    \n    function getVotersLength\n                            (\n                                address account\n                            )\n                            external\n                            view\n                            requireIsOperational\n                            isCallerAuthorized\n                            returns(uint256)\n    {\n        return voters[account].airlineVoters.length;\n    }\n\n    /**\n     *  @dev Amount of votes that an airline has\n    */    \n    function getVotesQty\n                            (\n                                address account\n                            )\n                            external\n                            view\n                            requireIsOperational\n                            isCallerAuthorized\n                            returns(uint)\n    {\n        return voteCount[account];\n    }\n\n    /**\n    *  @dev Adds information of the vote, like the voter, \n    *       the result and the airline being voted \n    */\n    function addVoteInformation\n                                (\n                                    address enteringAirline,\n                                    address registeredAirline,\n                                    bool vote\n                                )\n                            external\n                            requireIsOperational\n                            isCallerAuthorized\n    {\n        voters[enteringAirline].airlineVoters.push(registeredAirline);\n        voters[enteringAirline].voteResults[registeredAirline] = vote;\n    }\n\n    /**\n     *  @dev Adds a new vote to the airline\n    */\n    function addVoteToAirline\n                            (\n                                address enteringAirline,\n                                uint newVote\n                            )\n                            external\n                            requireIsOperational\n                            isCallerAuthorized\n    {\n        voteCount[enteringAirline] = voteCount[enteringAirline].add(newVote);\n    }\n\n    /**\n     *  @dev Deletes the vote counter\n    */\n    function deleteVoteCounter\n                            (\n                                address airline\n                            )\n                            external\n                            requireIsOperational\n                            isCallerAuthorized\n    {\n        delete voteCount[airline];\n    }\n\n\n\n    /**\n    * @dev According to solidity version 0.6.0, we have a breaking change. The unnamed function commonly referred \n    *      to as fallback function was split up into a new fallback function that is defined using the fallback \n    *      keyword and a receive ether function defined using the receive keyword. If present, the receive ether \n    *      function is called whenever the call data is empty (whether or not ether is received). This function is \n    *      implicitly payable. The new fallback function is called when no other function matches (if the receive \n    *      ether function does not exist then this includes calls with empty call data). You can make this function \n    *      payable or not. If it is not payable then transactions not matching any other function which send value will revert. \n    *      You should only need to implement the new fallback function if you are following an upgrade or proxy pattern.\n    */\n    receive()\n                external\n                payable\n    {\n    }\n\n    /**\n    * @dev Fallback function for funding smart contract.\n    *\n    */\n    fallback() \n                            external \n                            payable \n    {\n        fund(msg.sender);\n    }\n}",
  "sourcePath": "/Users/juani/code/courses/udacity_blockchain_developer/flight-surety/contracts/FlightSuretyData.sol",
  "compiler": {
    "name": "solc",
    "version": "0.8.10+commit.fc410830.Emscripten.clang"
  },
  "schemaVersion": "3.4.11",
  "updatedAt": "2023-03-23T15:26:08.761Z",
  "networkType": "ethereum",
  "devdoc": {
    "kind": "dev",
    "methods": {
      "addVoteInformation(address,address,bool)": {
        "details": "Adds information of the vote, like the voter,        the result and the airline being voted "
      },
      "addVoteToAirline(address,uint256)": {
        "details": "Adds a new vote to the airline"
      },
      "buy(address,string,address,uint256,uint256)": {
        "details": "Buy insurance for a flight      Increment premiums: Premiums are the amount you pay for your insurance every month"
      },
      "constructor": {
        "details": "Constructor      The deploying account becomes contractOwner"
      },
      "creditInsurees(address,string,uint256)": {
        "details": "Credits payouts to insurees"
      },
      "deleteVoteCounter(address)": {
        "details": "Deletes the vote counter"
      },
      "fund(address)": {
        "details": "Initial funding for the insurance. Unless there are too many delayed flights      resulting in insurance payouts, the contract should be self-sustaining"
      },
      "getAirlineOperationalStatus(address)": {
        "details": "Returns if the airline is funded or not by the address",
        "returns": {
          "_0": "bool "
        }
      },
      "getAirlineRegistrationStatus(address)": {
        "details": "Returns if the airline is registered or not by the address",
        "returns": {
          "_0": "bool "
        }
      },
      "getFlightPremium(address,string,uint256)": {
        "details": "      "
      },
      "getFlightStatus(address,string,uint256)": {
        "details": "Gets the state of a filight, either if it is       registered or not.            "
      },
      "getFlightStatusCode(address,string,uint256)": {
        "details": "            "
      },
      "getFunding(address)": {
        "details": "Initial funding for the insurance. Unless there are too many delayed flights      resulting in insurance payouts, the contract should be self-sustaining"
      },
      "getRegisteredAirlinesAccounts()": {
        "details": "      "
      },
      "getVoter(address)": {
        "details": "Amount of voters"
      },
      "getVotersLength(address)": {
        "details": "Amount of voters"
      },
      "getVotesQty(address)": {
        "details": "Amount of votes that an airline has"
      },
      "isOperational()": {
        "details": "Get operating status of contract",
        "returns": {
          "_0": "A bool that is the current operating status"
        }
      },
      "registerAirline(address,bool)": {
        "details": "Add an airline to the registration queue      Can only be called from FlightSuretyApp contract"
      },
      "registerFlight(address,string,uint256)": {
        "details": "Add a flight to the airline      "
      },
      "setFlightStatusCode(address,string,uint256,uint256)": {
        "details": "            "
      },
      "setOperatingStatus(bool)": {
        "details": "Sets contract operations on/off When operational mode is disabled, all write transactions except for this one will fail"
      }
    },
    "version": 1
  },
  "userdoc": {
    "kind": "user",
    "methods": {},
    "version": 1
  }
}