{
  "contractName": "FlightSuretyData",
  "abi": [
    {
      "inputs": [],
      "stateMutability": "nonpayable",
      "type": "constructor"
    },
    {
      "inputs": [],
      "name": "registerAirline",
      "outputs": [
        {
          "internalType": "bool",
          "name": "success",
          "type": "bool"
        },
        {
          "internalType": "uint256",
          "name": "votes",
          "type": "uint256"
        }
      ],
      "stateMutability": "nonpayable",
      "type": "function"
    }
  ],
  "bytecode": "0x60806040526001600060146101000a81548160ff02191690831515021790555034801561002b57600080fd5b50336000806101000a81548173ffffffffffffffffffffffffffffffffffffffff021916908373ffffffffffffffffffffffffffffffffffffffff16021790555060d98061007a6000396000f3fe6080604052348015600f57600080fd5b506004361060285760003560e01c806363e29a3f14602d575b600080fd5b60336048565b604051603f929190607e565b60405180910390f35b60008091565b60008115159050919050565b606181604e565b82525050565b6000819050919050565b6078816067565b82525050565b600060408201905060916000830185605a565b609c60208301846071565b939250505056fea264697066735822122051f8ed0ca5c7697e4658f224193db690cc861f4b185b294aec1648f612ae1fc164736f6c634300080a0033",
  "immutableReferences": {},
  "source": "// SPDX-License-Identifier: MIT\npragma solidity >=0.4.22 <0.9.0;\n\nimport \"@openzeppelin/contracts/utils/math/SafeMath.sol\";\n\ncontract FlightSuretyData {\n    using SafeMath for uint256;\n\n    /********************************************************************************************/\n    /*                                       DATA VARIABLES                                     */\n    /********************************************************************************************/\n\n    address private contractOwner;                                      // Account used to deploy contract\n    bool private operational = true;                                    // Blocks all state changes throughout the contract if false\n\n    /********************************************************************************************/\n    /*                                       EVENT DEFINITIONS                                  */\n    /********************************************************************************************/\n\n\n    /**\n    * @dev Constructor\n    *      The deploying account becomes contractOwner\n    */\n    constructor\n                                (\n                                )  \n    {\n        contractOwner = msg.sender;\n    }\n\n    /********************************************************************************************/\n    /*                                       FUNCTION MODIFIERS                                 */\n    /********************************************************************************************/\n\n    // Modifiers help avoid duplication of code. They are typically used to validate something\n    // before a function is allowed to be executed.\n\n    /**\n    * @dev Modifier that requires the \"operational\" boolean variable to be \"true\"\n    *      This is used on all state changing functions to pause the contract in \n    *      the event there is an issue that needs to be fixed\n    */\n    modifier requireIsOperational() \n    {\n        require(operational, \"Contract is currently not operational\");\n        _;  // All modifiers require an \"_\" which indicates where the function body will be added\n    }\n\n    /**\n    * @dev Modifier that requires the \"ContractOwner\" account to be the function caller\n    */\n    modifier requireContractOwner()\n    {\n        require(msg.sender == contractOwner, \"Caller is not contract owner\");\n        _;\n    }\n\n    /********************************************************************************************/\n    /*                                       UTILITY FUNCTIONS                                  */\n    /********************************************************************************************/\n\n    /**\n    * @dev Get operating status of contract\n    *\n    * @return A bool that is the current operating status\n    */      \n    // function isOperational() \n    //                         public \n    //                         view \n    //                         returns(bool) \n    // {\n    //     return operational;\n    // }\n\n    /**\n    * @dev Sets contract operations on/off\n    *\n    * When operational mode is disabled, all write transactions except for this one will fail\n    */    \n    // function setOperatingStatus\n    //                         (\n    //                             bool mode\n    //                         ) \n    //                         external\n    //                         requireContractOwner \n    // {\n    //     operational = mode;\n    // }\n\n   /**\n    * @dev Add an airline to the registration queue\n    *      Can only be called from FlightSuretyApp contract\n    *\n    */   \n    function registerAirline\n                            (   \n                            )\n                            external\n                            returns(bool success, uint256 votes)\n    {\n    }\n\n   /**\n    * @dev Buy insurance for a flight\n    *\n    */   \n    // function buy\n    //                         (                             \n    //                         )\n    //                         external\n    //                         payable\n    // {\n\n    // }\n\n\n    /**\n     *  @dev Credits payouts to insurees\n    */\n    // function creditInsurees\n    //                             (\n    //                             )\n    //                             external\n    //                             pure\n    // {\n    // }\n\n    /**\n     *  @dev Transfers eligible payout funds to insuree\n     *\n    */\n    // function pay\n    //                         (\n    //                         )\n    //                         external\n    //                         pure\n    // {\n    // }\n\n   /**\n    * @dev Initial funding for the insurance. Unless there are too many delayed flights\n    *      resulting in insurance payouts, the contract should be self-sustaining\n    *\n    */   \n    // function fund\n    //                         (   \n    //                         )\n    //                         public\n    //                         payable\n    // {\n    // }\n\n    // function getFlightKey\n    //                     (\n    //                         address airline,\n    //                         string memory flight,\n    //                         uint256 timestamp\n    //                     )\n    //                     pure\n    //                     internal\n    //                     returns(bytes32) \n    // {\n    //     return keccak256(abi.encodePacked(airline, flight, timestamp));\n    // }\n\n    /**\n    * @dev Fallback function for funding smart contract.\n    *\n    */\n    // fallback() \n    //                         external \n    //                         payable \n    // {\n    //     fund();\n    // }\n}",
  "sourcePath": "/Users/juani/code/courses/udacity_blockchain_developer/flight-surety/contracts/FlightSuretyData.sol",
  "compiler": {
    "name": "solc",
    "version": "0.8.10+commit.fc410830.Emscripten.clang"
  },
  "schemaVersion": "3.4.11",
  "updatedAt": "2022-12-27T02:04:09.002Z",
  "devdoc": {
    "kind": "dev",
    "methods": {
      "constructor": {
        "details": "Constructor      The deploying account becomes contractOwner"
      },
      "registerAirline()": {
        "details": "Add an airline to the registration queue      Can only be called from FlightSuretyApp contract"
      }
    },
    "version": 1
  },
  "userdoc": {
    "kind": "user",
    "methods": {},
    "version": 1
  }
}