{
  "contractName": "FlightSuretyApp",
  "abi": [
    {
      "inputs": [
        {
          "internalType": "address",
          "name": "dataContract",
          "type": "address"
        }
      ],
      "stateMutability": "nonpayable",
      "type": "constructor"
    },
    {
      "anonymous": false,
      "inputs": [
        {
          "indexed": false,
          "internalType": "address",
          "name": "airline",
          "type": "address"
        },
        {
          "indexed": false,
          "internalType": "string",
          "name": "flight",
          "type": "string"
        },
        {
          "indexed": false,
          "internalType": "uint256",
          "name": "timestamp",
          "type": "uint256"
        },
        {
          "indexed": false,
          "internalType": "uint8",
          "name": "status",
          "type": "uint8"
        }
      ],
      "name": "FlightStatusInfo",
      "type": "event"
    },
    {
      "anonymous": false,
      "inputs": [
        {
          "indexed": false,
          "internalType": "address",
          "name": "airline",
          "type": "address"
        },
        {
          "indexed": false,
          "internalType": "string",
          "name": "flight",
          "type": "string"
        },
        {
          "indexed": false,
          "internalType": "uint256",
          "name": "timestamp",
          "type": "uint256"
        },
        {
          "indexed": false,
          "internalType": "uint8",
          "name": "status",
          "type": "uint8"
        }
      ],
      "name": "OracleReport",
      "type": "event"
    },
    {
      "anonymous": false,
      "inputs": [
        {
          "indexed": false,
          "internalType": "uint8",
          "name": "index",
          "type": "uint8"
        },
        {
          "indexed": false,
          "internalType": "address",
          "name": "airline",
          "type": "address"
        },
        {
          "indexed": false,
          "internalType": "string",
          "name": "flight",
          "type": "string"
        },
        {
          "indexed": false,
          "internalType": "uint256",
          "name": "timestamp",
          "type": "uint256"
        }
      ],
      "name": "OracleRequest",
      "type": "event"
    },
    {
      "inputs": [],
      "name": "REGISTRATION_FEE",
      "outputs": [
        {
          "internalType": "uint256",
          "name": "",
          "type": "uint256"
        }
      ],
      "stateMutability": "view",
      "type": "function"
    },
    {
      "inputs": [],
      "name": "isOperational",
      "outputs": [
        {
          "internalType": "bool",
          "name": "",
          "type": "bool"
        }
      ],
      "stateMutability": "pure",
      "type": "function"
    },
    {
      "inputs": [],
      "name": "registerAirline",
      "outputs": [
        {
          "internalType": "bool",
          "name": "success",
          "type": "bool"
        },
        {
          "internalType": "uint256",
          "name": "votes",
          "type": "uint256"
        }
      ],
      "stateMutability": "nonpayable",
      "type": "function"
    },
    {
      "inputs": [],
      "name": "registerFlight",
      "outputs": [],
      "stateMutability": "pure",
      "type": "function"
    },
    {
      "inputs": [],
      "name": "registerOracle",
      "outputs": [],
      "stateMutability": "payable",
      "type": "function"
    },
    {
      "inputs": [],
      "name": "getMyIndexes",
      "outputs": [
        {
          "internalType": "uint8[3]",
          "name": "",
          "type": "uint8[3]"
        }
      ],
      "stateMutability": "view",
      "type": "function"
    },
    {
      "inputs": [
        {
          "internalType": "uint8",
          "name": "index",
          "type": "uint8"
        },
        {
          "internalType": "address",
          "name": "airline",
          "type": "address"
        },
        {
          "internalType": "string",
          "name": "flight",
          "type": "string"
        },
        {
          "internalType": "uint256",
          "name": "timestamp",
          "type": "uint256"
        },
        {
          "internalType": "uint8",
          "name": "statusCode",
          "type": "uint8"
        }
      ],
      "name": "submitOracleResponse",
      "outputs": [],
      "stateMutability": "nonpayable",
      "type": "function"
    }
  ],
  "bytecode": "0x60806040526000600360006101000a81548160ff021916908360ff1602179055503480156200002d57600080fd5b506040516200174438038062001744833981810160405281019062000053919062000145565b336000806101000a81548173ffffffffffffffffffffffffffffffffffffffff021916908373ffffffffffffffffffffffffffffffffffffffff16021790555080600160006101000a81548173ffffffffffffffffffffffffffffffffffffffff021916908373ffffffffffffffffffffffffffffffffffffffff1602179055505062000177565b600080fd5b600073ffffffffffffffffffffffffffffffffffffffff82169050919050565b60006200010d82620000e0565b9050919050565b6200011f8162000100565b81146200012b57600080fd5b50565b6000815190506200013f8162000114565b92915050565b6000602082840312156200015e576200015d620000db565b5b60006200016e848285016200012e565b91505092915050565b6115bd80620001876000396000f3fe6080604052600436106100705760003560e01c806364b4f7511161004e57806364b4f751146100d6578063ae6f17e014610101578063c10f270014610118578063cd905dff1461014157610070565b8063339d2590146100755780635f1cc0e61461007f57806363e29a3f146100aa575b600080fd5b61007d61016c565b005b34801561008b57600080fd5b50610094610259565b6040516100a19190610c2b565b60405180910390f35b3480156100b657600080fd5b506100bf610399565b6040516100cd929190610c7a565b60405180910390f35b3480156100e257600080fd5b506100eb61043b565b6040516100f89190610ca3565b60405180910390f35b34801561010d57600080fd5b50610116610447565b005b34801561012457600080fd5b5061013f600480360381019061013a9190610ece565b610449565b005b34801561014d57600080fd5b506101566107d8565b6040516101639190610f65565b60405180910390f35b670de0b6b3a76400003410156101b7576040517f08c379a00000000000000000000000000000000000000000000000000000000081526004016101ae90610fdd565b60405180910390fd5b60006101c2336107e1565b9050604051806040016040528060011515815260200182815250600460003373ffffffffffffffffffffffffffffffffffffffff1673ffffffffffffffffffffffffffffffffffffffff16815260200190815260200160002060008201518160000160006101000a81548160ff021916908315150217905550602082015181600101906003610252929190610a9a565b5090505050565b610261610b34565b600460003373ffffffffffffffffffffffffffffffffffffffff1673ffffffffffffffffffffffffffffffffffffffff16815260200190815260200160002060000160009054906101000a900460ff166102f0576040517f08c379a00000000000000000000000000000000000000000000000000000000081526004016102e790611049565b60405180910390fd5b600460003373ffffffffffffffffffffffffffffffffffffffff1673ffffffffffffffffffffffffffffffffffffffff16815260200190815260200160002060010160038060200260405190810160405280929190826003801561038f576020028201916000905b82829054906101000a900460ff1660ff16815260200190600101906020826000010492830192600103820291508084116103585790505b5050505050905090565b600080600160009054906101000a900473ffffffffffffffffffffffffffffffffffffffff1673ffffffffffffffffffffffffffffffffffffffff166363e29a3f6040518163ffffffff1660e01b815260040160408051808303816000875af115801561040a573d6000803e3d6000fd5b505050506040513d601f19601f8201168201806040525081019061042e91906110aa565b5050600180915091509091565b670de0b6b3a764000081565b565b8460ff16600460003373ffffffffffffffffffffffffffffffffffffffff1673ffffffffffffffffffffffffffffffffffffffff1681526020019081526020016000206001016000600381106104a2576104a16110ea565b5b602091828204019190069054906101000a900460ff1660ff16148061053657508460ff16600460003373ffffffffffffffffffffffffffffffffffffffff1673ffffffffffffffffffffffffffffffffffffffff16815260200190815260200160002060010160016003811061051b5761051a6110ea565b5b602091828204019190069054906101000a900460ff1660ff16145b806105b057508460ff16600460003373ffffffffffffffffffffffffffffffffffffffff1673ffffffffffffffffffffffffffffffffffffffff168152602001908152602001600020600101600260038110610595576105946110ea565b5b602091828204019190069054906101000a900460ff1660ff16145b6105ef576040517f08c379a00000000000000000000000000000000000000000000000000000000081526004016105e69061118b565b60405180910390fd5b60008585858560405160200161060894939291906112c4565b6040516020818303038152906040528051906020012090506005600082815260200190815260200160002060000160149054906101000a900460ff16610683576040517f08c379a000000000000000000000000000000000000000000000000000000000815260040161067a90611380565b60405180910390fd5b6005600082815260200190815260200160002060010160008360ff1660ff168152602001908152602001600020339080600181540180825580915050600190039060005260206000200160009091909190916101000a81548173ffffffffffffffffffffffffffffffffffffffff021916908373ffffffffffffffffffffffffffffffffffffffff1602179055507f43c853095c2752648493c88b4baac4d580d2594ffb00c6f1d4242d844514f7838585858560405161074694939291906113f7565b60405180910390a160036005600083815260200190815260200160002060010160008460ff1660ff16815260200190815260200160002080549050106107d0577fe23f5229de535c091e3b7bec2665f5d698192d3b31393066e8987b7a05076b6c858585856040516107bb94939291906113f7565b60405180910390a16107cf858585856109c8565b5b505050505050565b60006001905090565b6107e9610b34565b6107f1610b34565b6107fa836109ce565b8160006003811061080e5761080d6110ea565b5b602002019060ff16908160ff168152505080600060038110610833576108326110ea565b5b60200201518160016003811061084c5761084b6110ea565b5b602002019060ff16908160ff16815250505b80600060038110610872576108716110ea565b5b602002015160ff168160016003811061088e5761088d6110ea565b5b602002015160ff1614156108cf576108a5836109ce565b816001600381106108b9576108b86110ea565b5b602002019060ff16908160ff168152505061085e565b806001600381106108e3576108e26110ea565b5b6020020151816002600381106108fc576108fb6110ea565b5b602002019060ff16908160ff16815250505b80600060038110610922576109216110ea565b5b602002015160ff168160026003811061093e5761093d6110ea565b5b602002015160ff161480610987575080600160038110610961576109606110ea565b5b602002015160ff168160026003811061097d5761097c6110ea565b5b602002015160ff16145b156109bf57610995836109ce565b816002600381106109a9576109a86110ea565b5b602002019060ff16908160ff168152505061090e565b80915050919050565b50505050565b600080600a905060008160ff166003600081819054906101000a900460ff16809291906109fa90611472565b91906101000a81548160ff021916908360ff16021790555060ff1643610a20919061149c565b4085604051602001610a339291906114fb565b6040516020818303038152906040528051906020012060001c610a569190611556565b905060fa600360009054906101000a900460ff1660ff161115610a90576000600360006101000a81548160ff021916908360ff1602179055505b8092505050919050565b826003601f01602090048101928215610b235791602002820160005b83821115610af457835183826101000a81548160ff021916908360ff1602179055509260200192600101602081600001049283019260010302610ab6565b8015610b215782816101000a81549060ff0219169055600101602081600001049283019260010302610af4565b505b509050610b309190610b56565b5090565b6040518060600160405280600390602082028036833780820191505090505090565b5b80821115610b6f576000816000905550600101610b57565b5090565b600060039050919050565b600081905092915050565b6000819050919050565b600060ff82169050919050565b610ba981610b93565b82525050565b6000610bbb8383610ba0565b60208301905092915050565b6000602082019050919050565b610bdd81610b73565b610be78184610b7e565b9250610bf282610b89565b8060005b83811015610c23578151610c0a8782610baf565b9650610c1583610bc7565b925050600181019050610bf6565b505050505050565b6000606082019050610c406000830184610bd4565b92915050565b60008115159050919050565b610c5b81610c46565b82525050565b6000819050919050565b610c7481610c61565b82525050565b6000604082019050610c8f6000830185610c52565b610c9c6020830184610c6b565b9392505050565b6000602082019050610cb86000830184610c6b565b92915050565b6000604051905090565b600080fd5b600080fd5b610cdb81610b93565b8114610ce657600080fd5b50565b600081359050610cf881610cd2565b92915050565b600073ffffffffffffffffffffffffffffffffffffffff82169050919050565b6000610d2982610cfe565b9050919050565b610d3981610d1e565b8114610d4457600080fd5b50565b600081359050610d5681610d30565b92915050565b600080fd5b600080fd5b6000601f19601f8301169050919050565b7f4e487b7100000000000000000000000000000000000000000000000000000000600052604160045260246000fd5b610daf82610d66565b810181811067ffffffffffffffff82111715610dce57610dcd610d77565b5b80604052505050565b6000610de1610cbe565b9050610ded8282610da6565b919050565b600067ffffffffffffffff821115610e0d57610e0c610d77565b5b610e1682610d66565b9050602081019050919050565b82818337600083830152505050565b6000610e45610e4084610df2565b610dd7565b905082815260208101848484011115610e6157610e60610d61565b5b610e6c848285610e23565b509392505050565b600082601f830112610e8957610e88610d5c565b5b8135610e99848260208601610e32565b91505092915050565b610eab81610c61565b8114610eb657600080fd5b50565b600081359050610ec881610ea2565b92915050565b600080600080600060a08688031215610eea57610ee9610cc8565b5b6000610ef888828901610ce9565b9550506020610f0988828901610d47565b945050604086013567ffffffffffffffff811115610f2a57610f29610ccd565b5b610f3688828901610e74565b9350506060610f4788828901610eb9565b9250506080610f5888828901610ce9565b9150509295509295909350565b6000602082019050610f7a6000830184610c52565b92915050565b600082825260208201905092915050565b7f526567697374726174696f6e2066656520697320726571756972656400000000600082015250565b6000610fc7601c83610f80565b9150610fd282610f91565b602082019050919050565b60006020820190508181036000830152610ff681610fba565b9050919050565b7f4e6f74207265676973746572656420617320616e206f7261636c650000000000600082015250565b6000611033601b83610f80565b915061103e82610ffd565b602082019050919050565b6000602082019050818103600083015261106281611026565b9050919050565b61107281610c46565b811461107d57600080fd5b50565b60008151905061108f81611069565b92915050565b6000815190506110a481610ea2565b92915050565b600080604083850312156110c1576110c0610cc8565b5b60006110cf85828601611080565b92505060206110e085828601611095565b9150509250929050565b7f4e487b7100000000000000000000000000000000000000000000000000000000600052603260045260246000fd5b7f496e64657820646f6573206e6f74206d61746368206f7261636c65207265717560008201527f6573740000000000000000000000000000000000000000000000000000000000602082015250565b6000611175602383610f80565b915061118082611119565b604082019050919050565b600060208201905081810360008301526111a481611168565b9050919050565b60008160f81b9050919050565b60006111c3826111ab565b9050919050565b6111db6111d682610b93565b6111b8565b82525050565b60008160601b9050919050565b60006111f9826111e1565b9050919050565b600061120b826111ee565b9050919050565b61122361121e82610d1e565b611200565b82525050565b600081519050919050565b600081905092915050565b60005b8381101561125d578082015181840152602081019050611242565b8381111561126c576000848401525b50505050565b600061127d82611229565b6112878185611234565b935061129781856020860161123f565b80840191505092915050565b6000819050919050565b6112be6112b982610c61565b6112a3565b82525050565b60006112d082876111ca565b6001820191506112e08286611212565b6014820191506112f08285611272565b91506112fc82846112ad565b60208201915081905095945050505050565b7f466c69676874206f722074696d657374616d7020646f206e6f74206d6174636860008201527f206f7261636c6520726571756573740000000000000000000000000000000000602082015250565b600061136a602f83610f80565b91506113758261130e565b604082019050919050565b600060208201905081810360008301526113998161135d565b9050919050565b6113a981610d1e565b82525050565b60006113ba82611229565b6113c48185610f80565b93506113d481856020860161123f565b6113dd81610d66565b840191505092915050565b6113f181610b93565b82525050565b600060808201905061140c60008301876113a0565b818103602083015261141e81866113af565b905061142d6040830185610c6b565b61143a60608301846113e8565b95945050505050565b7f4e487b7100000000000000000000000000000000000000000000000000000000600052601160045260246000fd5b600061147d82610b93565b915060ff82141561149157611490611443565b5b600182019050919050565b60006114a782610c61565b91506114b283610c61565b9250828210156114c5576114c4611443565b5b828203905092915050565b6000819050919050565b6000819050919050565b6114f56114f0826114d0565b6114da565b82525050565b600061150782856114e4565b6020820191506115178284611212565b6014820191508190509392505050565b7f4e487b7100000000000000000000000000000000000000000000000000000000600052601260045260246000fd5b600061156182610c61565b915061156c83610c61565b92508261157c5761157b611527565b5b82820690509291505056fea2646970667358221220aea5946ac02195934122a417912a78b65aece606e2718a1bd998a4f9a886a2ea64736f6c634300080a0033",
  "immutableReferences": {},
  "source": "// SPDX-License-Identifier: MIT\npragma solidity >=0.4.22 <0.9.0;\n\n// It's important to avoid vulnerabilities due to numeric overflow bugs\n// OpenZeppelin's SafeMath library, when used correctly, protects agains such bugs\n// More info: https://www.nccgroup.trust/us/about-us/newsroom-and-events/blog/2018/november/smart-contract-insecurity-bad-arithmetic/\nimport \"@openzeppelin/contracts/utils/math/SafeMath.sol\";\n\ncontract FlightSuretyApp {\n    \n    // Allow SafeMath functions to be called for all uint256 types (similar to \"prototype\" in Javascript)\n    using SafeMath for uint256; \n\n    /********************************************************************************************/\n    /*                                       DATA VARIABLES                                     */\n    /********************************************************************************************/\n\n    // Flight status codees\n    uint8 private constant STATUS_CODE_UNKNOWN = 0;\n    uint8 private constant STATUS_CODE_ON_TIME = 10;\n    uint8 private constant STATUS_CODE_LATE_AIRLINE = 20;\n    uint8 private constant STATUS_CODE_LATE_WEATHER = 30;\n    uint8 private constant STATUS_CODE_LATE_TECHNICAL = 40;\n    uint8 private constant STATUS_CODE_LATE_OTHER = 50;\n\n    // Account used to deploy contract\n    address private contractOwner; \n\n    FlightSuretyData flightSuretyData;\n\n    struct Flight {\n        bool isRegistered;\n        uint8 statusCode;\n        uint256 updatedTimestamp;        \n        address airline;\n    }\n    mapping(bytes32 => Flight) private flights;\n\n    /********************************************************************************************/\n    /*                                       FUNCTION MODIFIERS                                 */\n    /********************************************************************************************/\n\n    // Modifiers help avoid duplication of code. They are typically used to validate something\n    // before a function is allowed to be executed.\n\n    /**\n    * @dev Modifier that requires the \"operational\" boolean variable to be \"true\"\n    *      This is used on all state changing functions to pause the contract in \n    *      the event there is an issue that needs to be fixed\n    */\n    modifier requireIsOperational()\n    {\n        // Modify to call data contract's status\n        require(true, \"Contract is currently not opperational\");\n\n        // All modifiers require an \"_\" which indicates where the function body will be added\n        _;\n    }\n\n    /**\n    * @dev Modifier that requires the \"ContractOwner\" account to be the function caller\n    */\n    modifier requireContractOwner()\n    {\n        require(msg.sender == contractOwner, \"Caller is not contract owner\");\n        _;\n    }\n\n    /********************************************************************************************/\n    /*                                       CONSTRUCTOR                                        */\n    /********************************************************************************************/\n\n    /**\n    * @dev Contract constructor\n    *\n    */\n    constructor(address dataContract) \n    {\n        contractOwner = msg.sender;\n        flightSuretyData = FlightSuretyData(dataContract);\n    }\n\n    /********************************************************************************************/\n    /*                                       UTILITY FUNCTIONS                                  */\n    /********************************************************************************************/\n\n    function isOperational() \n                            public \n                            pure \n                            returns(bool) \n    {\n        return true;  // Modify to call data contract's status\n    }\n\n    /********************************************************************************************/\n    /*                                     SMART CONTRACT FUNCTIONS                             */\n    /********************************************************************************************/\n\n  \n   /**\n    * @dev Add an airline to the registration queue\n    *\n    */   \n    function registerAirline\n                            (   \n                            )\n                            external\n                            returns(bool success, uint256 votes)\n    {\n       flightSuretyData.registerAirline();\n       return (true, 1);\n    }\n\n   /**\n    * @dev Register a future flight for insuring.\n    *\n    */  \n    function registerFlight\n                                (\n                                )\n                                external\n                                pure\n    {\n\n    }\n\n   /**\n    * @dev Called after oracle has updated flight status\n    *\n    */  \n    function processFlightStatus\n                                (\n                                    address airline,\n                                    string memory flight,\n                                    uint256 timestamp,\n                                    uint8 statusCode\n                                )\n                                internal\n                                pure\n    {\n    }\n\n    // Oracle managment\n\n    // Incremented to add pseudo-randomness at various points\n    uint8 private nonce = 0;    \n\n    // Fee to be paid when registering oracle\n    uint256 public constant REGISTRATION_FEE = 1 ether;\n\n    // Number of oracles that must respond for valid status\n    uint256 private constant MIN_RESPONSES = 3;\n\n    struct Oracle {\n        bool isRegistered;\n        uint8[3] indexes;        \n    }\n\n    // Track all registered oracles\n    mapping(address => Oracle) private oracles;\n\n    // Model for responses from oracles\n    struct ResponseInfo {\n        address requester;                              // Account that requested status\n        bool isOpen;                                    // If open, oracle responses are accepted\n        mapping(uint8 => address[]) responses;          // Mapping key is the status code reported\n                                                        // This lets us group responses and identify                                                       \n                                                        // the response that majority of the oracles\n    }\n\n    // Track all oracle responses\n    // Key = hash(index, flight, timestamp)\n    mapping(bytes32 => ResponseInfo) private oracleResponses;\n\n    // Event fired each time an oracle submits a response\n    event FlightStatusInfo(address airline, string flight, uint256 timestamp, uint8 status);\n\n    event OracleReport(address airline, string flight, uint256 timestamp, uint8 status);\n\n    // Event fired when flight status request is submitted\n    // Oracles track this and if they have a matching index\n    // they fetch data and submit a response\n    event OracleRequest(uint8 index, address airline, string flight, uint256 timestamp);\n\n    // Register an oracle with the contract\n    function registerOracle\n                            (\n                            )\n                            external\n                            payable\n    {\n        // Require registration fee\n        require(msg.value >= REGISTRATION_FEE, \"Registration fee is required\");\n\n        uint8[3] memory indexes = generateIndexes(msg.sender);\n\n        oracles[msg.sender] = Oracle({\n                                        isRegistered: true,\n                                        indexes: indexes\n                                    });\n    }\n\n    function getMyIndexes\n                            (\n                            )\n                            view\n                            external\n                            returns(uint8[3] memory)\n    {\n        require(oracles[msg.sender].isRegistered, \"Not registered as an oracle\");\n\n        return oracles[msg.sender].indexes;\n    }\n\n    // Called by oracle when a response is available to an outstanding request\n    // For the response to be accepted, there must be a pending request that is open\n    // and matches one of the three Indexes randomly assigned to the oracle at the\n    // time of registration (i.e. uninvited oracles are not welcome)\n    function submitOracleResponse\n                        (\n                            uint8 index,\n                            address airline,\n                            string memory flight,\n                            uint256 timestamp,\n                            uint8 statusCode\n                        )\n                        external\n    {\n        require((oracles[msg.sender].indexes[0] == index) || (oracles[msg.sender].indexes[1] == index) || (oracles[msg.sender].indexes[2] == index), \"Index does not match oracle request\");\n\n\n        bytes32 key = keccak256(abi.encodePacked(index, airline, flight, timestamp)); \n        require(oracleResponses[key].isOpen, \"Flight or timestamp do not match oracle request\");\n\n        oracleResponses[key].responses[statusCode].push(msg.sender);\n\n        // Information isn't considered verified until at least MIN_RESPONSES\n        // oracles respond with the *** same *** information\n        emit OracleReport(airline, flight, timestamp, statusCode);\n        if (oracleResponses[key].responses[statusCode].length >= MIN_RESPONSES) {\n\n            emit FlightStatusInfo(airline, flight, timestamp, statusCode);\n\n            // Handle flight status as appropriate\n            processFlightStatus(airline, flight, timestamp, statusCode);\n        }\n    }\n\n    function getFlightKey\n                        (\n                            address airline,\n                            string memory flight,\n                            uint256 timestamp\n                        )\n                        pure\n                        internal\n                        returns(bytes32) \n    {\n        return keccak256(abi.encodePacked(airline, flight, timestamp));\n    }\n\n    // Returns array of three non-duplicating integers from 0-9\n    function generateIndexes\n                            (                       \n                                address account         \n                            )\n                            internal\n                            returns(uint8[3] memory)\n    {\n        uint8[3] memory indexes;\n        indexes[0] = getRandomIndex(account);\n        \n        indexes[1] = indexes[0];\n        while(indexes[1] == indexes[0]) {\n            indexes[1] = getRandomIndex(account);\n        }\n\n        indexes[2] = indexes[1];\n        while((indexes[2] == indexes[0]) || (indexes[2] == indexes[1])) {\n            indexes[2] = getRandomIndex(account);\n        }\n\n        return indexes;\n    }\n\n    // Returns array of three non-duplicating integers from 0-9\n    function getRandomIndex\n                            (\n                                address account\n                            )\n                            internal\n                            returns (uint8)\n    {\n        uint8 maxValue = 10;\n\n        // Pseudo random number...the incrementing nonce adds variation\n        uint8 random = uint8(uint256(keccak256(abi.encodePacked(blockhash(block.number - nonce++), account))) % maxValue);\n\n        if (nonce > 250) {\n            nonce = 0;  // Can only fetch blockhashes for last 256 blocks so we adapt\n        }\n\n        return random;\n    }\n}\n\n/**\n    We add a reference to the Data Contract. For this we create an interface.\n    We are telling the app contract how to interact with the data contract\n */\nabstract contract FlightSuretyData {\n    function registerAirline\n                            (   \n                            )\n                            external\n                            virtual\n                            returns(bool success, uint256 votes);\n}",
  "sourcePath": "/Users/juani/code/courses/udacity_blockchain_developer/flight-surety/contracts/FlightSuretyApp.sol",
  "compiler": {
    "name": "solc",
    "version": "0.8.10+commit.fc410830.Emscripten.clang"
  },
  "schemaVersion": "3.4.11",
  "updatedAt": "2022-12-27T02:04:01.940Z",
  "devdoc": {
    "kind": "dev",
    "methods": {
      "constructor": {
        "details": "Contract constructor"
      },
      "registerAirline()": {
        "details": "Add an airline to the registration queue"
      },
      "registerFlight()": {
        "details": "Register a future flight for insuring."
      }
    },
    "version": 1
  },
  "userdoc": {
    "kind": "user",
    "methods": {},
    "version": 1
  }
}