{
  "contractName": "FlightSuretyData",
  "abi": [
    {
      "inputs": [],
      "stateMutability": "nonpayable",
      "type": "constructor"
    },
    {
      "anonymous": false,
      "inputs": [
        {
          "indexed": false,
          "internalType": "address",
          "name": "authContract",
          "type": "address"
        }
      ],
      "name": "AuthorizedContract",
      "type": "event"
    },
    {
      "anonymous": false,
      "inputs": [
        {
          "indexed": false,
          "internalType": "address",
          "name": "authContract",
          "type": "address"
        }
      ],
      "name": "DeAuthorizedContract",
      "type": "event"
    },
    {
      "stateMutability": "payable",
      "type": "fallback",
      "payable": true
    },
    {
      "stateMutability": "payable",
      "type": "receive",
      "payable": true
    },
    {
      "inputs": [],
      "name": "isOperational",
      "outputs": [
        {
          "internalType": "bool",
          "name": "",
          "type": "bool"
        }
      ],
      "stateMutability": "view",
      "type": "function",
      "constant": true
    },
    {
      "inputs": [
        {
          "internalType": "bool",
          "name": "mode",
          "type": "bool"
        }
      ],
      "name": "setOperatingStatus",
      "outputs": [],
      "stateMutability": "nonpayable",
      "type": "function"
    },
    {
      "inputs": [
        {
          "internalType": "address",
          "name": "contractAddress",
          "type": "address"
        }
      ],
      "name": "authorizeCaller",
      "outputs": [],
      "stateMutability": "nonpayable",
      "type": "function"
    },
    {
      "inputs": [
        {
          "internalType": "address",
          "name": "contractAddress",
          "type": "address"
        }
      ],
      "name": "deauthorizeContract",
      "outputs": [],
      "stateMutability": "nonpayable",
      "type": "function"
    },
    {
      "inputs": [
        {
          "internalType": "address",
          "name": "account",
          "type": "address"
        }
      ],
      "name": "getAccountCredit",
      "outputs": [
        {
          "internalType": "uint256",
          "name": "",
          "type": "uint256"
        }
      ],
      "stateMutability": "view",
      "type": "function",
      "constant": true
    },
    {
      "inputs": [
        {
          "internalType": "address",
          "name": "account",
          "type": "address"
        },
        {
          "internalType": "uint256",
          "name": "amount",
          "type": "uint256"
        }
      ],
      "name": "payToInsuree",
      "outputs": [],
      "stateMutability": "payable",
      "type": "function",
      "payable": true
    },
    {
      "inputs": [],
      "name": "getRegisteredAirlines",
      "outputs": [
        {
          "internalType": "uint256",
          "name": "",
          "type": "uint256"
        }
      ],
      "stateMutability": "view",
      "type": "function",
      "constant": true
    },
    {
      "inputs": [],
      "name": "getRegisteredAirlinesAccounts",
      "outputs": [
        {
          "internalType": "address[]",
          "name": "",
          "type": "address[]"
        }
      ],
      "stateMutability": "view",
      "type": "function",
      "constant": true
    },
    {
      "inputs": [
        {
          "internalType": "address",
          "name": "airlineAddress",
          "type": "address"
        }
      ],
      "name": "getAirlineRegistrationStatus",
      "outputs": [
        {
          "internalType": "bool",
          "name": "",
          "type": "bool"
        }
      ],
      "stateMutability": "view",
      "type": "function",
      "constant": true
    },
    {
      "inputs": [
        {
          "internalType": "address",
          "name": "airlineAddress",
          "type": "address"
        }
      ],
      "name": "getAirlineOperationalStatus",
      "outputs": [
        {
          "internalType": "bool",
          "name": "",
          "type": "bool"
        }
      ],
      "stateMutability": "view",
      "type": "function",
      "constant": true
    },
    {
      "inputs": [
        {
          "internalType": "address",
          "name": "airlineAddress",
          "type": "address"
        },
        {
          "internalType": "bool",
          "name": "fundComplete",
          "type": "bool"
        }
      ],
      "name": "registerAirline",
      "outputs": [],
      "stateMutability": "nonpayable",
      "type": "function"
    },
    {
      "inputs": [
        {
          "internalType": "address",
          "name": "account",
          "type": "address"
        }
      ],
      "name": "fund",
      "outputs": [],
      "stateMutability": "payable",
      "type": "function",
      "payable": true
    },
    {
      "inputs": [
        {
          "internalType": "address",
          "name": "account",
          "type": "address"
        }
      ],
      "name": "getFunding",
      "outputs": [
        {
          "internalType": "uint256",
          "name": "",
          "type": "uint256"
        }
      ],
      "stateMutability": "view",
      "type": "function",
      "constant": true
    },
    {
      "inputs": [
        {
          "internalType": "address",
          "name": "airlineAddress",
          "type": "address"
        },
        {
          "internalType": "string",
          "name": "flight",
          "type": "string"
        },
        {
          "internalType": "uint256",
          "name": "timestamp",
          "type": "uint256"
        }
      ],
      "name": "registerFlight",
      "outputs": [],
      "stateMutability": "nonpayable",
      "type": "function"
    },
    {
      "inputs": [
        {
          "internalType": "address",
          "name": "airline",
          "type": "address"
        },
        {
          "internalType": "string",
          "name": "flightNumber",
          "type": "string"
        },
        {
          "internalType": "uint256",
          "name": "timestamp",
          "type": "uint256"
        }
      ],
      "name": "getFlightStatus",
      "outputs": [
        {
          "internalType": "bool",
          "name": "",
          "type": "bool"
        }
      ],
      "stateMutability": "view",
      "type": "function",
      "constant": true
    },
    {
      "inputs": [
        {
          "internalType": "address",
          "name": "airline",
          "type": "address"
        },
        {
          "internalType": "string",
          "name": "flight",
          "type": "string"
        },
        {
          "internalType": "uint256",
          "name": "timestamp",
          "type": "uint256"
        },
        {
          "internalType": "uint256",
          "name": "code",
          "type": "uint256"
        }
      ],
      "name": "setFlightStatusCode",
      "outputs": [],
      "stateMutability": "nonpayable",
      "type": "function"
    },
    {
      "inputs": [
        {
          "internalType": "address",
          "name": "airline",
          "type": "address"
        },
        {
          "internalType": "string",
          "name": "flight",
          "type": "string"
        },
        {
          "internalType": "uint256",
          "name": "timestamp",
          "type": "uint256"
        }
      ],
      "name": "getFlightStatusCode",
      "outputs": [
        {
          "internalType": "uint256",
          "name": "",
          "type": "uint256"
        }
      ],
      "stateMutability": "view",
      "type": "function",
      "constant": true
    },
    {
      "inputs": [
        {
          "internalType": "address",
          "name": "airline",
          "type": "address"
        },
        {
          "internalType": "string",
          "name": "flight",
          "type": "string"
        },
        {
          "internalType": "address",
          "name": "insuree",
          "type": "address"
        },
        {
          "internalType": "uint256",
          "name": "amount",
          "type": "uint256"
        },
        {
          "internalType": "uint256",
          "name": "timestamp",
          "type": "uint256"
        }
      ],
      "name": "buy",
      "outputs": [],
      "stateMutability": "payable",
      "type": "function",
      "payable": true
    },
    {
      "inputs": [
        {
          "internalType": "address",
          "name": "airline",
          "type": "address"
        },
        {
          "internalType": "string",
          "name": "flight",
          "type": "string"
        },
        {
          "internalType": "uint256",
          "name": "timestamp",
          "type": "uint256"
        }
      ],
      "name": "getFlightPremium",
      "outputs": [
        {
          "internalType": "uint256",
          "name": "",
          "type": "uint256"
        }
      ],
      "stateMutability": "view",
      "type": "function",
      "constant": true
    },
    {
      "inputs": [
        {
          "internalType": "address",
          "name": "account",
          "type": "address"
        }
      ],
      "name": "getVoter",
      "outputs": [
        {
          "internalType": "address[]",
          "name": "",
          "type": "address[]"
        }
      ],
      "stateMutability": "view",
      "type": "function",
      "constant": true
    },
    {
      "inputs": [
        {
          "internalType": "address",
          "name": "account",
          "type": "address"
        }
      ],
      "name": "getVotersLength",
      "outputs": [
        {
          "internalType": "uint256",
          "name": "",
          "type": "uint256"
        }
      ],
      "stateMutability": "view",
      "type": "function",
      "constant": true
    },
    {
      "inputs": [
        {
          "internalType": "address",
          "name": "account",
          "type": "address"
        }
      ],
      "name": "getVotesQty",
      "outputs": [
        {
          "internalType": "uint256",
          "name": "",
          "type": "uint256"
        }
      ],
      "stateMutability": "view",
      "type": "function",
      "constant": true
    },
    {
      "inputs": [
        {
          "internalType": "address",
          "name": "enteringAirline",
          "type": "address"
        },
        {
          "internalType": "address",
          "name": "registeredAirline",
          "type": "address"
        },
        {
          "internalType": "bool",
          "name": "vote",
          "type": "bool"
        }
      ],
      "name": "addVoteInformation",
      "outputs": [],
      "stateMutability": "nonpayable",
      "type": "function"
    },
    {
      "inputs": [
        {
          "internalType": "address",
          "name": "enteringAirline",
          "type": "address"
        },
        {
          "internalType": "uint256",
          "name": "newVote",
          "type": "uint256"
        }
      ],
      "name": "addVoteToAirline",
      "outputs": [],
      "stateMutability": "nonpayable",
      "type": "function"
    },
    {
      "inputs": [
        {
          "internalType": "address",
          "name": "airline",
          "type": "address"
        }
      ],
      "name": "deleteVoteCounter",
      "outputs": [],
      "stateMutability": "nonpayable",
      "type": "function"
    }
  ],
  "bytecode": "0x60806040526001600060146101000a81548160ff021916908315150217905550600067ffffffffffffffff8111156200003d576200003c62000287565b5b6040519080825280602002602001820160405280156200006c5781602001602082028036833780820191505090505b506001908051906020019062000084929190620001d9565b503480156200009257600080fd5b50336000806101000a81548173ffffffffffffffffffffffffffffffffffffffff021916908373ffffffffffffffffffffffffffffffffffffffff160217905550604051806040016040528060011515815260200160001515815250600560003373ffffffffffffffffffffffffffffffffffffffff1673ffffffffffffffffffffffffffffffffffffffff16815260200190815260200160002060008201518160000160006101000a81548160ff02191690831515021790555060208201518160000160016101000a81548160ff0219169083151502179055509050506001339080600181540180825580915050600190039060005260206000200160009091909190916101000a81548173ffffffffffffffffffffffffffffffffffffffff021916908373ffffffffffffffffffffffffffffffffffffffff160217905550620002b6565b82805482825590600052602060002090810192821562000255579160200282015b82811115620002545782518260006101000a81548173ffffffffffffffffffffffffffffffffffffffff021916908373ffffffffffffffffffffffffffffffffffffffff16021790555091602001919060010190620001fa565b5b50905062000264919062000268565b5090565b5b808211156200028357600081600090555060010162000269565b5090565b7f4e487b7100000000000000000000000000000000000000000000000000000000600052604160045260246000fd5b61310580620002c66000396000f3fe60806040526004361061016a5760003560e01c806395386ae2116100d1578063c23bcf091161008a578063d4f50f9811610064578063d4f50f9814610544578063d8c2705d14610581578063de683bb2146105be578063fe50b7a0146105e757610171565b8063c23bcf09146104c5578063c58ad530146104f0578063cd905dff1461051957610171565b806395386ae21461037f5780639de5f957146103a8578063a90d0dcc146103e5578063ad0a4f3214610422578063b255380b1461045f578063b4ca82b81461048857610171565b80633cc0be9c116101235780633cc0be9c1461028f5780634c7ebd37146102b85780636e861c0e146102f557806372bcd8411461031e5780637715aa73146103475780638c9f1afe1461036357610171565b8063110466ed1461017c5780631eeb8858146101a557806323024408146101e25780632c388d5d146101fe578063340288dc14610227578063351ba61b1461025257610171565b3661017157005b61017a33610624565b005b34801561018857600080fd5b506101a3600480360381019061019e91906127ea565b610747565b005b3480156101b157600080fd5b506101cc60048036038101906101c79190612875565b6107f2565b6040516101d991906128b1565b60405180910390f35b6101fc60048036038101906101f79190612875565b610624565b005b34801561020a57600080fd5b5061022560048036038101906102209190612875565b61091b565b005b34801561023357600080fd5b5061023c610a28565b604051610249919061298a565b60405180910390f35b34801561025e57600080fd5b5061027960048036038101906102749190612b28565b610b87565b6040516102869190612ba6565b60405180910390f35b34801561029b57600080fd5b506102b660048036038101906102b19190612b28565b610cea565b005b3480156102c457600080fd5b506102df60048036038101906102da9190612875565b610f72565b6040516102ec9190612ba6565b60405180910390f35b34801561030157600080fd5b5061031c60048036038101906103179190612875565b61108b565b005b34801561032a57600080fd5b5061034560048036038101906103409190612bc1565b611196565b005b610361600480360381019061035c9190612c44565b6112f3565b005b61037d60048036038101906103789190612c84565b6114a4565b005b34801561038b57600080fd5b506103a660048036038101906103a19190612d1b565b6117d2565b005b3480156103b457600080fd5b506103cf60048036038101906103ca9190612b28565b6118d5565b6040516103dc91906128b1565b60405180910390f35b3480156103f157600080fd5b5061040c60048036038101906104079190612875565b611a45565b6040516104199190612ba6565b60405180910390f35b34801561042e57600080fd5b5061044960048036038101906104449190612875565b611b64565b6040516104569190612ba6565b60405180910390f35b34801561046b57600080fd5b5061048660048036038101906104819190612d5b565b611c01565b005b34801561049457600080fd5b506104af60048036038101906104aa9190612875565b611e11565b6040516104bc91906128b1565b60405180910390f35b3480156104d157600080fd5b506104da611f3a565b6040516104e79190612ba6565b60405180910390f35b3480156104fc57600080fd5b5061051760048036038101906105129190612c44565b612017565b005b34801561052557600080fd5b5061052e612181565b60405161053b91906128b1565b60405180910390f35b34801561055057600080fd5b5061056b60048036038101906105669190612875565b612197565b604051610578919061298a565b60405180910390f35b34801561058d57600080fd5b506105a860048036038101906105a39190612875565b612338565b6040516105b59190612ba6565b60405180910390f35b3480156105ca57600080fd5b506105e560048036038101906105e09190612875565b612451565b005b3480156105f357600080fd5b5061060e60048036038101906106099190612b28565b612568565b60405161061b9190612ba6565b60405180910390f35b600060149054906101000a900460ff16610673576040517f08c379a000000000000000000000000000000000000000000000000000000000815260040161066a90612e31565b60405180910390fd5b6001600260003373ffffffffffffffffffffffffffffffffffffffff1673ffffffffffffffffffffffffffffffffffffffff16815260200190815260200160002054146106f5576040517f08c379a00000000000000000000000000000000000000000000000000000000081526004016106ec90612e9d565b60405180910390fd5b34600660008373ffffffffffffffffffffffffffffffffffffffff1673ffffffffffffffffffffffffffffffffffffffff168152602001908152602001600020819055506107448160016126c5565b50565b60008054906101000a900473ffffffffffffffffffffffffffffffffffffffff1673ffffffffffffffffffffffffffffffffffffffff163373ffffffffffffffffffffffffffffffffffffffff16146107d5576040517f08c379a00000000000000000000000000000000000000000000000000000000081526004016107cc90612f09565b60405180910390fd5b80600060146101000a81548160ff02191690831515021790555050565b60008060149054906101000a900460ff16610842576040517f08c379a000000000000000000000000000000000000000000000000000000000815260040161083990612e31565b60405180910390fd5b6001600260003373ffffffffffffffffffffffffffffffffffffffff1673ffffffffffffffffffffffffffffffffffffffff16815260200190815260200160002054146108c4576040517f08c379a00000000000000000000000000000000000000000000000000000000081526004016108bb90612e9d565b60405180910390fd5b600560008373ffffffffffffffffffffffffffffffffffffffff1673ffffffffffffffffffffffffffffffffffffffff16815260200190815260200160002060000160009054906101000a900460ff169050919050565b60008054906101000a900473ffffffffffffffffffffffffffffffffffffffff1673ffffffffffffffffffffffffffffffffffffffff163373ffffffffffffffffffffffffffffffffffffffff16146109a9576040517f08c379a00000000000000000000000000000000000000000000000000000000081526004016109a090612f09565b60405180910390fd5b6001600260008373ffffffffffffffffffffffffffffffffffffffff1673ffffffffffffffffffffffffffffffffffffffff168152602001908152602001600020819055507f2c74592fddad593c2c4403101ce9b30930711ab87571268ddd1e1989ee1d791781604051610a1d9190612f38565b60405180910390a150565b6060600060149054906101000a900460ff16610a79576040517f08c379a0000000000000000000000000000000000000000000000000000000008152600401610a7090612e31565b60405180910390fd5b6001600260003373ffffffffffffffffffffffffffffffffffffffff1673ffffffffffffffffffffffffffffffffffffffff1681526020019081526020016000205414610afb576040517f08c379a0000000000000000000000000000000000000000000000000000000008152600401610af290612e9d565b60405180910390fd5b6001805480602002602001604051908101604052809291908181526020018280548015610b7d57602002820191906000526020600020905b8160009054906101000a900473ffffffffffffffffffffffffffffffffffffffff1673ffffffffffffffffffffffffffffffffffffffff1681526020019060010190808311610b33575b5050505050905090565b60008060149054906101000a900460ff16610bd7576040517f08c379a0000000000000000000000000000000000000000000000000000000008152600401610bce90612e31565b60405180910390fd5b6001600260003373ffffffffffffffffffffffffffffffffffffffff1673ffffffffffffffffffffffffffffffffffffffff1681526020019081526020016000205414610c59576040517f08c379a0000000000000000000000000000000000000000000000000000000008152600401610c5090612e9d565b60405180910390fd5b60008383604051602001610c6e929190612fee565b6040516020818303038152906040528051906020012090506000600460008773ffffffffffffffffffffffffffffffffffffffff1673ffffffffffffffffffffffffffffffffffffffff168152602001908152602001600020600083815260200190815260200160002060020154905080925050509392505050565b600060149054906101000a900460ff16610d39576040517f08c379a0000000000000000000000000000000000000000000000000000000008152600401610d3090612e31565b60405180910390fd5b6001600260003373ffffffffffffffffffffffffffffffffffffffff1673ffffffffffffffffffffffffffffffffffffffff1681526020019081526020016000205414610dbb576040517f08c379a0000000000000000000000000000000000000000000000000000000008152600401610db290612e9d565b60405180910390fd5b60008282604051602001610dd0929190612fee565b604051602081830303815290604052805190602001209050600360008573ffffffffffffffffffffffffffffffffffffffff1673ffffffffffffffffffffffffffffffffffffffff1681526020019081526020016000208190806001815401808255809150506001900390600052602060002001600090919091909150556001600460008673ffffffffffffffffffffffffffffffffffffffff1673ffffffffffffffffffffffffffffffffffffffff168152602001908152602001600020600083815260200190815260200160002060000160006101000a81548160ff0219169083151502179055506000600460008673ffffffffffffffffffffffffffffffffffffffff1673ffffffffffffffffffffffffffffffffffffffff1681526020019081526020016000206000838152602001908152602001600020600101819055506000600460008673ffffffffffffffffffffffffffffffffffffffff1673ffffffffffffffffffffffffffffffffffffffff16815260200190815260200160002060008381526020019081526020016000206002018190555050505050565b60008060149054906101000a900460ff16610fc2576040517f08c379a0000000000000000000000000000000000000000000000000000000008152600401610fb990612e31565b60405180910390fd5b6001600260003373ffffffffffffffffffffffffffffffffffffffff1673ffffffffffffffffffffffffffffffffffffffff1681526020019081526020016000205414611044576040517f08c379a000000000000000000000000000000000000000000000000000000000815260040161103b90612e9d565b60405180910390fd5b600b60008373ffffffffffffffffffffffffffffffffffffffff1673ffffffffffffffffffffffffffffffffffffffff168152602001908152602001600020549050919050565b60008054906101000a900473ffffffffffffffffffffffffffffffffffffffff1673ffffffffffffffffffffffffffffffffffffffff163373ffffffffffffffffffffffffffffffffffffffff1614611119576040517f08c379a000000000000000000000000000000000000000000000000000000000815260040161111090612f09565b60405180910390fd5b600260008273ffffffffffffffffffffffffffffffffffffffff1673ffffffffffffffffffffffffffffffffffffffff168152602001908152602001600020600090557fd5cf915bcf19ee4a2edf05f0add6e4520e02eda58f4b4a99387be2a7ae79cefb8160405161118b9190612f38565b60405180910390a150565b600060149054906101000a900460ff166111e5576040517f08c379a00000000000000000000000000000000000000000000000000000000081526004016111dc90612e31565b60405180910390fd5b6001600260003373ffffffffffffffffffffffffffffffffffffffff1673ffffffffffffffffffffffffffffffffffffffff1681526020019081526020016000205414611267576040517f08c379a000000000000000000000000000000000000000000000000000000000815260040161125e90612e9d565b60405180910390fd5b6000838360405160200161127c929190612fee565b60405160208183030381529060405280519060200120905081600460008773ffffffffffffffffffffffffffffffffffffffff1673ffffffffffffffffffffffffffffffffffffffff1681526020019081526020016000206000838152602001908152602001600020600201819055505050505050565b600060149054906101000a900460ff16611342576040517f08c379a000000000000000000000000000000000000000000000000000000000815260040161133990612e31565b60405180910390fd5b6001600260003373ffffffffffffffffffffffffffffffffffffffff1673ffffffffffffffffffffffffffffffffffffffff16815260200190815260200160002054146113c4576040517f08c379a00000000000000000000000000000000000000000000000000000000081526004016113bb90612e9d565b60405180910390fd5b61141681600b60008573ffffffffffffffffffffffffffffffffffffffff1673ffffffffffffffffffffffffffffffffffffffff1681526020019081526020016000205461277290919063ffffffff16565b600b60008473ffffffffffffffffffffffffffffffffffffffff1673ffffffffffffffffffffffffffffffffffffffff168152602001908152602001600020819055508173ffffffffffffffffffffffffffffffffffffffff166108fc829081150290604051600060405180830381858888f1935050505015801561149f573d6000803e3d6000fd5b505050565b600060149054906101000a900460ff166114f3576040517f08c379a00000000000000000000000000000000000000000000000000000000081526004016114ea90612e31565b60405180910390fd5b6001600260003373ffffffffffffffffffffffffffffffffffffffff1673ffffffffffffffffffffffffffffffffffffffff1681526020019081526020016000205414611575576040517f08c379a000000000000000000000000000000000000000000000000000000000815260040161156c90612e9d565b60405180910390fd5b6000848260405160200161158a929190612fee565b60405160208183030381529060405280519060200120905061160883600460008973ffffffffffffffffffffffffffffffffffffffff1673ffffffffffffffffffffffffffffffffffffffff16815260200190815260200160002060008481526020019081526020016000206001015461278890919063ffffffff16565b600460008873ffffffffffffffffffffffffffffffffffffffff1673ffffffffffffffffffffffffffffffffffffffff168152602001908152602001600020600083815260200190815260200160002060010181905550600860008773ffffffffffffffffffffffffffffffffffffffff1673ffffffffffffffffffffffffffffffffffffffff1681526020019081526020016000206000828152602001908152602001600020849080600181540180825580915050600190039060005260206000200160009091909190916101000a81548173ffffffffffffffffffffffffffffffffffffffff021916908373ffffffffffffffffffffffffffffffffffffffff16021790555060405180604001604052808481526020016000815250600960008873ffffffffffffffffffffffffffffffffffffffff1673ffffffffffffffffffffffffffffffffffffffff168152602001908152602001600020600083815260200190815260200160002060008673ffffffffffffffffffffffffffffffffffffffff1673ffffffffffffffffffffffffffffffffffffffff1681526020019081526020016000206000820151816000015560208201518160010155905050505050505050565b6040518060400160405280600115158152602001821515815250600560008473ffffffffffffffffffffffffffffffffffffffff1673ffffffffffffffffffffffffffffffffffffffff16815260200190815260200160002060008201518160000160006101000a81548160ff02191690831515021790555060208201518160000160016101000a81548160ff0219169083151502179055509050506001829080600181540180825580915050600190039060005260206000200160009091909190916101000a81548173ffffffffffffffffffffffffffffffffffffffff021916908373ffffffffffffffffffffffffffffffffffffffff1602179055505050565b60008060149054906101000a900460ff16611925576040517f08c379a000000000000000000000000000000000000000000000000000000000815260040161191c90612e31565b60405180910390fd5b6001600260003373ffffffffffffffffffffffffffffffffffffffff1673ffffffffffffffffffffffffffffffffffffffff16815260200190815260200160002054146119a7576040517f08c379a000000000000000000000000000000000000000000000000000000000815260040161199e90612e9d565b60405180910390fd5b600083836040516020016119bc929190612fee565b6040516020818303038152906040528051906020012090506000600460008773ffffffffffffffffffffffffffffffffffffffff1673ffffffffffffffffffffffffffffffffffffffff168152602001908152602001600020600083815260200190815260200160002060000160009054906101000a900460ff16905080925050509392505050565b60008060149054906101000a900460ff16611a95576040517f08c379a0000000000000000000000000000000000000000000000000000000008152600401611a8c90612e31565b60405180910390fd5b6001600260003373ffffffffffffffffffffffffffffffffffffffff1673ffffffffffffffffffffffffffffffffffffffff1681526020019081526020016000205414611b17576040517f08c379a0000000000000000000000000000000000000000000000000000000008152600401611b0e90612e9d565b60405180910390fd5b600760008373ffffffffffffffffffffffffffffffffffffffff1673ffffffffffffffffffffffffffffffffffffffff168152602001908152602001600020600001805490509050919050565b60008060149054906101000a900460ff16611bb4576040517f08c379a0000000000000000000000000000000000000000000000000000000008152600401611bab90612e31565b60405180910390fd5b6000600660008473ffffffffffffffffffffffffffffffffffffffff1673ffffffffffffffffffffffffffffffffffffffff16815260200190815260200160002054905080915050919050565b600060149054906101000a900460ff16611c50576040517f08c379a0000000000000000000000000000000000000000000000000000000008152600401611c4790612e31565b60405180910390fd5b6001600260003373ffffffffffffffffffffffffffffffffffffffff1673ffffffffffffffffffffffffffffffffffffffff1681526020019081526020016000205414611cd2576040517f08c379a0000000000000000000000000000000000000000000000000000000008152600401611cc990612e9d565b60405180910390fd5b600760008473ffffffffffffffffffffffffffffffffffffffff1673ffffffffffffffffffffffffffffffffffffffff168152602001908152602001600020600001829080600181540180825580915050600190039060005260206000200160009091909190916101000a81548173ffffffffffffffffffffffffffffffffffffffff021916908373ffffffffffffffffffffffffffffffffffffffff16021790555080600760008573ffffffffffffffffffffffffffffffffffffffff1673ffffffffffffffffffffffffffffffffffffffff16815260200190815260200160002060010160008473ffffffffffffffffffffffffffffffffffffffff1673ffffffffffffffffffffffffffffffffffffffff16815260200190815260200160002060006101000a81548160ff021916908315150217905550505050565b60008060149054906101000a900460ff16611e61576040517f08c379a0000000000000000000000000000000000000000000000000000000008152600401611e5890612e31565b60405180910390fd5b6001600260003373ffffffffffffffffffffffffffffffffffffffff1673ffffffffffffffffffffffffffffffffffffffff1681526020019081526020016000205414611ee3576040517f08c379a0000000000000000000000000000000000000000000000000000000008152600401611eda90612e9d565b60405180910390fd5b600560008373ffffffffffffffffffffffffffffffffffffffff1673ffffffffffffffffffffffffffffffffffffffff16815260200190815260200160002060000160019054906101000a900460ff169050919050565b60008060149054906101000a900460ff16611f8a576040517f08c379a0000000000000000000000000000000000000000000000000000000008152600401611f8190612e31565b60405180910390fd5b6001600260003373ffffffffffffffffffffffffffffffffffffffff1673ffffffffffffffffffffffffffffffffffffffff168152602001908152602001600020541461200c576040517f08c379a000000000000000000000000000000000000000000000000000000000815260040161200390612e9d565b60405180910390fd5b600180549050905090565b600060149054906101000a900460ff16612066576040517f08c379a000000000000000000000000000000000000000000000000000000000815260040161205d90612e31565b60405180910390fd5b6001600260003373ffffffffffffffffffffffffffffffffffffffff1673ffffffffffffffffffffffffffffffffffffffff16815260200190815260200160002054146120e8576040517f08c379a00000000000000000000000000000000000000000000000000000000081526004016120df90612e9d565b60405180910390fd5b61213a81600a60008573ffffffffffffffffffffffffffffffffffffffff1673ffffffffffffffffffffffffffffffffffffffff1681526020019081526020016000205461278890919063ffffffff16565b600a60008473ffffffffffffffffffffffffffffffffffffffff1673ffffffffffffffffffffffffffffffffffffffff168152602001908152602001600020819055505050565b60008060149054906101000a900460ff16905090565b6060600060149054906101000a900460ff166121e8576040517f08c379a00000000000000000000000000000000000000000000000000000000081526004016121df90612e31565b60405180910390fd5b6001600260003373ffffffffffffffffffffffffffffffffffffffff1673ffffffffffffffffffffffffffffffffffffffff168152602001908152602001600020541461226a576040517f08c379a000000000000000000000000000000000000000000000000000000000815260040161226190612e9d565b60405180910390fd5b600760008373ffffffffffffffffffffffffffffffffffffffff1673ffffffffffffffffffffffffffffffffffffffff16815260200190815260200160002060000180548060200260200160405190810160405280929190818152602001828054801561232c57602002820191906000526020600020905b8160009054906101000a900473ffffffffffffffffffffffffffffffffffffffff1673ffffffffffffffffffffffffffffffffffffffff16815260200190600101908083116122e2575b50505050509050919050565b60008060149054906101000a900460ff16612388576040517f08c379a000000000000000000000000000000000000000000000000000000000815260040161237f90612e31565b60405180910390fd5b6001600260003373ffffffffffffffffffffffffffffffffffffffff1673ffffffffffffffffffffffffffffffffffffffff168152602001908152602001600020541461240a576040517f08c379a000000000000000000000000000000000000000000000000000000000815260040161240190612e9d565b60405180910390fd5b600a60008373ffffffffffffffffffffffffffffffffffffffff1673ffffffffffffffffffffffffffffffffffffffff168152602001908152602001600020549050919050565b600060149054906101000a900460ff166124a0576040517f08c379a000000000000000000000000000000000000000000000000000000000815260040161249790612e31565b60405180910390fd5b6001600260003373ffffffffffffffffffffffffffffffffffffffff1673ffffffffffffffffffffffffffffffffffffffff1681526020019081526020016000205414612522576040517f08c379a000000000000000000000000000000000000000000000000000000000815260040161251990612e9d565b60405180910390fd5b600a60008273ffffffffffffffffffffffffffffffffffffffff1673ffffffffffffffffffffffffffffffffffffffff1681526020019081526020016000206000905550565b60008060149054906101000a900460ff166125b8576040517f08c379a00000000000000000000000000000000000000000000000000000000081526004016125af90612e31565b60405180910390fd5b6001600260003373ffffffffffffffffffffffffffffffffffffffff1673ffffffffffffffffffffffffffffffffffffffff168152602001908152602001600020541461263a576040517f08c379a000000000000000000000000000000000000000000000000000000000815260040161263190612e9d565b60405180910390fd5b6000838360405160200161264f929190612fee565b604051602081830303815290604052805190602001209050600460008673ffffffffffffffffffffffffffffffffffffffff1673ffffffffffffffffffffffffffffffffffffffff1681526020019081526020016000206000828152602001908152602001600020600101549150509392505050565b600060149054906101000a900460ff16612714576040517f08c379a000000000000000000000000000000000000000000000000000000000815260040161270b90612e31565b60405180910390fd5b80600560008473ffffffffffffffffffffffffffffffffffffffff1673ffffffffffffffffffffffffffffffffffffffff16815260200190815260200160002060000160016101000a81548160ff0219169083151502179055505050565b600081836127809190613045565b905092915050565b600081836127969190613079565b905092915050565b6000604051905090565b600080fd5b600080fd5b60008115159050919050565b6127c7816127b2565b81146127d257600080fd5b50565b6000813590506127e4816127be565b92915050565b600060208284031215612800576127ff6127a8565b5b600061280e848285016127d5565b91505092915050565b600073ffffffffffffffffffffffffffffffffffffffff82169050919050565b600061284282612817565b9050919050565b61285281612837565b811461285d57600080fd5b50565b60008135905061286f81612849565b92915050565b60006020828403121561288b5761288a6127a8565b5b600061289984828501612860565b91505092915050565b6128ab816127b2565b82525050565b60006020820190506128c660008301846128a2565b92915050565b600081519050919050565b600082825260208201905092915050565b6000819050602082019050919050565b61290181612837565b82525050565b600061291383836128f8565b60208301905092915050565b6000602082019050919050565b6000612937826128cc565b61294181856128d7565b935061294c836128e8565b8060005b8381101561297d5781516129648882612907565b975061296f8361291f565b925050600181019050612950565b5085935050505092915050565b600060208201905081810360008301526129a4818461292c565b905092915050565b600080fd5b600080fd5b6000601f19601f8301169050919050565b7f4e487b7100000000000000000000000000000000000000000000000000000000600052604160045260246000fd5b6129ff826129b6565b810181811067ffffffffffffffff82111715612a1e57612a1d6129c7565b5b80604052505050565b6000612a3161279e565b9050612a3d82826129f6565b919050565b600067ffffffffffffffff821115612a5d57612a5c6129c7565b5b612a66826129b6565b9050602081019050919050565b82818337600083830152505050565b6000612a95612a9084612a42565b612a27565b905082815260208101848484011115612ab157612ab06129b1565b5b612abc848285612a73565b509392505050565b600082601f830112612ad957612ad86129ac565b5b8135612ae9848260208601612a82565b91505092915050565b6000819050919050565b612b0581612af2565b8114612b1057600080fd5b50565b600081359050612b2281612afc565b92915050565b600080600060608486031215612b4157612b406127a8565b5b6000612b4f86828701612860565b935050602084013567ffffffffffffffff811115612b7057612b6f6127ad565b5b612b7c86828701612ac4565b9250506040612b8d86828701612b13565b9150509250925092565b612ba081612af2565b82525050565b6000602082019050612bbb6000830184612b97565b92915050565b60008060008060808587031215612bdb57612bda6127a8565b5b6000612be987828801612860565b945050602085013567ffffffffffffffff811115612c0a57612c096127ad565b5b612c1687828801612ac4565b9350506040612c2787828801612b13565b9250506060612c3887828801612b13565b91505092959194509250565b60008060408385031215612c5b57612c5a6127a8565b5b6000612c6985828601612860565b9250506020612c7a85828601612b13565b9150509250929050565b600080600080600060a08688031215612ca057612c9f6127a8565b5b6000612cae88828901612860565b955050602086013567ffffffffffffffff811115612ccf57612cce6127ad565b5b612cdb88828901612ac4565b9450506040612cec88828901612860565b9350506060612cfd88828901612b13565b9250506080612d0e88828901612b13565b9150509295509295909350565b60008060408385031215612d3257612d316127a8565b5b6000612d4085828601612860565b9250506020612d51858286016127d5565b9150509250929050565b600080600060608486031215612d7457612d736127a8565b5b6000612d8286828701612860565b9350506020612d9386828701612860565b9250506040612da4868287016127d5565b9150509250925092565b600082825260208201905092915050565b7f436f6e74726163742069732063757272656e746c79206e6f74206f706572617460008201527f696f6e616c000000000000000000000000000000000000000000000000000000602082015250565b6000612e1b602583612dae565b9150612e2682612dbf565b604082019050919050565b60006020820190508181036000830152612e4a81612e0e565b9050919050565b7f43616c6c6572206973206e6f7420617574686f72697a65640000000000000000600082015250565b6000612e87601883612dae565b9150612e9282612e51565b602082019050919050565b60006020820190508181036000830152612eb681612e7a565b9050919050565b7f43616c6c6572206973206e6f7420636f6e7472616374206f776e657200000000600082015250565b6000612ef3601c83612dae565b9150612efe82612ebd565b602082019050919050565b60006020820190508181036000830152612f2281612ee6565b9050919050565b612f3281612837565b82525050565b6000602082019050612f4d6000830184612f29565b92915050565b600081519050919050565b600081905092915050565b60005b83811015612f87578082015181840152602081019050612f6c565b83811115612f96576000848401525b50505050565b6000612fa782612f53565b612fb18185612f5e565b9350612fc1818560208601612f69565b80840191505092915050565b6000819050919050565b612fe8612fe382612af2565b612fcd565b82525050565b6000612ffa8285612f9c565b91506130068284612fd7565b6020820191508190509392505050565b7f4e487b7100000000000000000000000000000000000000000000000000000000600052601160045260246000fd5b600061305082612af2565b915061305b83612af2565b92508282101561306e5761306d613016565b5b828203905092915050565b600061308482612af2565b915061308f83612af2565b9250827fffffffffffffffffffffffffffffffffffffffffffffffffffffffffffffffff038211156130c4576130c3613016565b5b82820190509291505056fea2646970667358221220e6f095ac6e15e40afe390f233afa6aea5fec0d8df6e685414acbb1dc69686b4264736f6c634300080a0033",
  "immutableReferences": {},
  "source": "// SPDX-License-Identifier: MIT\npragma solidity >=0.4.22 <0.9.0;\n\nimport \"@openzeppelin/contracts/utils/math/SafeMath.sol\";\n\ncontract FlightSuretyData {\n    using SafeMath for uint256;\n\n    /********************************************************************************************/\n    /*                                       DATA VARIABLES                                     */\n    /********************************************************************************************/\n\n    address private contractOwner;                                      // Account used to deploy contract\n    bool private operational = true;                                    // Blocks all state changes throughout the contract if false\n\n    address[] multiCalls = new address[](0);\n\n    struct Airline {\n        bool registered;\n        bool operational;\n    }\n\n    struct AirlineRegistrationRequest {\n        string name;\n        address airlineAddress;\n    }\n\n    struct flightInfo{\n        bool isRegistered; \n        uint256 totalPremium;\n        uint256 statusCode;\n    }\n\n    struct InsureeInfo{\n        uint256 insuranceAmount;\n        uint256 payout;\n    }\n\n    struct Voter {\n        address[] airlineVoters;\n        mapping(address => bool) voteResults;\n    }\n\n    mapping(address => uint256) private authorizedCaller;\n    \n    mapping(address => bytes32 []) flightList; \n    mapping(address => mapping(bytes32 => flightInfo)) flights;\n    mapping(address => Airline) airlines;\n    mapping(address => uint256) funding;\n    mapping(address => Voter) voters;\n    mapping(address => mapping(bytes32 => address [])) insureeList;   //store the passenger addresses for each flight\n    mapping(address => mapping(bytes32 => mapping(address => InsureeInfo))) insurees;    //For each flight, it keeps track of premium and payout for each insuree\n    mapping(address => uint) voteCount;\n    mapping(address => uint256) accountCredit;   //keep track of each passenger's account balance\n    \n    /********************************************************************************************/\n    /*                                       EVENT DEFINITIONS                                  */\n    /********************************************************************************************/\n\n    event AuthorizedContract(address authContract);\n    event DeAuthorizedContract(address authContract);\n\n    /**\n    * @dev Constructor\n    *      The deploying account becomes contractOwner\n    */\n    constructor\n                                (                                    \n                                )  \n    {\n        contractOwner = msg.sender;\n        \n        airlines[msg.sender] = Airline({\n            registered: true,\n            operational: false\n        }); \n\n        multiCalls.push(msg.sender);\n    }\n\n    /********************************************************************************************/\n    /*                                       FUNCTION MODIFIERS                                 */\n    /********************************************************************************************/\n\n    // Modifiers help avoid duplication of code. They are typically used to validate something\n    // before a function is allowed to be executed.\n\n    /**\n    * @dev Modifier that requires the \"operational\" boolean variable to be \"true\"\n    *      This is used on all state changing functions to pause the contract in \n    *      the event there is an issue that needs to be fixed\n    */\n    modifier requireIsOperational() \n    {\n        require(operational, \"Contract is currently not operational\");\n        _;  // All modifiers require an \"_\" which indicates where the function body will be added\n    }\n\n    /**\n    * @dev Modifier that requires the \"ContractOwner\" account to be the function caller\n    */\n    modifier requireContractOwner()\n    {\n        require(msg.sender == contractOwner, \"Caller is not contract owner\");\n        _;\n    }\n\n    modifier isCallerAuthorized()\n    {\n        require(authorizedCaller[msg.sender] == 1, \"Caller is not authorized\");\n        _;\n    }\n\n    /********************************************************************************************/\n    /*                                       UTILITY FUNCTIONS                                  */\n    /********************************************************************************************/\n\n    /**\n    * @dev Get operating status of contract\n    *\n    * @return A bool that is the current operating status\n    */      \n    function isOperational() \n                            public \n                            view \n                            returns(bool) \n    {\n        return operational;\n    }\n\n    /**\n    * @dev Sets contract operations on/off\n    *\n    * When operational mode is disabled, all write transactions except for this one will fail\n    */    \n    function setOperatingStatus\n                            (\n                                bool mode\n                            ) \n                            external\n                            requireContractOwner \n    {\n        operational = mode;\n    }\n\n    function authorizeCaller(address contractAddress) external\n        requireContractOwner\n    {\n        authorizedCaller[contractAddress] = 1;\n        emit AuthorizedContract(contractAddress);\n    }\n\n\n    function deauthorizeContract(address contractAddress) external\n        requireContractOwner\n    {\n        delete authorizedCaller[contractAddress];\n        emit DeAuthorizedContract(contractAddress);\n    }\n\n    function getAccountCredit\n                                (\n                                    address account\n                                )\n                                external\n                                view\n                                requireIsOperational\n                                isCallerAuthorized\n                                returns(uint256)\n    {\n        return accountCredit[account];\n    }\n\n    /**\n    * @dev \n    */\n    function payToInsuree\n                            (\n                                address account,\n                                uint256 amount\n                            )\n                            external\n                            payable\n                            requireIsOperational\n                            isCallerAuthorized\n    {\n        // Before the payment, substract to the credit of the insuree\n        accountCredit[account] = accountCredit[account].sub(amount);\n\n        // Transfer the amount\n        payable(account).transfer(amount);\n    }\n\n    /********************************************************************************************/\n    /*                                     SMART CONTRACT FUNCTIONS                             */\n    /********************************************************************************************/\n\n   /**\n    * @dev \n    */\n    function getRegisteredAirlines\n                                ()\n                                external\n                                view\n                                requireIsOperational\n                                isCallerAuthorized\n                                returns(uint256)\n    {\n        return multiCalls.length;\n    }\n\n    /**\n    * @dev \n    *      \n    *\n    */\n    function getRegisteredAirlinesAccounts\n                                        ()\n                                        external\n                                        view\n                                        requireIsOperational\n                                        isCallerAuthorized\n                                        returns(address[] memory)\n    {\n        return multiCalls;\n    }\n\n\n    /**\n     * @dev Returns if the airline is registered or not by the address\n     * @return bool \n     */\n    function getAirlineRegistrationStatus\n                                         (   \n                                            address airlineAddress\n                                         )\n                                         external\n                                         view\n                                         requireIsOperational\n                                         isCallerAuthorized\n                                         returns(bool)\n    {\n        return airlines[airlineAddress].registered;\n    }\n\n    /**\n     * @dev Returns if the airline is funded or not by the address\n     * @return bool \n     */\n     function getAirlineOperationalStatus\n                                        (\n                                            address airlineAddress\n                                        )\n                                        external\n                                        view\n                                        requireIsOperational\n                                        isCallerAuthorized\n                                        returns(bool)\n    {\n        return airlines[airlineAddress].operational;\n    }\n\n    /**\n     * @dev Sets the operational status to the airline, either to true or false\n     */\n     function setAirlineOperationalStatus\n                                        (\n                                            address airlineAddress,\n                                            bool status\n                                        )\n                                        private\n                                        requireIsOperational\n    {\n        airlines[airlineAddress].operational = status;\n    }\n\n   /**\n    * @dev Add an airline to the registration queue\n    *      Can only be called from FlightSuretyApp contract\n    *\n    */   \n    function registerAirline\n                            (\n                                address airlineAddress,\n                                bool fundComplete   \n                            )\n                            external\n    {\n        airlines[airlineAddress] = Airline({\n            registered: true,\n            operational: fundComplete\n        });\n\n        multiCalls.push(airlineAddress);\n    }\n\n   /**\n    * @dev Initial funding for the insurance. Unless there are too many delayed flights\n    *      resulting in insurance payouts, the contract should be self-sustaining\n    *\n    */  \n    function fund\n                (\n                    address account     \n                )\n                payable\n                public\n                requireIsOperational\n                isCallerAuthorized\n    {\n        funding[account] = msg.value;\n        setAirlineOperationalStatus(account, true);\n    }\n\n   /**\n    * @dev Initial funding for the insurance. Unless there are too many delayed flights\n    *      resulting in insurance payouts, the contract should be self-sustaining\n    */  \n    function getFunding\n                (\n                    address account     \n                )\n                public\n                view\n                requireIsOperational\n                returns(uint256)\n    {\n        uint256 funds = funding[account];\n        return funds;\n    }\n\n   /**\n    * @dev Add a flight to the airline\n    *      \n    *\n    */\n    function registerFlight\n                            (\n                                address airlineAddress,\n                                string memory flight,\n                                uint256 timestamp\n                            )\n                            requireIsOperational\n                            isCallerAuthorized\n                            external\n    {\n        bytes32 key = keccak256(abi.encodePacked(flight, timestamp));\n        flightList[airlineAddress].push(key);\n        flights[airlineAddress][key].isRegistered = true;\n        flights[airlineAddress][key].totalPremium = 0;\n        flights[airlineAddress][key].statusCode = 0;\n    }\n\n   /**\n    * @dev Gets the state of a filight, either if it is \n    *      registered or not.\n    *        \n    *    \n    */\n    function getFlightStatus\n                            (\n                                address airline,\n                                string memory flightNumber,\n                                uint256 timestamp\n                            )\n                            external\n                            view\n                            requireIsOperational\n                            isCallerAuthorized\n                            returns(bool)\n    {\n        bytes32 key = keccak256(abi.encodePacked(flightNumber, timestamp));\n        bool result = flights[airline][key].isRegistered;\n        return result;\n    }\n\n   /**\n    * @dev \n    *        \n    *    \n    */\n    function setFlightStatusCode\n                                (\n                                    address airline,\n                                    string memory flight,\n                                    uint256 timestamp,\n                                    uint256 code\n                                )\n                                external\n                                requireIsOperational\n                                isCallerAuthorized\n    {\n        bytes32 key = keccak256(abi.encodePacked(flight, timestamp));\n        flights[airline][key].statusCode = code;\n    }\n\n\n   /**\n    * @dev \n    *        \n    *    \n    */\n    function getFlightStatusCode\n                                (\n                                    address airline,\n                                    string memory flight,\n                                    uint256 timestamp\n                                )\n                                external\n                                view\n                                requireIsOperational\n                                isCallerAuthorized\n                                returns(uint256)\n    {\n        bytes32 key = keccak256(abi.encodePacked(flight, timestamp));\n        uint statusCode = flights[airline][key].statusCode;\n        return statusCode;\n    }\n\n                            \n\n\n   /**\n    * @dev Buy insurance for a flight\n    *      Increment premiums: Premiums are the amount you pay for your insurance every month\n    *\n    */   \n    function buy\n                            (\n                                address airline,\n                                string memory flight,\n                                address insuree,\n                                uint256 amount,\n                                uint256 timestamp                             \n                            )\n                            external\n                            payable\n                            requireIsOperational\n                            isCallerAuthorized\n    {\n        // Increment the total premium collected for a flight\n        bytes32 key = keccak256(abi.encodePacked(flight, timestamp));\n        flights[airline][key].totalPremium = flights[airline][key].totalPremium.add(amount);\n\n        // Add the new insuree to the insuree list \n        insureeList[airline][key].push(insuree);\n        \n        insurees[airline][key][insuree] = InsureeInfo({ insuranceAmount: amount, payout: 0 }); \n    }\n\n   /**\n    * @dev \n    *      \n    *\n    */   \n    function getFlightPremium\n                            (\n                                address airline,\n                                string memory flight,\n                                uint256 timestamp\n                            )\n                            external\n                            view\n                            requireIsOperational\n                            isCallerAuthorized\n                            returns(uint256)\n    {\n        bytes32 key = keccak256(abi.encodePacked(flight, timestamp));\n        return flights[airline][key].totalPremium;\n    }\n\n    /**\n     *  @dev Amount of voters\n    */\n    function getVoter\n                    (\n                        address account\n                    )\n                    external\n                    view\n                    requireIsOperational\n                    isCallerAuthorized\n                    returns(address[] memory)\n    {\n        return voters[account].airlineVoters;\n    }\n\n//   struct Voter {\n//         address[] airlineVoters;\n//         mapping(address => bool) voteResults;\n//     }\n//     mapping(address => Voter) voters;\n\n    /**\n     *  @dev Amount of voters\n    */    \n    function getVotersLength\n                            (\n                                address account\n                            )\n                            external\n                            view\n                            requireIsOperational\n                            isCallerAuthorized\n                            returns(uint256)\n    {\n        return voters[account].airlineVoters.length;\n    }\n\n    /**\n     *  @dev Amount of votes that an airline has\n    */    \n    function getVotesQty\n                            (\n                                address account\n                            )\n                            external\n                            view\n                            requireIsOperational\n                            isCallerAuthorized\n                            returns(uint)\n    {\n        return voteCount[account];\n    }\n\n    /**\n    *  @dev Adds information of the vote, like the voter, \n    *       the result and the airline being voted \n    */\n    function addVoteInformation\n                                (\n                                    address enteringAirline,\n                                    address registeredAirline,\n                                    bool vote\n                                )\n                            external\n                            requireIsOperational\n                            isCallerAuthorized\n    {\n        voters[enteringAirline].airlineVoters.push(registeredAirline);\n        voters[enteringAirline].voteResults[registeredAirline] = vote;\n    }\n\n    /**\n     *  @dev Adds a new vote to the airline\n    */\n    function addVoteToAirline\n                            (\n                                address enteringAirline,\n                                uint newVote\n                            )\n                            external\n                            requireIsOperational\n                            isCallerAuthorized\n    {\n        voteCount[enteringAirline] = voteCount[enteringAirline].add(newVote);\n    }\n\n    /**\n     *  @dev Deletes the vote counter\n    */\n    function deleteVoteCounter\n                            (\n                                address airline\n                            )\n                            external\n                            requireIsOperational\n                            isCallerAuthorized\n    {\n        delete voteCount[airline];\n    }\n\n\n    /**\n     *  @dev Credits payouts to insurees\n    */\n    // function creditInsurees\n    //                             (\n    //                             )\n    //                             external\n    //                             pure\n    // {\n    // }\n\n    /**\n     *  @dev Transfers eligible payout funds to insuree\n     *\n    */\n    // function pay\n    //                         (\n    //                         )\n    //                         external\n    //                         pure\n    // {\n    // }\n\n   /**\n    * @dev Initial funding for the insurance. Unless there are too many delayed flights\n    *      resulting in insurance payouts, the contract should be self-sustaining\n    *\n    */   \n    // function fund\n    //                         (   \n    //                         )\n    //                         public\n    //                         payable\n    // {\n    // }\n\n    // function getFlightKey\n    //                     (\n    //                         address airline,\n    //                         string memory flight,\n    //                         uint256 timestamp\n    //                     )\n    //                     pure\n    //                     internal\n    //                     returns(bytes32) \n    // {\n    //     return keccak256(abi.encodePacked(airline, flight, timestamp));\n    // }\n\n\n    /**\n    * @dev According to solidity version 0.6.0, we have a breaking change. The unnamed function commonly referred \n    *      to as fallback function was split up into a new fallback function that is defined using the fallback \n    *      keyword and a receive ether function defined using the receive keyword. If present, the receive ether \n    *      function is called whenever the call data is empty (whether or not ether is received). This function is \n    *      implicitly payable. The new fallback function is called when no other function matches (if the receive \n    *      ether function does not exist then this includes calls with empty call data). You can make this function \n    *      payable or not. If it is not payable then transactions not matching any other function which send value will revert. \n    *      You should only need to implement the new fallback function if you are following an upgrade or proxy pattern.\n    */\n    receive()\n                external\n                payable\n    {\n    }\n\n    /**\n    * @dev Fallback function for funding smart contract.\n    *\n    */\n    fallback() \n                            external \n                            payable \n    {\n        fund(msg.sender);\n    }\n}",
  "sourcePath": "/Users/juani/code/courses/udacity_blockchain_developer/flight-surety/contracts/FlightSuretyData.sol",
  "compiler": {
    "name": "solc",
    "version": "0.8.10+commit.fc410830.Emscripten.clang"
  },
  "schemaVersion": "3.4.11",
  "updatedAt": "2023-03-01T19:53:56.966Z",
  "networkType": "ethereum",
  "devdoc": {
    "kind": "dev",
    "methods": {
      "addVoteInformation(address,address,bool)": {
        "details": "Adds information of the vote, like the voter,        the result and the airline being voted "
      },
      "addVoteToAirline(address,uint256)": {
        "details": "Adds a new vote to the airline"
      },
      "buy(address,string,address,uint256,uint256)": {
        "details": "Buy insurance for a flight      Increment premiums: Premiums are the amount you pay for your insurance every month"
      },
      "constructor": {
        "details": "Constructor      The deploying account becomes contractOwner"
      },
      "deleteVoteCounter(address)": {
        "details": "Deletes the vote counter"
      },
      "fund(address)": {
        "details": "Initial funding for the insurance. Unless there are too many delayed flights      resulting in insurance payouts, the contract should be self-sustaining"
      },
      "getAirlineOperationalStatus(address)": {
        "details": "Returns if the airline is funded or not by the address",
        "returns": {
          "_0": "bool "
        }
      },
      "getAirlineRegistrationStatus(address)": {
        "details": "Returns if the airline is registered or not by the address",
        "returns": {
          "_0": "bool "
        }
      },
      "getFlightPremium(address,string,uint256)": {
        "details": "      "
      },
      "getFlightStatus(address,string,uint256)": {
        "details": "Gets the state of a filight, either if it is       registered or not.            "
      },
      "getFlightStatusCode(address,string,uint256)": {
        "details": "            "
      },
      "getFunding(address)": {
        "details": "Initial funding for the insurance. Unless there are too many delayed flights      resulting in insurance payouts, the contract should be self-sustaining"
      },
      "getRegisteredAirlinesAccounts()": {
        "details": "      "
      },
      "getVoter(address)": {
        "details": "Amount of voters"
      },
      "getVotersLength(address)": {
        "details": "Amount of voters"
      },
      "getVotesQty(address)": {
        "details": "Amount of votes that an airline has"
      },
      "isOperational()": {
        "details": "Get operating status of contract",
        "returns": {
          "_0": "A bool that is the current operating status"
        }
      },
      "registerAirline(address,bool)": {
        "details": "Add an airline to the registration queue      Can only be called from FlightSuretyApp contract"
      },
      "registerFlight(address,string,uint256)": {
        "details": "Add a flight to the airline      "
      },
      "setFlightStatusCode(address,string,uint256,uint256)": {
        "details": "            "
      },
      "setOperatingStatus(bool)": {
        "details": "Sets contract operations on/off When operational mode is disabled, all write transactions except for this one will fail"
      }
    },
    "version": 1
  },
  "userdoc": {
    "kind": "user",
    "methods": {},
    "version": 1
  }
}