{
  "contractName": "FlightSuretyData",
  "abi": [
    {
      "inputs": [],
      "stateMutability": "nonpayable",
      "type": "constructor"
    },
    {
      "anonymous": false,
      "inputs": [
        {
          "indexed": false,
          "internalType": "address",
          "name": "authContract",
          "type": "address"
        }
      ],
      "name": "AuthorizedContract",
      "type": "event"
    },
    {
      "anonymous": false,
      "inputs": [
        {
          "indexed": false,
          "internalType": "address",
          "name": "authContract",
          "type": "address"
        }
      ],
      "name": "DeAuthorizedContract",
      "type": "event"
    },
    {
      "stateMutability": "payable",
      "type": "fallback",
      "payable": true
    },
    {
      "inputs": [],
      "name": "isOperational",
      "outputs": [
        {
          "internalType": "bool",
          "name": "",
          "type": "bool"
        }
      ],
      "stateMutability": "view",
      "type": "function",
      "constant": true
    },
    {
      "inputs": [
        {
          "internalType": "bool",
          "name": "mode",
          "type": "bool"
        }
      ],
      "name": "setOperatingStatus",
      "outputs": [],
      "stateMutability": "nonpayable",
      "type": "function"
    },
    {
      "inputs": [
        {
          "internalType": "address",
          "name": "contractAddress",
          "type": "address"
        }
      ],
      "name": "authorizeCaller",
      "outputs": [],
      "stateMutability": "nonpayable",
      "type": "function"
    },
    {
      "inputs": [
        {
          "internalType": "address",
          "name": "contractAddress",
          "type": "address"
        }
      ],
      "name": "deauthorizeContract",
      "outputs": [],
      "stateMutability": "nonpayable",
      "type": "function"
    },
    {
      "inputs": [],
      "name": "getRegisteredAirlines",
      "outputs": [
        {
          "internalType": "uint256",
          "name": "",
          "type": "uint256"
        }
      ],
      "stateMutability": "view",
      "type": "function",
      "constant": true
    },
    {
      "inputs": [],
      "name": "getRegisteredAirlinesAccounts",
      "outputs": [
        {
          "internalType": "address[]",
          "name": "",
          "type": "address[]"
        }
      ],
      "stateMutability": "view",
      "type": "function",
      "constant": true
    },
    {
      "inputs": [
        {
          "internalType": "address",
          "name": "airlineAddress",
          "type": "address"
        }
      ],
      "name": "getAirlineRegistrationStatus",
      "outputs": [
        {
          "internalType": "bool",
          "name": "",
          "type": "bool"
        }
      ],
      "stateMutability": "view",
      "type": "function",
      "constant": true
    },
    {
      "inputs": [
        {
          "internalType": "address",
          "name": "airlineAddress",
          "type": "address"
        }
      ],
      "name": "getAirlineOperationalStatus",
      "outputs": [
        {
          "internalType": "bool",
          "name": "",
          "type": "bool"
        }
      ],
      "stateMutability": "view",
      "type": "function",
      "constant": true
    },
    {
      "inputs": [
        {
          "internalType": "address",
          "name": "airlineAddress",
          "type": "address"
        },
        {
          "internalType": "bool",
          "name": "fundComplete",
          "type": "bool"
        }
      ],
      "name": "registerAirline",
      "outputs": [],
      "stateMutability": "nonpayable",
      "type": "function"
    },
    {
      "inputs": [
        {
          "internalType": "address",
          "name": "account",
          "type": "address"
        }
      ],
      "name": "fund",
      "outputs": [],
      "stateMutability": "payable",
      "type": "function",
      "payable": true
    },
    {
      "inputs": [
        {
          "internalType": "address",
          "name": "account",
          "type": "address"
        }
      ],
      "name": "getFunding",
      "outputs": [
        {
          "internalType": "uint256",
          "name": "",
          "type": "uint256"
        }
      ],
      "stateMutability": "view",
      "type": "function",
      "constant": true
    },
    {
      "inputs": [
        {
          "internalType": "address",
          "name": "airlineAddress",
          "type": "address"
        },
        {
          "internalType": "string",
          "name": "flight",
          "type": "string"
        },
        {
          "internalType": "uint256",
          "name": "timestamp",
          "type": "uint256"
        }
      ],
      "name": "registerFlight",
      "outputs": [],
      "stateMutability": "nonpayable",
      "type": "function"
    },
    {
      "inputs": [
        {
          "internalType": "address",
          "name": "airline",
          "type": "address"
        },
        {
          "internalType": "string",
          "name": "flightNumber",
          "type": "string"
        },
        {
          "internalType": "uint256",
          "name": "timestamp",
          "type": "uint256"
        }
      ],
      "name": "getFlightStatus",
      "outputs": [
        {
          "internalType": "bool",
          "name": "",
          "type": "bool"
        }
      ],
      "stateMutability": "view",
      "type": "function",
      "constant": true
    },
    {
      "inputs": [
        {
          "internalType": "address",
          "name": "airline",
          "type": "address"
        },
        {
          "internalType": "string",
          "name": "flight",
          "type": "string"
        },
        {
          "internalType": "uint256",
          "name": "timestamp",
          "type": "uint256"
        },
        {
          "internalType": "uint256",
          "name": "code",
          "type": "uint256"
        }
      ],
      "name": "setFlightStatusCode",
      "outputs": [],
      "stateMutability": "nonpayable",
      "type": "function"
    },
    {
      "inputs": [
        {
          "internalType": "address",
          "name": "airline",
          "type": "address"
        },
        {
          "internalType": "string",
          "name": "flight",
          "type": "string"
        },
        {
          "internalType": "uint256",
          "name": "timestamp",
          "type": "uint256"
        }
      ],
      "name": "getFlightStatusCode",
      "outputs": [
        {
          "internalType": "uint256",
          "name": "",
          "type": "uint256"
        }
      ],
      "stateMutability": "view",
      "type": "function",
      "constant": true
    },
    {
      "inputs": [
        {
          "internalType": "address",
          "name": "airline",
          "type": "address"
        },
        {
          "internalType": "string",
          "name": "flight",
          "type": "string"
        },
        {
          "internalType": "address",
          "name": "insuree",
          "type": "address"
        },
        {
          "internalType": "uint256",
          "name": "amount",
          "type": "uint256"
        },
        {
          "internalType": "uint256",
          "name": "timestamp",
          "type": "uint256"
        }
      ],
      "name": "buy",
      "outputs": [],
      "stateMutability": "payable",
      "type": "function",
      "payable": true
    },
    {
      "inputs": [
        {
          "internalType": "address",
          "name": "airline",
          "type": "address"
        },
        {
          "internalType": "string",
          "name": "flight",
          "type": "string"
        },
        {
          "internalType": "uint256",
          "name": "timestamp",
          "type": "uint256"
        }
      ],
      "name": "getFlightPremium",
      "outputs": [
        {
          "internalType": "uint256",
          "name": "",
          "type": "uint256"
        }
      ],
      "stateMutability": "view",
      "type": "function",
      "constant": true
    },
    {
      "inputs": [
        {
          "internalType": "address",
          "name": "account",
          "type": "address"
        }
      ],
      "name": "getVoter",
      "outputs": [
        {
          "internalType": "address[]",
          "name": "",
          "type": "address[]"
        }
      ],
      "stateMutability": "view",
      "type": "function",
      "constant": true
    },
    {
      "inputs": [
        {
          "internalType": "address",
          "name": "account",
          "type": "address"
        }
      ],
      "name": "getVotersLength",
      "outputs": [
        {
          "internalType": "uint256",
          "name": "",
          "type": "uint256"
        }
      ],
      "stateMutability": "view",
      "type": "function",
      "constant": true
    },
    {
      "inputs": [
        {
          "internalType": "address",
          "name": "account",
          "type": "address"
        }
      ],
      "name": "getVotesQty",
      "outputs": [
        {
          "internalType": "uint256",
          "name": "",
          "type": "uint256"
        }
      ],
      "stateMutability": "view",
      "type": "function",
      "constant": true
    },
    {
      "inputs": [
        {
          "internalType": "address",
          "name": "enteringAirline",
          "type": "address"
        },
        {
          "internalType": "address",
          "name": "registeredAirline",
          "type": "address"
        },
        {
          "internalType": "bool",
          "name": "vote",
          "type": "bool"
        }
      ],
      "name": "addVoteInformation",
      "outputs": [],
      "stateMutability": "nonpayable",
      "type": "function"
    },
    {
      "inputs": [
        {
          "internalType": "address",
          "name": "enteringAirline",
          "type": "address"
        },
        {
          "internalType": "uint256",
          "name": "newVote",
          "type": "uint256"
        }
      ],
      "name": "addVoteToAirline",
      "outputs": [],
      "stateMutability": "nonpayable",
      "type": "function"
    },
    {
      "inputs": [
        {
          "internalType": "address",
          "name": "airline",
          "type": "address"
        }
      ],
      "name": "deleteVoteCounter",
      "outputs": [],
      "stateMutability": "nonpayable",
      "type": "function"
    }
  ],
  "bytecode": "0x60806040526001600060146101000a81548160ff021916908315150217905550600067ffffffffffffffff8111156200003d576200003c62000287565b5b6040519080825280602002602001820160405280156200006c5781602001602082028036833780820191505090505b506001908051906020019062000084929190620001d9565b503480156200009257600080fd5b50336000806101000a81548173ffffffffffffffffffffffffffffffffffffffff021916908373ffffffffffffffffffffffffffffffffffffffff160217905550604051806040016040528060011515815260200160001515815250600560003373ffffffffffffffffffffffffffffffffffffffff1673ffffffffffffffffffffffffffffffffffffffff16815260200190815260200160002060008201518160000160006101000a81548160ff02191690831515021790555060208201518160000160016101000a81548160ff0219169083151502179055509050506001339080600181540180825580915050600190039060005260206000200160009091909190916101000a81548173ffffffffffffffffffffffffffffffffffffffff021916908373ffffffffffffffffffffffffffffffffffffffff160217905550620002b6565b82805482825590600052602060002090810192821562000255579160200282015b82811115620002545782518260006101000a81548173ffffffffffffffffffffffffffffffffffffffff021916908373ffffffffffffffffffffffffffffffffffffffff16021790555091602001919060010190620001fa565b5b50905062000264919062000268565b5090565b5b808211156200028357600081600090555060010162000269565b5090565b7f4e487b7100000000000000000000000000000000000000000000000000000000600052604160045260246000fd5b612d6c80620002c66000396000f3fe6080604052600436106101445760003560e01c80639de5f957116100b6578063c58ad5301161006f578063c58ad5301461046b578063cd905dff14610494578063d4f50f98146104bf578063d8c2705d146104fc578063de683bb214610539578063fe50b7a01461056257610145565b80639de5f95714610323578063a90d0dcc14610360578063ad0a4f321461039d578063b255380b146103da578063b4ca82b814610403578063c23bcf091461044057610145565b8063351ba61b11610108578063351ba61b146102265780633cc0be9c146102635780636e861c0e1461028c57806372bcd841146102b55780638c9f1afe146102de57806395386ae2146102fa57610145565b8063110466ed146101505780631eeb88581461017957806323024408146101b65780632c388d5d146101d2578063340288dc146101fb57610145565b5b61014e3361059f565b005b34801561015c57600080fd5b5061017760048036038101906101729190612485565b6106c2565b005b34801561018557600080fd5b506101a0600480360381019061019b9190612510565b61076d565b6040516101ad919061254c565b60405180910390f35b6101d060048036038101906101cb9190612510565b61059f565b005b3480156101de57600080fd5b506101f960048036038101906101f49190612510565b610896565b005b34801561020757600080fd5b506102106109a3565b60405161021d9190612625565b60405180910390f35b34801561023257600080fd5b5061024d600480360381019061024891906127c3565b610b02565b60405161025a9190612841565b60405180910390f35b34801561026f57600080fd5b5061028a600480360381019061028591906127c3565b610c65565b005b34801561029857600080fd5b506102b360048036038101906102ae9190612510565b610eed565b005b3480156102c157600080fd5b506102dc60048036038101906102d7919061285c565b610ff8565b005b6102f860048036038101906102f391906128df565b611155565b005b34801561030657600080fd5b50610321600480360381019061031c9190612976565b611483565b005b34801561032f57600080fd5b5061034a600480360381019061034591906127c3565b611586565b604051610357919061254c565b60405180910390f35b34801561036c57600080fd5b5061038760048036038101906103829190612510565b6116f6565b6040516103949190612841565b60405180910390f35b3480156103a957600080fd5b506103c460048036038101906103bf9190612510565b611815565b6040516103d19190612841565b60405180910390f35b3480156103e657600080fd5b5061040160048036038101906103fc91906129b6565b6118b2565b005b34801561040f57600080fd5b5061042a60048036038101906104259190612510565b611ac2565b604051610437919061254c565b60405180910390f35b34801561044c57600080fd5b50610455611beb565b6040516104629190612841565b60405180910390f35b34801561047757600080fd5b50610492600480360381019061048d9190612a09565b611cc8565b005b3480156104a057600080fd5b506104a9611e32565b6040516104b6919061254c565b60405180910390f35b3480156104cb57600080fd5b506104e660048036038101906104e19190612510565b611e48565b6040516104f39190612625565b60405180910390f35b34801561050857600080fd5b50610523600480360381019061051e9190612510565b611fe9565b6040516105309190612841565b60405180910390f35b34801561054557600080fd5b50610560600480360381019061055b9190612510565b612102565b005b34801561056e57600080fd5b50610589600480360381019061058491906127c3565b612219565b6040516105969190612841565b60405180910390f35b600060149054906101000a900460ff166105ee576040517f08c379a00000000000000000000000000000000000000000000000000000000081526004016105e590612acc565b60405180910390fd5b6001600260003373ffffffffffffffffffffffffffffffffffffffff1673ffffffffffffffffffffffffffffffffffffffff1681526020019081526020016000205414610670576040517f08c379a000000000000000000000000000000000000000000000000000000000815260040161066790612b38565b60405180910390fd5b34600660008373ffffffffffffffffffffffffffffffffffffffff1673ffffffffffffffffffffffffffffffffffffffff168152602001908152602001600020819055506106bf816001612376565b50565b60008054906101000a900473ffffffffffffffffffffffffffffffffffffffff1673ffffffffffffffffffffffffffffffffffffffff163373ffffffffffffffffffffffffffffffffffffffff1614610750576040517f08c379a000000000000000000000000000000000000000000000000000000000815260040161074790612ba4565b60405180910390fd5b80600060146101000a81548160ff02191690831515021790555050565b60008060149054906101000a900460ff166107bd576040517f08c379a00000000000000000000000000000000000000000000000000000000081526004016107b490612acc565b60405180910390fd5b6001600260003373ffffffffffffffffffffffffffffffffffffffff1673ffffffffffffffffffffffffffffffffffffffff168152602001908152602001600020541461083f576040517f08c379a000000000000000000000000000000000000000000000000000000000815260040161083690612b38565b60405180910390fd5b600560008373ffffffffffffffffffffffffffffffffffffffff1673ffffffffffffffffffffffffffffffffffffffff16815260200190815260200160002060000160009054906101000a900460ff169050919050565b60008054906101000a900473ffffffffffffffffffffffffffffffffffffffff1673ffffffffffffffffffffffffffffffffffffffff163373ffffffffffffffffffffffffffffffffffffffff1614610924576040517f08c379a000000000000000000000000000000000000000000000000000000000815260040161091b90612ba4565b60405180910390fd5b6001600260008373ffffffffffffffffffffffffffffffffffffffff1673ffffffffffffffffffffffffffffffffffffffff168152602001908152602001600020819055507f2c74592fddad593c2c4403101ce9b30930711ab87571268ddd1e1989ee1d7917816040516109989190612bd3565b60405180910390a150565b6060600060149054906101000a900460ff166109f4576040517f08c379a00000000000000000000000000000000000000000000000000000000081526004016109eb90612acc565b60405180910390fd5b6001600260003373ffffffffffffffffffffffffffffffffffffffff1673ffffffffffffffffffffffffffffffffffffffff1681526020019081526020016000205414610a76576040517f08c379a0000000000000000000000000000000000000000000000000000000008152600401610a6d90612b38565b60405180910390fd5b6001805480602002602001604051908101604052809291908181526020018280548015610af857602002820191906000526020600020905b8160009054906101000a900473ffffffffffffffffffffffffffffffffffffffff1673ffffffffffffffffffffffffffffffffffffffff1681526020019060010190808311610aae575b5050505050905090565b60008060149054906101000a900460ff16610b52576040517f08c379a0000000000000000000000000000000000000000000000000000000008152600401610b4990612acc565b60405180910390fd5b6001600260003373ffffffffffffffffffffffffffffffffffffffff1673ffffffffffffffffffffffffffffffffffffffff1681526020019081526020016000205414610bd4576040517f08c379a0000000000000000000000000000000000000000000000000000000008152600401610bcb90612b38565b60405180910390fd5b60008383604051602001610be9929190612c89565b6040516020818303038152906040528051906020012090506000600460008773ffffffffffffffffffffffffffffffffffffffff1673ffffffffffffffffffffffffffffffffffffffff168152602001908152602001600020600083815260200190815260200160002060020154905080925050509392505050565b600060149054906101000a900460ff16610cb4576040517f08c379a0000000000000000000000000000000000000000000000000000000008152600401610cab90612acc565b60405180910390fd5b6001600260003373ffffffffffffffffffffffffffffffffffffffff1673ffffffffffffffffffffffffffffffffffffffff1681526020019081526020016000205414610d36576040517f08c379a0000000000000000000000000000000000000000000000000000000008152600401610d2d90612b38565b60405180910390fd5b60008282604051602001610d4b929190612c89565b604051602081830303815290604052805190602001209050600360008573ffffffffffffffffffffffffffffffffffffffff1673ffffffffffffffffffffffffffffffffffffffff1681526020019081526020016000208190806001815401808255809150506001900390600052602060002001600090919091909150556001600460008673ffffffffffffffffffffffffffffffffffffffff1673ffffffffffffffffffffffffffffffffffffffff168152602001908152602001600020600083815260200190815260200160002060000160006101000a81548160ff0219169083151502179055506000600460008673ffffffffffffffffffffffffffffffffffffffff1673ffffffffffffffffffffffffffffffffffffffff1681526020019081526020016000206000838152602001908152602001600020600101819055506000600460008673ffffffffffffffffffffffffffffffffffffffff1673ffffffffffffffffffffffffffffffffffffffff16815260200190815260200160002060008381526020019081526020016000206002018190555050505050565b60008054906101000a900473ffffffffffffffffffffffffffffffffffffffff1673ffffffffffffffffffffffffffffffffffffffff163373ffffffffffffffffffffffffffffffffffffffff1614610f7b576040517f08c379a0000000000000000000000000000000000000000000000000000000008152600401610f7290612ba4565b60405180910390fd5b600260008273ffffffffffffffffffffffffffffffffffffffff1673ffffffffffffffffffffffffffffffffffffffff168152602001908152602001600020600090557fd5cf915bcf19ee4a2edf05f0add6e4520e02eda58f4b4a99387be2a7ae79cefb81604051610fed9190612bd3565b60405180910390a150565b600060149054906101000a900460ff16611047576040517f08c379a000000000000000000000000000000000000000000000000000000000815260040161103e90612acc565b60405180910390fd5b6001600260003373ffffffffffffffffffffffffffffffffffffffff1673ffffffffffffffffffffffffffffffffffffffff16815260200190815260200160002054146110c9576040517f08c379a00000000000000000000000000000000000000000000000000000000081526004016110c090612b38565b60405180910390fd5b600083836040516020016110de929190612c89565b60405160208183030381529060405280519060200120905081600460008773ffffffffffffffffffffffffffffffffffffffff1673ffffffffffffffffffffffffffffffffffffffff1681526020019081526020016000206000838152602001908152602001600020600201819055505050505050565b600060149054906101000a900460ff166111a4576040517f08c379a000000000000000000000000000000000000000000000000000000000815260040161119b90612acc565b60405180910390fd5b6001600260003373ffffffffffffffffffffffffffffffffffffffff1673ffffffffffffffffffffffffffffffffffffffff1681526020019081526020016000205414611226576040517f08c379a000000000000000000000000000000000000000000000000000000000815260040161121d90612b38565b60405180910390fd5b6000848260405160200161123b929190612c89565b6040516020818303038152906040528051906020012090506112b983600460008973ffffffffffffffffffffffffffffffffffffffff1673ffffffffffffffffffffffffffffffffffffffff16815260200190815260200160002060008481526020019081526020016000206001015461242390919063ffffffff16565b600460008873ffffffffffffffffffffffffffffffffffffffff1673ffffffffffffffffffffffffffffffffffffffff168152602001908152602001600020600083815260200190815260200160002060010181905550600860008773ffffffffffffffffffffffffffffffffffffffff1673ffffffffffffffffffffffffffffffffffffffff1681526020019081526020016000206000828152602001908152602001600020849080600181540180825580915050600190039060005260206000200160009091909190916101000a81548173ffffffffffffffffffffffffffffffffffffffff021916908373ffffffffffffffffffffffffffffffffffffffff16021790555060405180604001604052808481526020016000815250600960008873ffffffffffffffffffffffffffffffffffffffff1673ffffffffffffffffffffffffffffffffffffffff168152602001908152602001600020600083815260200190815260200160002060008673ffffffffffffffffffffffffffffffffffffffff1673ffffffffffffffffffffffffffffffffffffffff1681526020019081526020016000206000820151816000015560208201518160010155905050505050505050565b6040518060400160405280600115158152602001821515815250600560008473ffffffffffffffffffffffffffffffffffffffff1673ffffffffffffffffffffffffffffffffffffffff16815260200190815260200160002060008201518160000160006101000a81548160ff02191690831515021790555060208201518160000160016101000a81548160ff0219169083151502179055509050506001829080600181540180825580915050600190039060005260206000200160009091909190916101000a81548173ffffffffffffffffffffffffffffffffffffffff021916908373ffffffffffffffffffffffffffffffffffffffff1602179055505050565b60008060149054906101000a900460ff166115d6576040517f08c379a00000000000000000000000000000000000000000000000000000000081526004016115cd90612acc565b60405180910390fd5b6001600260003373ffffffffffffffffffffffffffffffffffffffff1673ffffffffffffffffffffffffffffffffffffffff1681526020019081526020016000205414611658576040517f08c379a000000000000000000000000000000000000000000000000000000000815260040161164f90612b38565b60405180910390fd5b6000838360405160200161166d929190612c89565b6040516020818303038152906040528051906020012090506000600460008773ffffffffffffffffffffffffffffffffffffffff1673ffffffffffffffffffffffffffffffffffffffff168152602001908152602001600020600083815260200190815260200160002060000160009054906101000a900460ff16905080925050509392505050565b60008060149054906101000a900460ff16611746576040517f08c379a000000000000000000000000000000000000000000000000000000000815260040161173d90612acc565b60405180910390fd5b6001600260003373ffffffffffffffffffffffffffffffffffffffff1673ffffffffffffffffffffffffffffffffffffffff16815260200190815260200160002054146117c8576040517f08c379a00000000000000000000000000000000000000000000000000000000081526004016117bf90612b38565b60405180910390fd5b600760008373ffffffffffffffffffffffffffffffffffffffff1673ffffffffffffffffffffffffffffffffffffffff168152602001908152602001600020600001805490509050919050565b60008060149054906101000a900460ff16611865576040517f08c379a000000000000000000000000000000000000000000000000000000000815260040161185c90612acc565b60405180910390fd5b6000600660008473ffffffffffffffffffffffffffffffffffffffff1673ffffffffffffffffffffffffffffffffffffffff16815260200190815260200160002054905080915050919050565b600060149054906101000a900460ff16611901576040517f08c379a00000000000000000000000000000000000000000000000000000000081526004016118f890612acc565b60405180910390fd5b6001600260003373ffffffffffffffffffffffffffffffffffffffff1673ffffffffffffffffffffffffffffffffffffffff1681526020019081526020016000205414611983576040517f08c379a000000000000000000000000000000000000000000000000000000000815260040161197a90612b38565b60405180910390fd5b600760008473ffffffffffffffffffffffffffffffffffffffff1673ffffffffffffffffffffffffffffffffffffffff168152602001908152602001600020600001829080600181540180825580915050600190039060005260206000200160009091909190916101000a81548173ffffffffffffffffffffffffffffffffffffffff021916908373ffffffffffffffffffffffffffffffffffffffff16021790555080600760008573ffffffffffffffffffffffffffffffffffffffff1673ffffffffffffffffffffffffffffffffffffffff16815260200190815260200160002060010160008473ffffffffffffffffffffffffffffffffffffffff1673ffffffffffffffffffffffffffffffffffffffff16815260200190815260200160002060006101000a81548160ff021916908315150217905550505050565b60008060149054906101000a900460ff16611b12576040517f08c379a0000000000000000000000000000000000000000000000000000000008152600401611b0990612acc565b60405180910390fd5b6001600260003373ffffffffffffffffffffffffffffffffffffffff1673ffffffffffffffffffffffffffffffffffffffff1681526020019081526020016000205414611b94576040517f08c379a0000000000000000000000000000000000000000000000000000000008152600401611b8b90612b38565b60405180910390fd5b600560008373ffffffffffffffffffffffffffffffffffffffff1673ffffffffffffffffffffffffffffffffffffffff16815260200190815260200160002060000160019054906101000a900460ff169050919050565b60008060149054906101000a900460ff16611c3b576040517f08c379a0000000000000000000000000000000000000000000000000000000008152600401611c3290612acc565b60405180910390fd5b6001600260003373ffffffffffffffffffffffffffffffffffffffff1673ffffffffffffffffffffffffffffffffffffffff1681526020019081526020016000205414611cbd576040517f08c379a0000000000000000000000000000000000000000000000000000000008152600401611cb490612b38565b60405180910390fd5b600180549050905090565b600060149054906101000a900460ff16611d17576040517f08c379a0000000000000000000000000000000000000000000000000000000008152600401611d0e90612acc565b60405180910390fd5b6001600260003373ffffffffffffffffffffffffffffffffffffffff1673ffffffffffffffffffffffffffffffffffffffff1681526020019081526020016000205414611d99576040517f08c379a0000000000000000000000000000000000000000000000000000000008152600401611d9090612b38565b60405180910390fd5b611deb81600a60008573ffffffffffffffffffffffffffffffffffffffff1673ffffffffffffffffffffffffffffffffffffffff1681526020019081526020016000205461242390919063ffffffff16565b600a60008473ffffffffffffffffffffffffffffffffffffffff1673ffffffffffffffffffffffffffffffffffffffff168152602001908152602001600020819055505050565b60008060149054906101000a900460ff16905090565b6060600060149054906101000a900460ff16611e99576040517f08c379a0000000000000000000000000000000000000000000000000000000008152600401611e9090612acc565b60405180910390fd5b6001600260003373ffffffffffffffffffffffffffffffffffffffff1673ffffffffffffffffffffffffffffffffffffffff1681526020019081526020016000205414611f1b576040517f08c379a0000000000000000000000000000000000000000000000000000000008152600401611f1290612b38565b60405180910390fd5b600760008373ffffffffffffffffffffffffffffffffffffffff1673ffffffffffffffffffffffffffffffffffffffff168152602001908152602001600020600001805480602002602001604051908101604052809291908181526020018280548015611fdd57602002820191906000526020600020905b8160009054906101000a900473ffffffffffffffffffffffffffffffffffffffff1673ffffffffffffffffffffffffffffffffffffffff1681526020019060010190808311611f93575b50505050509050919050565b60008060149054906101000a900460ff16612039576040517f08c379a000000000000000000000000000000000000000000000000000000000815260040161203090612acc565b60405180910390fd5b6001600260003373ffffffffffffffffffffffffffffffffffffffff1673ffffffffffffffffffffffffffffffffffffffff16815260200190815260200160002054146120bb576040517f08c379a00000000000000000000000000000000000000000000000000000000081526004016120b290612b38565b60405180910390fd5b600a60008373ffffffffffffffffffffffffffffffffffffffff1673ffffffffffffffffffffffffffffffffffffffff168152602001908152602001600020549050919050565b600060149054906101000a900460ff16612151576040517f08c379a000000000000000000000000000000000000000000000000000000000815260040161214890612acc565b60405180910390fd5b6001600260003373ffffffffffffffffffffffffffffffffffffffff1673ffffffffffffffffffffffffffffffffffffffff16815260200190815260200160002054146121d3576040517f08c379a00000000000000000000000000000000000000000000000000000000081526004016121ca90612b38565b60405180910390fd5b600a60008273ffffffffffffffffffffffffffffffffffffffff1673ffffffffffffffffffffffffffffffffffffffff1681526020019081526020016000206000905550565b60008060149054906101000a900460ff16612269576040517f08c379a000000000000000000000000000000000000000000000000000000000815260040161226090612acc565b60405180910390fd5b6001600260003373ffffffffffffffffffffffffffffffffffffffff1673ffffffffffffffffffffffffffffffffffffffff16815260200190815260200160002054146122eb576040517f08c379a00000000000000000000000000000000000000000000000000000000081526004016122e290612b38565b60405180910390fd5b60008383604051602001612300929190612c89565b604051602081830303815290604052805190602001209050600460008673ffffffffffffffffffffffffffffffffffffffff1673ffffffffffffffffffffffffffffffffffffffff1681526020019081526020016000206000828152602001908152602001600020600101549150509392505050565b600060149054906101000a900460ff166123c5576040517f08c379a00000000000000000000000000000000000000000000000000000000081526004016123bc90612acc565b60405180910390fd5b80600560008473ffffffffffffffffffffffffffffffffffffffff1673ffffffffffffffffffffffffffffffffffffffff16815260200190815260200160002060000160016101000a81548160ff0219169083151502179055505050565b600081836124319190612ce0565b905092915050565b6000604051905090565b600080fd5b600080fd5b60008115159050919050565b6124628161244d565b811461246d57600080fd5b50565b60008135905061247f81612459565b92915050565b60006020828403121561249b5761249a612443565b5b60006124a984828501612470565b91505092915050565b600073ffffffffffffffffffffffffffffffffffffffff82169050919050565b60006124dd826124b2565b9050919050565b6124ed816124d2565b81146124f857600080fd5b50565b60008135905061250a816124e4565b92915050565b60006020828403121561252657612525612443565b5b6000612534848285016124fb565b91505092915050565b6125468161244d565b82525050565b6000602082019050612561600083018461253d565b92915050565b600081519050919050565b600082825260208201905092915050565b6000819050602082019050919050565b61259c816124d2565b82525050565b60006125ae8383612593565b60208301905092915050565b6000602082019050919050565b60006125d282612567565b6125dc8185612572565b93506125e783612583565b8060005b838110156126185781516125ff88826125a2565b975061260a836125ba565b9250506001810190506125eb565b5085935050505092915050565b6000602082019050818103600083015261263f81846125c7565b905092915050565b600080fd5b600080fd5b6000601f19601f8301169050919050565b7f4e487b7100000000000000000000000000000000000000000000000000000000600052604160045260246000fd5b61269a82612651565b810181811067ffffffffffffffff821117156126b9576126b8612662565b5b80604052505050565b60006126cc612439565b90506126d88282612691565b919050565b600067ffffffffffffffff8211156126f8576126f7612662565b5b61270182612651565b9050602081019050919050565b82818337600083830152505050565b600061273061272b846126dd565b6126c2565b90508281526020810184848401111561274c5761274b61264c565b5b61275784828561270e565b509392505050565b600082601f83011261277457612773612647565b5b813561278484826020860161271d565b91505092915050565b6000819050919050565b6127a08161278d565b81146127ab57600080fd5b50565b6000813590506127bd81612797565b92915050565b6000806000606084860312156127dc576127db612443565b5b60006127ea868287016124fb565b935050602084013567ffffffffffffffff81111561280b5761280a612448565b5b6128178682870161275f565b9250506040612828868287016127ae565b9150509250925092565b61283b8161278d565b82525050565b60006020820190506128566000830184612832565b92915050565b6000806000806080858703121561287657612875612443565b5b6000612884878288016124fb565b945050602085013567ffffffffffffffff8111156128a5576128a4612448565b5b6128b18782880161275f565b93505060406128c2878288016127ae565b92505060606128d3878288016127ae565b91505092959194509250565b600080600080600060a086880312156128fb576128fa612443565b5b6000612909888289016124fb565b955050602086013567ffffffffffffffff81111561292a57612929612448565b5b6129368882890161275f565b9450506040612947888289016124fb565b9350506060612958888289016127ae565b9250506080612969888289016127ae565b9150509295509295909350565b6000806040838503121561298d5761298c612443565b5b600061299b858286016124fb565b92505060206129ac85828601612470565b9150509250929050565b6000806000606084860312156129cf576129ce612443565b5b60006129dd868287016124fb565b93505060206129ee868287016124fb565b92505060406129ff86828701612470565b9150509250925092565b60008060408385031215612a2057612a1f612443565b5b6000612a2e858286016124fb565b9250506020612a3f858286016127ae565b9150509250929050565b600082825260208201905092915050565b7f436f6e74726163742069732063757272656e746c79206e6f74206f706572617460008201527f696f6e616c000000000000000000000000000000000000000000000000000000602082015250565b6000612ab6602583612a49565b9150612ac182612a5a565b604082019050919050565b60006020820190508181036000830152612ae581612aa9565b9050919050565b7f43616c6c6572206973206e6f7420617574686f72697a65640000000000000000600082015250565b6000612b22601883612a49565b9150612b2d82612aec565b602082019050919050565b60006020820190508181036000830152612b5181612b15565b9050919050565b7f43616c6c6572206973206e6f7420636f6e7472616374206f776e657200000000600082015250565b6000612b8e601c83612a49565b9150612b9982612b58565b602082019050919050565b60006020820190508181036000830152612bbd81612b81565b9050919050565b612bcd816124d2565b82525050565b6000602082019050612be86000830184612bc4565b92915050565b600081519050919050565b600081905092915050565b60005b83811015612c22578082015181840152602081019050612c07565b83811115612c31576000848401525b50505050565b6000612c4282612bee565b612c4c8185612bf9565b9350612c5c818560208601612c04565b80840191505092915050565b6000819050919050565b612c83612c7e8261278d565b612c68565b82525050565b6000612c958285612c37565b9150612ca18284612c72565b6020820191508190509392505050565b7f4e487b7100000000000000000000000000000000000000000000000000000000600052601160045260246000fd5b6000612ceb8261278d565b9150612cf68361278d565b9250827fffffffffffffffffffffffffffffffffffffffffffffffffffffffffffffffff03821115612d2b57612d2a612cb1565b5b82820190509291505056fea26469706673582212205809ec65fefcb8c032e14af374f5732cf37734bc647c9e3bd60dc8cd17d4766e64736f6c634300080a0033",
  "immutableReferences": {},
  "source": "// SPDX-License-Identifier: MIT\npragma solidity >=0.4.22 <0.9.0;\n\nimport \"@openzeppelin/contracts/utils/math/SafeMath.sol\";\n\ncontract FlightSuretyData {\n    using SafeMath for uint256;\n\n    /********************************************************************************************/\n    /*                                       DATA VARIABLES                                     */\n    /********************************************************************************************/\n\n    address private contractOwner;                                      // Account used to deploy contract\n    bool private operational = true;                                    // Blocks all state changes throughout the contract if false\n\n    address[] multiCalls = new address[](0);\n\n    struct Airline {\n        bool registered;\n        bool operational;\n    }\n\n    struct AirlineRegistrationRequest {\n        string name;\n        address airlineAddress;\n    }\n\n    struct flightInfo{\n        bool isRegistered; \n        uint256 totalPremium;\n        uint256 statusCode;\n    }\n\n    struct InsureeInfo{\n        uint256 insuranceAmount;\n        uint256 payout;\n    }\n\n    struct Voter {\n        address[] airlineVoters;\n        mapping(address => bool) voteResults;\n    }\n\n    mapping(address => uint256) private authorizedCaller;\n    \n    mapping(address => bytes32 []) flightList; \n    mapping(address => mapping(bytes32 => flightInfo)) flights;\n    mapping(address => Airline) airlines;\n    mapping(address => uint256) funding;\n    mapping(address => Voter) voters;\n    mapping(address => mapping(bytes32 => address [])) insureeList;   //store the passenger addresses for each flight\n    mapping(address => mapping(bytes32 => mapping(address => InsureeInfo))) insurees;    //For each flight, it keeps track of premium and payout for each insuree\n    mapping(address => uint) voteCount;\n\n    /********************************************************************************************/\n    /*                                       EVENT DEFINITIONS                                  */\n    /********************************************************************************************/\n\n    event AuthorizedContract(address authContract);\n    event DeAuthorizedContract(address authContract);\n\n    /**\n    * @dev Constructor\n    *      The deploying account becomes contractOwner\n    */\n    constructor\n                                (                                    \n                                )  \n    {\n        contractOwner = msg.sender;\n        \n        airlines[msg.sender] = Airline({\n            registered: true,\n            operational: false\n        }); \n\n        multiCalls.push(msg.sender);\n    }\n\n    /********************************************************************************************/\n    /*                                       FUNCTION MODIFIERS                                 */\n    /********************************************************************************************/\n\n    // Modifiers help avoid duplication of code. They are typically used to validate something\n    // before a function is allowed to be executed.\n\n    /**\n    * @dev Modifier that requires the \"operational\" boolean variable to be \"true\"\n    *      This is used on all state changing functions to pause the contract in \n    *      the event there is an issue that needs to be fixed\n    */\n    modifier requireIsOperational() \n    {\n        require(operational, \"Contract is currently not operational\");\n        _;  // All modifiers require an \"_\" which indicates where the function body will be added\n    }\n\n    /**\n    * @dev Modifier that requires the \"ContractOwner\" account to be the function caller\n    */\n    modifier requireContractOwner()\n    {\n        require(msg.sender == contractOwner, \"Caller is not contract owner\");\n        _;\n    }\n\n    modifier isCallerAuthorized()\n    {\n        require(authorizedCaller[msg.sender] == 1, \"Caller is not authorized\");\n        _;\n    }\n\n    /********************************************************************************************/\n    /*                                       UTILITY FUNCTIONS                                  */\n    /********************************************************************************************/\n\n    /**\n    * @dev Get operating status of contract\n    *\n    * @return A bool that is the current operating status\n    */      \n    function isOperational() \n                            public \n                            view \n                            returns(bool) \n    {\n        return operational;\n    }\n\n    /**\n    * @dev Sets contract operations on/off\n    *\n    * When operational mode is disabled, all write transactions except for this one will fail\n    */    \n    function setOperatingStatus\n                            (\n                                bool mode\n                            ) \n                            external\n                            requireContractOwner \n    {\n        operational = mode;\n    }\n\n    function authorizeCaller(address contractAddress) external\n        requireContractOwner\n    {\n        authorizedCaller[contractAddress] = 1;\n        emit AuthorizedContract(contractAddress);\n    }\n\n\n    function deauthorizeContract(address contractAddress) external\n        requireContractOwner\n    {\n        delete authorizedCaller[contractAddress];\n        emit DeAuthorizedContract(contractAddress);\n    } \n\n    /********************************************************************************************/\n    /*                                     SMART CONTRACT FUNCTIONS                             */\n    /********************************************************************************************/\n\n   /**\n    * @dev \n    */\n    function getRegisteredAirlines\n                                ()\n                                external\n                                view\n                                requireIsOperational\n                                isCallerAuthorized\n                                returns(uint256)\n    {\n        return multiCalls.length;\n    }\n\n    /**\n    * @dev \n    *      \n    *\n    */\n    function getRegisteredAirlinesAccounts\n                                        ()\n                                        external\n                                        view\n                                        requireIsOperational\n                                        isCallerAuthorized\n                                        returns(address[] memory)\n    {\n        return multiCalls;\n    }\n\n\n    /**\n     * @dev Returns if the airline is registered or not by the address\n     * @return bool \n     */\n    function getAirlineRegistrationStatus\n                                         (   \n                                            address airlineAddress\n                                         )\n                                         external\n                                         view\n                                         requireIsOperational\n                                         isCallerAuthorized\n                                         returns(bool)\n    {\n        return airlines[airlineAddress].registered;\n    }\n\n    /**\n     * @dev Returns if the airline is funded or not by the address\n     * @return bool \n     */\n     function getAirlineOperationalStatus\n                                        (\n                                            address airlineAddress\n                                        )\n                                        external\n                                        view\n                                        requireIsOperational\n                                        isCallerAuthorized\n                                        returns(bool)\n    {\n        return airlines[airlineAddress].operational;\n    }\n\n    /**\n     * @dev Sets the operational status to the airline, either to true or false\n     */\n     function setAirlineOperationalStatus\n                                        (\n                                            address airlineAddress,\n                                            bool status\n                                        )\n                                        private\n                                        requireIsOperational\n    {\n        airlines[airlineAddress].operational = status;\n    }\n\n   /**\n    * @dev Add an airline to the registration queue\n    *      Can only be called from FlightSuretyApp contract\n    *\n    */   \n    function registerAirline\n                            (\n                                address airlineAddress,\n                                bool fundComplete   \n                            )\n                            external\n    {\n        airlines[airlineAddress] = Airline({\n            registered: true,\n            operational: fundComplete\n        });\n\n        multiCalls.push(airlineAddress);\n    }\n\n   /**\n    * @dev Initial funding for the insurance. Unless there are too many delayed flights\n    *      resulting in insurance payouts, the contract should be self-sustaining\n    *\n    */  \n    function fund\n                (\n                    address account     \n                )\n                payable\n                public\n                requireIsOperational\n                isCallerAuthorized\n    {\n        funding[account] = msg.value;\n        setAirlineOperationalStatus(account, true);\n    }\n\n   /**\n    * @dev Initial funding for the insurance. Unless there are too many delayed flights\n    *      resulting in insurance payouts, the contract should be self-sustaining\n    */  \n    function getFunding\n                (\n                    address account     \n                )\n                public\n                view\n                requireIsOperational\n                returns(uint256)\n    {\n        uint256 funds = funding[account];\n        return funds;\n    }\n\n   /**\n    * @dev Add a flight to the airline\n    *      \n    *\n    */\n    function registerFlight\n                            (\n                                address airlineAddress,\n                                string memory flight,\n                                uint256 timestamp\n                            )\n                            requireIsOperational\n                            isCallerAuthorized\n                            external\n    {\n        bytes32 key = keccak256(abi.encodePacked(flight, timestamp));\n        flightList[airlineAddress].push(key);\n        flights[airlineAddress][key].isRegistered = true;\n        flights[airlineAddress][key].totalPremium = 0;\n        flights[airlineAddress][key].statusCode = 0;\n    }\n\n   /**\n    * @dev Gets the state of a filight, either if it is \n    *      registered or not.\n    *        \n    *    \n    */\n    function getFlightStatus\n                            (\n                                address airline,\n                                string memory flightNumber,\n                                uint256 timestamp\n                            )\n                            external\n                            view\n                            requireIsOperational\n                            isCallerAuthorized\n                            returns(bool)\n    {\n        bytes32 key = keccak256(abi.encodePacked(flightNumber, timestamp));\n        bool result = flights[airline][key].isRegistered;\n        return result;\n    }\n\n   /**\n    * @dev \n    *        \n    *    \n    */\n    function setFlightStatusCode\n                                (\n                                    address airline,\n                                    string memory flight,\n                                    uint256 timestamp,\n                                    uint256 code\n                                )\n                                external\n                                requireIsOperational\n                                isCallerAuthorized\n    {\n        bytes32 key = keccak256(abi.encodePacked(flight, timestamp));\n        flights[airline][key].statusCode = code;\n    }\n\n\n   /**\n    * @dev \n    *        \n    *    \n    */\n    function getFlightStatusCode\n                                (\n                                    address airline,\n                                    string memory flight,\n                                    uint256 timestamp\n                                )\n                                external\n                                view\n                                requireIsOperational\n                                isCallerAuthorized\n                                returns(uint256)\n    {\n        bytes32 key = keccak256(abi.encodePacked(flight, timestamp));\n        uint statusCode = flights[airline][key].statusCode;\n        return statusCode;\n    }\n\n                            \n\n\n   /**\n    * @dev Buy insurance for a flight\n    *      Increment premiums: Premiums are the amount you pay for your insurance every month\n    *\n    */   \n    function buy\n                            (\n                                address airline,\n                                string memory flight,\n                                address insuree,\n                                uint256 amount,\n                                uint256 timestamp                             \n                            )\n                            external\n                            payable\n                            requireIsOperational\n                            isCallerAuthorized\n    {\n        // Increment the total premium collected for a flight\n        bytes32 key = keccak256(abi.encodePacked(flight, timestamp));\n        flights[airline][key].totalPremium = flights[airline][key].totalPremium.add(amount);\n\n        // Add the new insuree to the insuree list \n        insureeList[airline][key].push(insuree);\n        \n        insurees[airline][key][insuree] = InsureeInfo({ insuranceAmount: amount, payout: 0 }); \n    }\n\n   /**\n    * @dev \n    *      \n    *\n    */   \n    function getFlightPremium\n                            (\n                                address airline,\n                                string memory flight,\n                                uint256 timestamp\n                            )\n                            external\n                            view\n                            requireIsOperational\n                            isCallerAuthorized\n                            returns(uint256)\n    {\n        bytes32 key = keccak256(abi.encodePacked(flight, timestamp));\n        return flights[airline][key].totalPremium;\n    }\n\n    /**\n     *  @dev Amount of voters\n    */\n    function getVoter\n                    (\n                        address account\n                    )\n                    external\n                    view\n                    requireIsOperational\n                    isCallerAuthorized\n                    returns(address[] memory)\n    {\n        return voters[account].airlineVoters;\n    }\n\n//   struct Voter {\n//         address[] airlineVoters;\n//         mapping(address => bool) voteResults;\n//     }\n//     mapping(address => Voter) voters;\n\n    /**\n     *  @dev Amount of voters\n    */    \n    function getVotersLength\n                            (\n                                address account\n                            )\n                            external\n                            view\n                            requireIsOperational\n                            isCallerAuthorized\n                            returns(uint256)\n    {\n        return voters[account].airlineVoters.length;\n    }\n\n    /**\n     *  @dev Amount of votes that an airline has\n    */    \n    function getVotesQty\n                            (\n                                address account\n                            )\n                            external\n                            view\n                            requireIsOperational\n                            isCallerAuthorized\n                            returns(uint)\n    {\n        return voteCount[account];\n    }\n\n    /**\n    *  @dev Adds information of the vote, like the voter, \n    *       the result and the airline being voted \n    */\n    function addVoteInformation\n                                (\n                                    address enteringAirline,\n                                    address registeredAirline,\n                                    bool vote\n                                )\n                            external\n                            requireIsOperational\n                            isCallerAuthorized\n    {\n        voters[enteringAirline].airlineVoters.push(registeredAirline);\n        voters[enteringAirline].voteResults[registeredAirline] = vote;\n    }\n\n    /**\n     *  @dev Adds a new vote to the airline\n    */\n    function addVoteToAirline\n                            (\n                                address enteringAirline,\n                                uint newVote\n                            )\n                            external\n                            requireIsOperational\n                            isCallerAuthorized\n    {\n        voteCount[enteringAirline] = voteCount[enteringAirline].add(newVote);\n    }\n\n    /**\n     *  @dev Deletes the vote counter\n    */\n    function deleteVoteCounter\n                            (\n                                address airline\n                            )\n                            external\n                            requireIsOperational\n                            isCallerAuthorized\n    {\n        delete voteCount[airline];\n    }\n\n\n    /**\n     *  @dev Credits payouts to insurees\n    */\n    // function creditInsurees\n    //                             (\n    //                             )\n    //                             external\n    //                             pure\n    // {\n    // }\n\n    /**\n     *  @dev Transfers eligible payout funds to insuree\n     *\n    */\n    // function pay\n    //                         (\n    //                         )\n    //                         external\n    //                         pure\n    // {\n    // }\n\n   /**\n    * @dev Initial funding for the insurance. Unless there are too many delayed flights\n    *      resulting in insurance payouts, the contract should be self-sustaining\n    *\n    */   \n    // function fund\n    //                         (   \n    //                         )\n    //                         public\n    //                         payable\n    // {\n    // }\n\n    // function getFlightKey\n    //                     (\n    //                         address airline,\n    //                         string memory flight,\n    //                         uint256 timestamp\n    //                     )\n    //                     pure\n    //                     internal\n    //                     returns(bytes32) \n    // {\n    //     return keccak256(abi.encodePacked(airline, flight, timestamp));\n    // }\n\n    /**\n    * @dev Fallback function for funding smart contract.\n    *\n    */\n    fallback() \n                            external \n                            payable \n    {\n        fund(msg.sender);\n    }\n}",
  "sourcePath": "/Users/juani/code/courses/udacity_blockchain_developer/flight-surety/contracts/FlightSuretyData.sol",
  "compiler": {
    "name": "solc",
    "version": "0.8.10+commit.fc410830.Emscripten.clang"
  },
  "schemaVersion": "3.4.11",
  "updatedAt": "2023-02-21T19:58:31.160Z",
  "networkType": "ethereum",
  "devdoc": {
    "kind": "dev",
    "methods": {
      "addVoteInformation(address,address,bool)": {
        "details": "Adds information of the vote, like the voter,        the result and the airline being voted "
      },
      "addVoteToAirline(address,uint256)": {
        "details": "Adds a new vote to the airline"
      },
      "buy(address,string,address,uint256,uint256)": {
        "details": "Buy insurance for a flight      Increment premiums: Premiums are the amount you pay for your insurance every month"
      },
      "constructor": {
        "details": "Constructor      The deploying account becomes contractOwner"
      },
      "deleteVoteCounter(address)": {
        "details": "Deletes the vote counter"
      },
      "fund(address)": {
        "details": "Initial funding for the insurance. Unless there are too many delayed flights      resulting in insurance payouts, the contract should be self-sustaining"
      },
      "getAirlineOperationalStatus(address)": {
        "details": "Returns if the airline is funded or not by the address",
        "returns": {
          "_0": "bool "
        }
      },
      "getAirlineRegistrationStatus(address)": {
        "details": "Returns if the airline is registered or not by the address",
        "returns": {
          "_0": "bool "
        }
      },
      "getFlightPremium(address,string,uint256)": {
        "details": "      "
      },
      "getFlightStatus(address,string,uint256)": {
        "details": "Gets the state of a filight, either if it is       registered or not.            "
      },
      "getFlightStatusCode(address,string,uint256)": {
        "details": "            "
      },
      "getFunding(address)": {
        "details": "Initial funding for the insurance. Unless there are too many delayed flights      resulting in insurance payouts, the contract should be self-sustaining"
      },
      "getRegisteredAirlinesAccounts()": {
        "details": "      "
      },
      "getVoter(address)": {
        "details": "Amount of voters"
      },
      "getVotersLength(address)": {
        "details": "Amount of voters"
      },
      "getVotesQty(address)": {
        "details": "Amount of votes that an airline has"
      },
      "isOperational()": {
        "details": "Get operating status of contract",
        "returns": {
          "_0": "A bool that is the current operating status"
        }
      },
      "registerAirline(address,bool)": {
        "details": "Add an airline to the registration queue      Can only be called from FlightSuretyApp contract"
      },
      "registerFlight(address,string,uint256)": {
        "details": "Add a flight to the airline      "
      },
      "setFlightStatusCode(address,string,uint256,uint256)": {
        "details": "            "
      },
      "setOperatingStatus(bool)": {
        "details": "Sets contract operations on/off When operational mode is disabled, all write transactions except for this one will fail"
      }
    },
    "version": 1
  },
  "userdoc": {
    "kind": "user",
    "methods": {},
    "version": 1
  }
}