{
  "contractName": "FlightSuretyApp",
  "abi": [
    {
      "inputs": [
        {
          "internalType": "address",
          "name": "dataContract",
          "type": "address"
        }
      ],
      "stateMutability": "nonpayable",
      "type": "constructor"
    },
    {
      "anonymous": false,
      "inputs": [
        {
          "indexed": false,
          "internalType": "address",
          "name": "newAirline",
          "type": "address"
        }
      ],
      "name": "AirlineRegistered",
      "type": "event"
    },
    {
      "anonymous": false,
      "inputs": [
        {
          "indexed": false,
          "internalType": "address",
          "name": "newAirline",
          "type": "address"
        },
        {
          "indexed": false,
          "internalType": "address",
          "name": "voterAirline",
          "type": "address"
        },
        {
          "indexed": false,
          "internalType": "bool",
          "name": "ballot",
          "type": "bool"
        }
      ],
      "name": "AirlineVoted",
      "type": "event"
    },
    {
      "anonymous": false,
      "inputs": [
        {
          "indexed": false,
          "internalType": "address",
          "name": "airline",
          "type": "address"
        },
        {
          "indexed": false,
          "internalType": "string",
          "name": "flight",
          "type": "string"
        },
        {
          "indexed": false,
          "internalType": "uint256",
          "name": "timestamp",
          "type": "uint256"
        },
        {
          "indexed": false,
          "internalType": "uint8",
          "name": "status",
          "type": "uint8"
        }
      ],
      "name": "FlightStatusInfo",
      "type": "event"
    },
    {
      "anonymous": false,
      "inputs": [
        {
          "indexed": false,
          "internalType": "address",
          "name": "airline",
          "type": "address"
        },
        {
          "indexed": false,
          "internalType": "string",
          "name": "flight",
          "type": "string"
        },
        {
          "indexed": false,
          "internalType": "uint256",
          "name": "timestamp",
          "type": "uint256"
        },
        {
          "indexed": false,
          "internalType": "uint8",
          "name": "status",
          "type": "uint8"
        }
      ],
      "name": "OracleReport",
      "type": "event"
    },
    {
      "anonymous": false,
      "inputs": [
        {
          "indexed": false,
          "internalType": "uint8",
          "name": "index",
          "type": "uint8"
        },
        {
          "indexed": false,
          "internalType": "address",
          "name": "airline",
          "type": "address"
        },
        {
          "indexed": false,
          "internalType": "string",
          "name": "flight",
          "type": "string"
        },
        {
          "indexed": false,
          "internalType": "uint256",
          "name": "timestamp",
          "type": "uint256"
        }
      ],
      "name": "OracleRequest",
      "type": "event"
    },
    {
      "anonymous": false,
      "inputs": [
        {
          "indexed": false,
          "internalType": "address",
          "name": "airline",
          "type": "address"
        }
      ],
      "name": "VoteRequestEvent",
      "type": "event"
    },
    {
      "inputs": [],
      "name": "REGISTRATION_FEE",
      "outputs": [
        {
          "internalType": "uint256",
          "name": "",
          "type": "uint256"
        }
      ],
      "stateMutability": "view",
      "type": "function"
    },
    {
      "inputs": [],
      "name": "RegistrationFee",
      "outputs": [
        {
          "internalType": "uint256",
          "name": "",
          "type": "uint256"
        }
      ],
      "stateMutability": "view",
      "type": "function"
    },
    {
      "inputs": [],
      "name": "isOperational",
      "outputs": [
        {
          "internalType": "bool",
          "name": "",
          "type": "bool"
        }
      ],
      "stateMutability": "view",
      "type": "function"
    },
    {
      "inputs": [],
      "name": "totalRegisteredAirlines",
      "outputs": [
        {
          "internalType": "uint256",
          "name": "",
          "type": "uint256"
        }
      ],
      "stateMutability": "view",
      "type": "function"
    },
    {
      "inputs": [
        {
          "internalType": "address",
          "name": "airline",
          "type": "address"
        }
      ],
      "name": "getAirlineRegistrationStatus",
      "outputs": [
        {
          "internalType": "bool",
          "name": "",
          "type": "bool"
        }
      ],
      "stateMutability": "view",
      "type": "function"
    },
    {
      "inputs": [
        {
          "internalType": "address",
          "name": "airline",
          "type": "address"
        }
      ],
      "name": "getAirlineOperationalStatus",
      "outputs": [
        {
          "internalType": "bool",
          "name": "",
          "type": "bool"
        }
      ],
      "stateMutability": "view",
      "type": "function"
    },
    {
      "inputs": [
        {
          "internalType": "address",
          "name": "airline",
          "type": "address"
        },
        {
          "internalType": "string",
          "name": "flightNumber",
          "type": "string"
        },
        {
          "internalType": "uint256",
          "name": "timestamps",
          "type": "uint256"
        }
      ],
      "name": "getFlightStatus",
      "outputs": [
        {
          "internalType": "bool",
          "name": "",
          "type": "bool"
        }
      ],
      "stateMutability": "view",
      "type": "function"
    },
    {
      "inputs": [],
      "name": "getRegisteredAirlines",
      "outputs": [
        {
          "internalType": "uint256",
          "name": "",
          "type": "uint256"
        }
      ],
      "stateMutability": "view",
      "type": "function"
    },
    {
      "inputs": [],
      "name": "getRegisteredAirlinesAccounts",
      "outputs": [],
      "stateMutability": "view",
      "type": "function"
    },
    {
      "inputs": [
        {
          "internalType": "address",
          "name": "airline",
          "type": "address"
        }
      ],
      "name": "registerAirline",
      "outputs": [],
      "stateMutability": "nonpayable",
      "type": "function"
    },
    {
      "inputs": [
        {
          "internalType": "address",
          "name": "airline",
          "type": "address"
        },
        {
          "internalType": "bool",
          "name": "vote",
          "type": "bool"
        }
      ],
      "name": "voteAirline",
      "outputs": [],
      "stateMutability": "nonpayable",
      "type": "function"
    },
    {
      "inputs": [],
      "name": "fund",
      "outputs": [],
      "stateMutability": "payable",
      "type": "function"
    },
    {
      "inputs": [
        {
          "internalType": "address",
          "name": "account",
          "type": "address"
        }
      ],
      "name": "getFunding",
      "outputs": [
        {
          "internalType": "uint256",
          "name": "",
          "type": "uint256"
        }
      ],
      "stateMutability": "view",
      "type": "function"
    },
    {
      "inputs": [
        {
          "internalType": "string",
          "name": "flightNumber",
          "type": "string"
        },
        {
          "internalType": "uint256",
          "name": "timestamp",
          "type": "uint256"
        }
      ],
      "name": "registerFlight",
      "outputs": [],
      "stateMutability": "nonpayable",
      "type": "function"
    },
    {
      "inputs": [],
      "name": "registerOracle",
      "outputs": [],
      "stateMutability": "payable",
      "type": "function"
    },
    {
      "inputs": [],
      "name": "getMyIndexes",
      "outputs": [
        {
          "internalType": "uint8[3]",
          "name": "",
          "type": "uint8[3]"
        }
      ],
      "stateMutability": "view",
      "type": "function"
    },
    {
      "inputs": [
        {
          "internalType": "uint8",
          "name": "index",
          "type": "uint8"
        },
        {
          "internalType": "address",
          "name": "airline",
          "type": "address"
        },
        {
          "internalType": "string",
          "name": "flight",
          "type": "string"
        },
        {
          "internalType": "uint256",
          "name": "timestamp",
          "type": "uint256"
        },
        {
          "internalType": "uint8",
          "name": "statusCode",
          "type": "uint8"
        }
      ],
      "name": "submitOracleResponse",
      "outputs": [],
      "stateMutability": "nonpayable",
      "type": "function"
    }
  ],
  "bytecode": "0x60806040526005600060146101000a81548160ff021916908360ff1602179055506000600360006101000a81548160ff021916908360ff1602179055503480156200004957600080fd5b506040516200389e3803806200389e83398181016040528101906200006f919062000161565b336000806101000a81548173ffffffffffffffffffffffffffffffffffffffff021916908373ffffffffffffffffffffffffffffffffffffffff16021790555080600160006101000a81548173ffffffffffffffffffffffffffffffffffffffff021916908373ffffffffffffffffffffffffffffffffffffffff1602179055505062000193565b600080fd5b600073ffffffffffffffffffffffffffffffffffffffff82169050919050565b60006200012982620000fc565b9050919050565b6200013b816200011c565b81146200014757600080fd5b50565b6000815190506200015b8162000130565b92915050565b6000602082840312156200017a5762000179620000f7565b5b60006200018a848285016200014a565b91505092915050565b6136fb80620001a36000396000f3fe6080604052600436106100fe5760003560e01c80639de5f95711610095578063bdfd987711610064578063bdfd9877146102f5578063bff859721461031e578063c10f270014610349578063c23bcf0914610372578063cd905dff1461039d576100fe565b80639de5f95714610234578063ad0a4f3214610271578063b4ca82b8146102ae578063b60d4288146102eb576100fe565b806339cfc995116100d157806339cfc9951461018a5780633c752e55146101b35780635f1cc0e6146101de57806364b4f75114610209576100fe565b80630ab519ec146101035780631eeb88581461012c578063339d259014610169578063340288dc14610173575b600080fd5b34801561010f57600080fd5b5061012a600480360381019061012591906124c2565b6103c8565b005b34801561013857600080fd5b50610153600480360381019061014e9190612502565b610c61565b604051610160919061253e565b60405180910390f35b610171610d06565b005b34801561017f57600080fd5b50610188610df3565b005b34801561019657600080fd5b506101b160048036038101906101ac91906126d5565b610ec5565b005b3480156101bf57600080fd5b506101c86110df565b6040516101d59190612740565b60405180910390f35b3480156101ea57600080fd5b506101f3611177565b6040516102009190612813565b60405180910390f35b34801561021557600080fd5b5061021e6112b7565b60405161022b9190612740565b60405180910390f35b34801561024057600080fd5b5061025b6004803603810190610256919061282e565b6112c3565b604051610268919061253e565b60405180910390f35b34801561027d57600080fd5b5061029860048036038101906102939190612502565b61136e565b6040516102a59190612740565b60405180910390f35b3480156102ba57600080fd5b506102d560048036038101906102d09190612502565b6114e3565b6040516102e2919061253e565b60405180910390f35b6102f3611588565b005b34801561030157600080fd5b5061031c60048036038101906103179190612502565b611958565b005b34801561032a57600080fd5b50610333611b8f565b6040516103409190612740565b60405180910390f35b34801561035557600080fd5b50610370600480360381019061036b91906128c9565b611b9b565b005b34801561037e57600080fd5b50610387611f2a565b6040516103949190612740565b60405180910390f35b3480156103a957600080fd5b506103b2611fc2565b6040516103bf919061253e565b60405180910390f35b600160009054906101000a900473ffffffffffffffffffffffffffffffffffffffff1673ffffffffffffffffffffffffffffffffffffffff1663cd905dff6040518163ffffffff1660e01b8152600401602060405180830381865afa158015610435573d6000803e3d6000fd5b505050506040513d601f19601f820116820180604052508101906104599190612975565b610498576040517f08c379a000000000000000000000000000000000000000000000000000000000815260040161048f90612a25565b60405180910390fd5b600060149054906101000a900460ff1660ff166104b36110df565b116104f3576040517f08c379a00000000000000000000000000000000000000000000000000000000081526004016104ea90612ab7565b60405180910390fd5b600160009054906101000a900473ffffffffffffffffffffffffffffffffffffffff1673ffffffffffffffffffffffffffffffffffffffff16631eeb8858836040518263ffffffff1660e01b815260040161054e9190612ae6565b602060405180830381865afa15801561056b573d6000803e3d6000fd5b505050506040513d601f19601f8201168201806040525081019061058f9190612975565b156105cf576040517f08c379a00000000000000000000000000000000000000000000000000000000081526004016105c690612b4d565b60405180910390fd5b600160009054906101000a900473ffffffffffffffffffffffffffffffffffffffff1673ffffffffffffffffffffffffffffffffffffffff1663b4ca82b8836040518263ffffffff1660e01b815260040161062a9190612ae6565b602060405180830381865afa158015610647573d6000803e3d6000fd5b505050506040513d601f19601f8201168201806040525081019061066b9190612975565b61067457600080fd5b600080600160009054906101000a900473ffffffffffffffffffffffffffffffffffffffff1673ffffffffffffffffffffffffffffffffffffffff1663a90d0dcc856040518263ffffffff1660e01b81526004016106d29190612ae6565b602060405180830381865afa1580156106ef573d6000803e3d6000fd5b505050506040513d601f19601f820116820180604052508101906107139190612b82565b9050600061071f6110df565b905060008214156107335760009250610850565b6000600160009054906101000a900473ffffffffffffffffffffffffffffffffffffffff1673ffffffffffffffffffffffffffffffffffffffff1663d4f50f98876040518263ffffffff1660e01b81526004016107909190612ae6565b600060405180830381865afa1580156107ad573d6000803e3d6000fd5b505050506040513d6000823e3d601f19601f820116820180604052508101906107d69190612c8c565b905060005b8381101561084d573373ffffffffffffffffffffffffffffffffffffffff1682828151811061080d5761080c612cd5565b5b602002602001015173ffffffffffffffffffffffffffffffffffffffff16141561083a576001945061084d565b808061084590612d33565b9150506107db565b50505b8215610891576040517f08c379a000000000000000000000000000000000000000000000000000000000815260040161088890612dc8565b60405180910390fd5b7fcf4d5aeace80a1e315b59442cc300cb4378d6595a1cef27cb174d5d860616ad68533866040516108c493929190612de8565b60405180910390a160011515841515141561096a57600160009054906101000a900473ffffffffffffffffffffffffffffffffffffffff1673ffffffffffffffffffffffffffffffffffffffff1663c58ad5308660016040518363ffffffff1660e01b8152600401610937929190612e64565b600060405180830381600087803b15801561095157600080fd5b505af1158015610965573d6000803e3d6000fd5b505050505b6000600160009054906101000a900473ffffffffffffffffffffffffffffffffffffffff1673ffffffffffffffffffffffffffffffffffffffff1663d8c2705d876040518263ffffffff1660e01b81526004016109c79190612ae6565b602060405180830381865afa1580156109e4573d6000803e3d6000fd5b505050506040513d601f19601f82011682018060405250810190610a089190612b82565b905060006001600284610a1b9190612ebc565b1415610a4f57610a486001610a3a60028661205a90919063ffffffff16565b61207090919063ffffffff16565b9050610a66565b610a6360028461205a90919063ffffffff16565b90505b808210610bc257600160009054906101000a900473ffffffffffffffffffffffffffffffffffffffff1673ffffffffffffffffffffffffffffffffffffffff166395386ae28860006040518363ffffffff1660e01b8152600401610acb929190612eed565b600060405180830381600087803b158015610ae557600080fd5b505af1158015610af9573d6000803e3d6000fd5b50505050600160009054906101000a900473ffffffffffffffffffffffffffffffffffffffff1673ffffffffffffffffffffffffffffffffffffffff1663de683bb2886040518263ffffffff1660e01b8152600401610b589190612ae6565b600060405180830381600087803b158015610b7257600080fd5b505af1158015610b86573d6000803e3d6000fd5b505050507f89a6354fb229eda6cbc28306798727b4d524818d2c375220bc3f360f24cffaca87604051610bb99190612ae6565b60405180910390a15b82841415610c5857600160009054906101000a900473ffffffffffffffffffffffffffffffffffffffff1673ffffffffffffffffffffffffffffffffffffffff1663de683bb2886040518263ffffffff1660e01b8152600401610c259190612ae6565b600060405180830381600087803b158015610c3f57600080fd5b505af1158015610c53573d6000803e3d6000fd5b505050505b50505050505050565b6000600160009054906101000a900473ffffffffffffffffffffffffffffffffffffffff1673ffffffffffffffffffffffffffffffffffffffff16631eeb8858836040518263ffffffff1660e01b8152600401610cbe9190612ae6565b602060405180830381865afa158015610cdb573d6000803e3d6000fd5b505050506040513d601f19601f82011682018060405250810190610cff9190612975565b9050919050565b670de0b6b3a7640000341015610d51576040517f08c379a0000000000000000000000000000000000000000000000000000000008152600401610d4890612f62565b60405180910390fd5b6000610d5c33612086565b9050604051806040016040528060011515815260200182815250600460003373ffffffffffffffffffffffffffffffffffffffff1673ffffffffffffffffffffffffffffffffffffffff16815260200190815260200160002060008201518160000160006101000a81548160ff021916908315150217905550602082015181600101906003610dec92919061233f565b5090505050565b600160009054906101000a900473ffffffffffffffffffffffffffffffffffffffff1673ffffffffffffffffffffffffffffffffffffffff1663cd905dff6040518163ffffffff1660e01b8152600401602060405180830381865afa158015610e60573d6000803e3d6000fd5b505050506040513d601f19601f82011682018060405250810190610e849190612975565b610ec3576040517f08c379a0000000000000000000000000000000000000000000000000000000008152600401610eba90612a25565b60405180910390fd5b565b600160009054906101000a900473ffffffffffffffffffffffffffffffffffffffff1673ffffffffffffffffffffffffffffffffffffffff1663b4ca82b8336040518263ffffffff1660e01b8152600401610f209190612ae6565b602060405180830381865afa158015610f3d573d6000803e3d6000fd5b505050506040513d601f19601f82011682018060405250810190610f619190612975565b610f6a57600080fd5b600160009054906101000a900473ffffffffffffffffffffffffffffffffffffffff1673ffffffffffffffffffffffffffffffffffffffff16639de5f9573384846040518463ffffffff1660e01b8152600401610fc993929190612ff9565b602060405180830381865afa158015610fe6573d6000803e3d6000fd5b505050506040513d601f19601f8201168201806040525081019061100a9190612975565b1561104a576040517f08c379a0000000000000000000000000000000000000000000000000000000008152600401611041906130a9565b60405180910390fd5b600160009054906101000a900473ffffffffffffffffffffffffffffffffffffffff1673ffffffffffffffffffffffffffffffffffffffff16633cc0be9c3384846040518463ffffffff1660e01b81526004016110a993929190612ff9565b600060405180830381600087803b1580156110c357600080fd5b505af11580156110d7573d6000803e3d6000fd5b505050505050565b6000600160009054906101000a900473ffffffffffffffffffffffffffffffffffffffff1673ffffffffffffffffffffffffffffffffffffffff1663c23bcf096040518163ffffffff1660e01b8152600401602060405180830381865afa15801561114e573d6000803e3d6000fd5b505050506040513d601f19601f820116820180604052508101906111729190612b82565b905090565b61117f6123d9565b600460003373ffffffffffffffffffffffffffffffffffffffff1673ffffffffffffffffffffffffffffffffffffffff16815260200190815260200160002060000160009054906101000a900460ff1661120e576040517f08c379a000000000000000000000000000000000000000000000000000000000815260040161120590613115565b60405180910390fd5b600460003373ffffffffffffffffffffffffffffffffffffffff1673ffffffffffffffffffffffffffffffffffffffff1681526020019081526020016000206001016003806020026040519081016040528092919082600380156112ad576020028201916000905b82829054906101000a900460ff1660ff16815260200190600101906020826000010492830192600103820291508084116112765790505b5050505050905090565b670de0b6b3a764000081565b6000600160009054906101000a900473ffffffffffffffffffffffffffffffffffffffff1673ffffffffffffffffffffffffffffffffffffffff16639de5f9578585856040518463ffffffff1660e01b815260040161132493929190612ff9565b602060405180830381865afa158015611341573d6000803e3d6000fd5b505050506040513d601f19601f820116820180604052508101906113659190612975565b90509392505050565b6000600160009054906101000a900473ffffffffffffffffffffffffffffffffffffffff1673ffffffffffffffffffffffffffffffffffffffff1663cd905dff6040518163ffffffff1660e01b8152600401602060405180830381865afa1580156113dd573d6000803e3d6000fd5b505050506040513d601f19601f820116820180604052508101906114019190612975565b611440576040517f08c379a000000000000000000000000000000000000000000000000000000000815260040161143790612a25565b60405180910390fd5b600160009054906101000a900473ffffffffffffffffffffffffffffffffffffffff1673ffffffffffffffffffffffffffffffffffffffff1663ad0a4f32836040518263ffffffff1660e01b815260040161149b9190612ae6565b602060405180830381865afa1580156114b8573d6000803e3d6000fd5b505050506040513d601f19601f820116820180604052508101906114dc9190612b82565b9050919050565b6000600160009054906101000a900473ffffffffffffffffffffffffffffffffffffffff1673ffffffffffffffffffffffffffffffffffffffff1663b4ca82b8836040518263ffffffff1660e01b81526004016115409190612ae6565b602060405180830381865afa15801561155d573d6000803e3d6000fd5b505050506040513d601f19601f820116820180604052508101906115819190612975565b9050919050565b600160009054906101000a900473ffffffffffffffffffffffffffffffffffffffff1673ffffffffffffffffffffffffffffffffffffffff1663cd905dff6040518163ffffffff1660e01b8152600401602060405180830381865afa1580156115f5573d6000803e3d6000fd5b505050506040513d601f19601f820116820180604052508101906116199190612975565b611658576040517f08c379a000000000000000000000000000000000000000000000000000000000815260040161164f90612a25565b60405180910390fd5b678ac7230489e80000803410156116a4576040517f08c379a000000000000000000000000000000000000000000000000000000000815260040161169b90613181565b60405180910390fd5b678ac7230489e8000033600082346116bc91906131a1565b90508173ffffffffffffffffffffffffffffffffffffffff166108fc829081150290604051600060405180830381858888f19350505050158015611704573d6000803e3d6000fd5b50600160009054906101000a900473ffffffffffffffffffffffffffffffffffffffff1673ffffffffffffffffffffffffffffffffffffffff16631eeb8858336040518263ffffffff1660e01b81526004016117609190612ae6565b602060405180830381865afa15801561177d573d6000803e3d6000fd5b505050506040513d601f19601f820116820180604052508101906117a19190612975565b6117e0576040517f08c379a00000000000000000000000000000000000000000000000000000000081526004016117d790613221565b60405180910390fd5b600160009054906101000a900473ffffffffffffffffffffffffffffffffffffffff1673ffffffffffffffffffffffffffffffffffffffff1663b4ca82b8336040518263ffffffff1660e01b815260040161183b9190612ae6565b602060405180830381865afa158015611858573d6000803e3d6000fd5b505050506040513d601f19601f8201168201806040525081019061187c9190612975565b156118bc576040517f08c379a00000000000000000000000000000000000000000000000000000000081526004016118b39061328d565b60405180910390fd5b600160009054906101000a900473ffffffffffffffffffffffffffffffffffffffff1673ffffffffffffffffffffffffffffffffffffffff166323024408678ac7230489e80000336040518363ffffffff1660e01b81526004016119209190612ae6565b6000604051808303818588803b15801561193957600080fd5b505af115801561194d573d6000803e3d6000fd5b505050505050505050565b600160009054906101000a900473ffffffffffffffffffffffffffffffffffffffff1673ffffffffffffffffffffffffffffffffffffffff1663cd905dff6040518163ffffffff1660e01b8152600401602060405180830381865afa1580156119c5573d6000803e3d6000fd5b505050506040513d601f19601f820116820180604052508101906119e99190612975565b611a28576040517f08c379a0000000000000000000000000000000000000000000000000000000008152600401611a1f90612a25565b60405180910390fd5b600073ffffffffffffffffffffffffffffffffffffffff168173ffffffffffffffffffffffffffffffffffffffff161415611a98576040517f08c379a0000000000000000000000000000000000000000000000000000000008152600401611a8f906132f9565b60405180910390fd5b6000611aa26110df565b9050600060149054906101000a900460ff1660ff16811015611b5357600160009054906101000a900473ffffffffffffffffffffffffffffffffffffffff1673ffffffffffffffffffffffffffffffffffffffff166395386ae28360006040518363ffffffff1660e01b8152600401611b1c929190612eed565b600060405180830381600087803b158015611b3657600080fd5b505af1158015611b4a573d6000803e3d6000fd5b50505050611b8b565b7ffa4b756e9be85feefc75559b50ec1cfc7d9ecc5f4998839290531b9e1c14a8eb82604051611b829190612ae6565b60405180910390a15b5050565b678ac7230489e8000081565b8460ff16600460003373ffffffffffffffffffffffffffffffffffffffff1673ffffffffffffffffffffffffffffffffffffffff168152602001908152602001600020600101600060038110611bf457611bf3612cd5565b5b602091828204019190069054906101000a900460ff1660ff161480611c8857508460ff16600460003373ffffffffffffffffffffffffffffffffffffffff1673ffffffffffffffffffffffffffffffffffffffff168152602001908152602001600020600101600160038110611c6d57611c6c612cd5565b5b602091828204019190069054906101000a900460ff1660ff16145b80611d0257508460ff16600460003373ffffffffffffffffffffffffffffffffffffffff1673ffffffffffffffffffffffffffffffffffffffff168152602001908152602001600020600101600260038110611ce757611ce6612cd5565b5b602091828204019190069054906101000a900460ff1660ff16145b611d41576040517f08c379a0000000000000000000000000000000000000000000000000000000008152600401611d389061338b565b60405180910390fd5b600085858585604051602001611d5a9493929190613486565b6040516020818303038152906040528051906020012090506005600082815260200190815260200160002060000160149054906101000a900460ff16611dd5576040517f08c379a0000000000000000000000000000000000000000000000000000000008152600401611dcc90613542565b60405180910390fd5b6005600082815260200190815260200160002060010160008360ff1660ff168152602001908152602001600020339080600181540180825580915050600190039060005260206000200160009091909190916101000a81548173ffffffffffffffffffffffffffffffffffffffff021916908373ffffffffffffffffffffffffffffffffffffffff1602179055507f43c853095c2752648493c88b4baac4d580d2594ffb00c6f1d4242d844514f78385858585604051611e989493929190613571565b60405180910390a160036005600083815260200190815260200160002060010160008460ff1660ff1681526020019081526020016000208054905010611f22577fe23f5229de535c091e3b7bec2665f5d698192d3b31393066e8987b7a05076b6c85858585604051611f0d9493929190613571565b60405180910390a1611f218585858561226d565b5b505050505050565b6000600160009054906101000a900473ffffffffffffffffffffffffffffffffffffffff1673ffffffffffffffffffffffffffffffffffffffff1663c23bcf096040518163ffffffff1660e01b8152600401602060405180830381865afa158015611f99573d6000803e3d6000fd5b505050506040513d601f19601f82011682018060405250810190611fbd9190612b82565b905090565b6000600160009054906101000a900473ffffffffffffffffffffffffffffffffffffffff1673ffffffffffffffffffffffffffffffffffffffff1663cd905dff6040518163ffffffff1660e01b8152600401602060405180830381865afa158015612031573d6000803e3d6000fd5b505050506040513d601f19601f820116820180604052508101906120559190612975565b905090565b6000818361206891906135bd565b905092915050565b6000818361207e91906135ee565b905092915050565b61208e6123d9565b6120966123d9565b61209f83612273565b816000600381106120b3576120b2612cd5565b5b602002019060ff16908160ff1681525050806000600381106120d8576120d7612cd5565b5b6020020151816001600381106120f1576120f0612cd5565b5b602002019060ff16908160ff16815250505b8060006003811061211757612116612cd5565b5b602002015160ff168160016003811061213357612132612cd5565b5b602002015160ff1614156121745761214a83612273565b8160016003811061215e5761215d612cd5565b5b602002019060ff16908160ff1681525050612103565b8060016003811061218857612187612cd5565b5b6020020151816002600381106121a1576121a0612cd5565b5b602002019060ff16908160ff16815250505b806000600381106121c7576121c6612cd5565b5b602002015160ff16816002600381106121e3576121e2612cd5565b5b602002015160ff16148061222c57508060016003811061220657612205612cd5565b5b602002015160ff168160026003811061222257612221612cd5565b5b602002015160ff16145b156122645761223a83612273565b8160026003811061224e5761224d612cd5565b5b602002019060ff16908160ff16815250506121b3565b80915050919050565b50505050565b600080600a905060008160ff166003600081819054906101000a900460ff168092919061229f90613644565b91906101000a81548160ff021916908360ff16021790555060ff16436122c591906131a1565b40856040516020016122d8929190613699565b6040516020818303038152906040528051906020012060001c6122fb9190612ebc565b905060fa600360009054906101000a900460ff1660ff161115612335576000600360006101000a81548160ff021916908360ff1602179055505b8092505050919050565b826003601f016020900481019282156123c85791602002820160005b8382111561239957835183826101000a81548160ff021916908360ff160217905550926020019260010160208160000104928301926001030261235b565b80156123c65782816101000a81549060ff0219169055600101602081600001049283019260010302612399565b505b5090506123d591906123fb565b5090565b6040518060600160405280600390602082028036833780820191505090505090565b5b808211156124145760008160009055506001016123fc565b5090565b6000604051905090565b600080fd5b600080fd5b600073ffffffffffffffffffffffffffffffffffffffff82169050919050565b60006124578261242c565b9050919050565b6124678161244c565b811461247257600080fd5b50565b6000813590506124848161245e565b92915050565b60008115159050919050565b61249f8161248a565b81146124aa57600080fd5b50565b6000813590506124bc81612496565b92915050565b600080604083850312156124d9576124d8612422565b5b60006124e785828601612475565b92505060206124f8858286016124ad565b9150509250929050565b60006020828403121561251857612517612422565b5b600061252684828501612475565b91505092915050565b6125388161248a565b82525050565b6000602082019050612553600083018461252f565b92915050565b600080fd5b600080fd5b6000601f19601f8301169050919050565b7f4e487b7100000000000000000000000000000000000000000000000000000000600052604160045260246000fd5b6125ac82612563565b810181811067ffffffffffffffff821117156125cb576125ca612574565b5b80604052505050565b60006125de612418565b90506125ea82826125a3565b919050565b600067ffffffffffffffff82111561260a57612609612574565b5b61261382612563565b9050602081019050919050565b82818337600083830152505050565b600061264261263d846125ef565b6125d4565b90508281526020810184848401111561265e5761265d61255e565b5b612669848285612620565b509392505050565b600082601f83011261268657612685612559565b5b813561269684826020860161262f565b91505092915050565b6000819050919050565b6126b28161269f565b81146126bd57600080fd5b50565b6000813590506126cf816126a9565b92915050565b600080604083850312156126ec576126eb612422565b5b600083013567ffffffffffffffff81111561270a57612709612427565b5b61271685828601612671565b9250506020612727858286016126c0565b9150509250929050565b61273a8161269f565b82525050565b60006020820190506127556000830184612731565b92915050565b600060039050919050565b600081905092915050565b6000819050919050565b600060ff82169050919050565b6127918161277b565b82525050565b60006127a38383612788565b60208301905092915050565b6000602082019050919050565b6127c58161275b565b6127cf8184612766565b92506127da82612771565b8060005b8381101561280b5781516127f28782612797565b96506127fd836127af565b9250506001810190506127de565b505050505050565b600060608201905061282860008301846127bc565b92915050565b60008060006060848603121561284757612846612422565b5b600061285586828701612475565b935050602084013567ffffffffffffffff81111561287657612875612427565b5b61288286828701612671565b9250506040612893868287016126c0565b9150509250925092565b6128a68161277b565b81146128b157600080fd5b50565b6000813590506128c38161289d565b92915050565b600080600080600060a086880312156128e5576128e4612422565b5b60006128f3888289016128b4565b955050602061290488828901612475565b945050604086013567ffffffffffffffff81111561292557612924612427565b5b61293188828901612671565b9350506060612942888289016126c0565b9250506080612953888289016128b4565b9150509295509295909350565b60008151905061296f81612496565b92915050565b60006020828403121561298b5761298a612422565b5b600061299984828501612960565b91505092915050565b600082825260208201905092915050565b7f436f6e74726163742069732063757272656e746c79206e6f74206f706572617460008201527f696f6e616c000000000000000000000000000000000000000000000000000000602082015250565b6000612a0f6025836129a2565b9150612a1a826129b3565b604082019050919050565b60006020820190508181036000830152612a3e81612a02565b9050919050565b7f4e6f20766f746174696f6e206e65656465642e204c657373207468616e20352060008201527f6169726c696e6573207265676973746572656400000000000000000000000000602082015250565b6000612aa16033836129a2565b9150612aac82612a45565b604082019050919050565b60006020820190508181036000830152612ad081612a94565b9050919050565b612ae08161244c565b82525050565b6000602082019050612afb6000830184612ad7565b92915050565b7f4169726c696e6520697320616c72656164792072656769737465726564000000600082015250565b6000612b37601d836129a2565b9150612b4282612b01565b602082019050919050565b60006020820190508181036000830152612b6681612b2a565b9050919050565b600081519050612b7c816126a9565b92915050565b600060208284031215612b9857612b97612422565b5b6000612ba684828501612b6d565b91505092915050565b600067ffffffffffffffff821115612bca57612bc9612574565b5b602082029050602081019050919050565b600080fd5b600081519050612bef8161245e565b92915050565b6000612c08612c0384612baf565b6125d4565b90508083825260208201905060208402830185811115612c2b57612c2a612bdb565b5b835b81811015612c545780612c408882612be0565b845260208401935050602081019050612c2d565b5050509392505050565b600082601f830112612c7357612c72612559565b5b8151612c83848260208601612bf5565b91505092915050565b600060208284031215612ca257612ca1612422565b5b600082015167ffffffffffffffff811115612cc057612cbf612427565b5b612ccc84828501612c5e565b91505092915050565b7f4e487b7100000000000000000000000000000000000000000000000000000000600052603260045260246000fd5b7f4e487b7100000000000000000000000000000000000000000000000000000000600052601160045260246000fd5b6000612d3e8261269f565b91507fffffffffffffffffffffffffffffffffffffffffffffffffffffffffffffffff821415612d7157612d70612d04565b5b600182019050919050565b7f5265717565737465722068617320616c726561647920766f7465640000000000600082015250565b6000612db2601b836129a2565b9150612dbd82612d7c565b602082019050919050565b60006020820190508181036000830152612de181612da5565b9050919050565b6000606082019050612dfd6000830186612ad7565b612e0a6020830185612ad7565b612e17604083018461252f565b949350505050565b6000819050919050565b6000819050919050565b6000612e4e612e49612e4484612e1f565b612e29565b61269f565b9050919050565b612e5e81612e33565b82525050565b6000604082019050612e796000830185612ad7565b612e866020830184612e55565b9392505050565b7f4e487b7100000000000000000000000000000000000000000000000000000000600052601260045260246000fd5b6000612ec78261269f565b9150612ed28361269f565b925082612ee257612ee1612e8d565b5b828206905092915050565b6000604082019050612f026000830185612ad7565b612f0f602083018461252f565b9392505050565b7f526567697374726174696f6e2066656520697320726571756972656400000000600082015250565b6000612f4c601c836129a2565b9150612f5782612f16565b602082019050919050565b60006020820190508181036000830152612f7b81612f3f565b9050919050565b600081519050919050565b60005b83811015612fab578082015181840152602081019050612f90565b83811115612fba576000848401525b50505050565b6000612fcb82612f82565b612fd581856129a2565b9350612fe5818560208601612f8d565b612fee81612563565b840191505092915050565b600060608201905061300e6000830186612ad7565b81810360208301526130208185612fc0565b905061302f6040830184612731565b949350505050565b7f5468697320666c696768742068617320616c7265616479206265656e2072656760008201527f6973746572656400000000000000000000000000000000000000000000000000602082015250565b60006130936027836129a2565b915061309e82613037565b604082019050919050565b600060208201905081810360008301526130c281613086565b9050919050565b7f4e6f74207265676973746572656420617320616e206f7261636c650000000000600082015250565b60006130ff601b836129a2565b915061310a826130c9565b602082019050919050565b6000602082019050818103600083015261312e816130f2565b9050919050565b7f5061796d656e7420697320696e737566696369656e7400000000000000000000600082015250565b600061316b6016836129a2565b915061317682613135565b602082019050919050565b6000602082019050818103600083015261319a8161315e565b9050919050565b60006131ac8261269f565b91506131b78361269f565b9250828210156131ca576131c9612d04565b5b828203905092915050565b7f4169726c696e65206973206e6f74207265676973746572656400000000000000600082015250565b600061320b6019836129a2565b9150613216826131d5565b602082019050919050565b6000602082019050818103600083015261323a816131fe565b9050919050565b7f4169726c696e652077617320616c72656164792066756e646564000000000000600082015250565b6000613277601a836129a2565b915061328282613241565b602082019050919050565b600060208201905081810360008301526132a68161326a565b9050919050565b7f496e76616c69644163636f756e74416464726573730000000000000000000000600082015250565b60006132e36015836129a2565b91506132ee826132ad565b602082019050919050565b60006020820190508181036000830152613312816132d6565b9050919050565b7f496e64657820646f6573206e6f74206d61746368206f7261636c65207265717560008201527f6573740000000000000000000000000000000000000000000000000000000000602082015250565b60006133756023836129a2565b915061338082613319565b604082019050919050565b600060208201905081810360008301526133a481613368565b9050919050565b60008160f81b9050919050565b60006133c3826133ab565b9050919050565b6133db6133d68261277b565b6133b8565b82525050565b60008160601b9050919050565b60006133f9826133e1565b9050919050565b600061340b826133ee565b9050919050565b61342361341e8261244c565b613400565b82525050565b600081905092915050565b600061343f82612f82565b6134498185613429565b9350613459818560208601612f8d565b80840191505092915050565b6000819050919050565b61348061347b8261269f565b613465565b82525050565b600061349282876133ca565b6001820191506134a28286613412565b6014820191506134b28285613434565b91506134be828461346f565b60208201915081905095945050505050565b7f466c69676874206f722074696d657374616d7020646f206e6f74206d6174636860008201527f206f7261636c6520726571756573740000000000000000000000000000000000602082015250565b600061352c602f836129a2565b9150613537826134d0565b604082019050919050565b6000602082019050818103600083015261355b8161351f565b9050919050565b61356b8161277b565b82525050565b60006080820190506135866000830187612ad7565b81810360208301526135988186612fc0565b90506135a76040830185612731565b6135b46060830184613562565b95945050505050565b60006135c88261269f565b91506135d38361269f565b9250826135e3576135e2612e8d565b5b828204905092915050565b60006135f98261269f565b91506136048361269f565b9250827fffffffffffffffffffffffffffffffffffffffffffffffffffffffffffffffff0382111561363957613638612d04565b5b828201905092915050565b600061364f8261277b565b915060ff82141561366357613662612d04565b5b600182019050919050565b6000819050919050565b6000819050919050565b61369361368e8261366e565b613678565b82525050565b60006136a58285613682565b6020820191506136b58284613412565b601482019150819050939250505056fea26469706673582212209f7204354f611afb1bf25e2772fac3f76c62c9cd87585c6d9bc26c89fe58eae164736f6c634300080a0033",
  "immutableReferences": {},
  "source": "// SPDX-License-Identifier: MIT\npragma solidity >=0.4.22 <0.9.0;\n\n// It's important to avoid vulnerabilities due to numeric overflow bugs\n// OpenZeppelin's SafeMath library, when used correctly, protects agains such bugs\n// More info: https://www.nccgroup.trust/us/about-us/newsroom-and-events/blog/2018/november/smart-contract-insecurity-bad-arithmetic/\nimport \"@openzeppelin/contracts/utils/math/SafeMath.sol\";\n\ncontract FlightSuretyApp {\n\n    /* Event triggered when an existing airlines vots for a new one */\n    event AirlineVoted(address newAirline, address voterAirline, bool ballot);\n    /* Event triggered when a new airline has been registered */\n    event AirlineRegistered(address newAirline);\n\n    \n    // Allow SafeMath functions to be called for all uint256 types (similar to \"prototype\" in Javascript)\n    using SafeMath for uint256; \n\n    /********************************************************************************************/\n    /*                                       DATA VARIABLES                                     */\n    /********************************************************************************************/\n\n    // Flight status codees\n    uint8 private constant STATUS_CODE_UNKNOWN = 0;\n    uint8 private constant STATUS_CODE_ON_TIME = 10;\n    uint8 private constant STATUS_CODE_LATE_AIRLINE = 20;\n    uint8 private constant STATUS_CODE_LATE_WEATHER = 30;\n    uint8 private constant STATUS_CODE_LATE_TECHNICAL = 40;\n    uint8 private constant STATUS_CODE_LATE_OTHER = 50;\n\n    // Account used to deploy contract\n    address private contractOwner; \n\n    /* Number of airlines already registered until needed to vote for a new one */\n    uint8 threshold = 5;\n    \n    FlightSuretyData flightSuretyData;\n\n    uint256 public constant RegistrationFee = 10 ether;\n\n    struct Flight {\n        bool isRegistered;\n        uint8 statusCode;\n        uint256 updatedTimestamp;        \n        address airline;\n    }\n    mapping(bytes32 => Flight) private flights;\n\n    /********************************************************************************************/\n    /*                                       FUNCTION MODIFIERS                                 */\n    /********************************************************************************************/\n\n    // Modifiers help avoid duplication of code. They are typically used to validate something\n    // before a function is allowed to be executed.\n\n    /**\n    * @dev Modifier that requires the \"operational\" boolean variable to be \"true\"\n    *      This is used on all state changing functions to pause the contract in \n    *      the event there is an issue that needs to be fixed\n    */\n    modifier requireIsOperational()\n    {\n        // Modify to call data contract's status\n        require(flightSuretyData.isOperational(), \"Contract is currently not operational\");  \n\n        // All modifiers require an \"_\" which indicates where the function body will be added\n        _;\n    }\n\n    /**\n    * @dev Modifier that requires that what is being paid is enough\n    */\n    modifier paidEnough(uint256 _value)\n    {\n        require(msg.value >= _value, 'Payment is insuficient');\n        _;\n    }\n\n    /**\n    * @dev Modifier that validates the payment, returning if there are remaining funds\n    */\n    modifier checkPayment(uint256 _value, address payable account)\n    {\n        uint256 spare = msg.value - _value;\n        account.transfer(spare);\n        _;\n    }\n\n    /**\n    * @dev Modifier that requires the \"ContractOwner\" account to be the function caller\n    */\n    modifier requireContractOwner()\n    {\n        require(msg.sender == contractOwner, \"Caller is not contract owner\");\n        _;\n    }\n\n    /********************************************************************************************/\n    /*                                       CONSTRUCTOR                                        */\n    /********************************************************************************************/\n\n    /**\n    * @dev Contract constructor\n    *\n    */\n    constructor(address dataContract)\n    {\n        contractOwner = msg.sender;\n        flightSuretyData = FlightSuretyData(dataContract);\n    }\n\n    /********************************************************************************************/\n    /*                                       UTILITY FUNCTIONS                                  */\n    /********************************************************************************************/\n\n    function isOperational  \n                            () \n                            public \n                            view \n                            returns(bool) \n    {\n        return flightSuretyData.isOperational();\n    }\n\n   /**\n    * @dev This method returns the total number of registered airlines\n    */\n    function totalRegisteredAirlines\n                                    ()\n                                    public\n                                    view\n                                    returns(uint)\n    {\n        return flightSuretyData.getRegisteredAirlines();\n    }\n\n\n\n    /********************************************************************************************/\n    /*                                     SMART CONTRACT FUNCTIONS                             */\n    /********************************************************************************************/\n\n    function getAirlineRegistrationStatus\n                                        (\n                                            address airline\n                                        )\n                                        public\n                                        view\n                                        returns(bool)\n    {\n        return flightSuretyData.getAirlineRegistrationStatus(airline);\n    }\n\n    function getAirlineOperationalStatus\n                                        (\n                                            address airline\n                                        )\n                                        public\n                                        view\n                                        returns(bool)\n    {\n        return flightSuretyData.getAirlineOperationalStatus(airline);\n    }\n\n    function getFlightStatus\n                                        (\n                                            address airline,\n                                            string memory flightNumber,\n                                            uint256 timestamps\n                                        )\n                                        public\n                                        view\n                                        returns(bool)\n    {\n        return flightSuretyData.getFlightStatus(airline, flightNumber, timestamps);\n    }\n    \n    function getRegisteredAirlines\n                                    ()\n                                    public\n                                    view\n                                    returns(uint256)\n    {\n        return flightSuretyData.getRegisteredAirlines();\n    }\n\n   /**\n    * @dev Get the addresses of all the registered airlines\n    *\n    */   \n    function getRegisteredAirlinesAccounts\n                                        ()\n                                        public\n                                        view\n                                        requireIsOperational\n    {\n    }\n\n   /**\n    * @dev Add an airline to the registration queue\n    *\n    */   \n    function registerAirline\n                            (\n                                address airline   \n                            )\n                            external\n                            requireIsOperational\n    {\n        /* Validations */\n        require(airline != address(0), \"InvalidAccountAddress\");\n        // require(flightSuretyData.getAirlineOperationalStatus(msg.sender), \"AirlineHasNotBeenFunded\");\n        //TODO *** check this ***\n        //require(!flightSuretyData.getAirlineRegistrationStatus(msg.sender), \"AirlineAddressAlreadyRegistered\");\n\n        uint registeredAccounts = totalRegisteredAirlines();\n\n        if(registeredAccounts < threshold)\n        {\n            flightSuretyData.registerAirline(airline, false);\n        }\n        else\n        {\n            emit VoteRequestEvent(airline);\n        }\n    }\n\n\n\n   /**\n    * @dev This method gives a vote to an applicant airline, when the total airlines registered \n    *      are more than 5. \n    */\n    function voteAirline\n                        (\n                            address airline, \n                            bool vote\n                        )\n                        public\n                        requireIsOperational\n    {\n        require(totalRegisteredAirlines() > threshold, 'No votation needed. Less than 5 airlines registered');\n        require(!flightSuretyData.getAirlineRegistrationStatus(airline), 'Airline is already registered');\n        require(flightSuretyData.getAirlineOperationalStatus(airline));\n\n        /**\n        * Validation: Avoid duplication of voting\n        */\n        bool isDuplicate = false;\n        uint256 currentVotersNum = flightSuretyData.getVotersLength(airline);\n        uint256 registeredAirlines = totalRegisteredAirlines();\n\n        if(currentVotersNum == 0)\n        {\n            isDuplicate = false;\n        }\n        else\n        {\n            address[] memory currentVoters = flightSuretyData.getVoter(airline);\n            for(uint i = 0; i < currentVotersNum; i++)\n            {\n                if(currentVoters[i] == msg.sender)\n                {\n                    isDuplicate = true;\n                    break;\n                }\n            }\n        }\n\n        require(!isDuplicate, 'Requester has already voted');\n\n        emit AirlineVoted(airline, msg.sender, vote);\n\n        if(vote == true)\n        {\n            flightSuretyData.addVoteToAirline(airline, 1);\n        }\n\n        uint votesQty = flightSuretyData.getVotesQty(airline);\n        uint multipartyThreshold;\n\n        /**\n        * Get the 50% of the already registered airlines\n        */\n        if(registeredAirlines%2 == 1)\n        {\n            multipartyThreshold = registeredAirlines.div(2).add(1);\n        }\n        else\n        {\n            multipartyThreshold = registeredAirlines.div(2);\n        }\n\n        if(votesQty >= multipartyThreshold)\n        {\n            flightSuretyData.registerAirline(airline, false);\n            flightSuretyData.deleteVoteCounter(airline);\n            emit AirlineRegistered(airline);\n        }\n\n        /**\n        * All registered airlines has voted, so close the voting\n        */\n        if(currentVotersNum == registeredAirlines)\n        {\n            flightSuretyData.deleteVoteCounter(airline);\n        }\n        \n    }\n\n   /**\n    * @dev When writing a smart contract, you need to ensure that money is being sent to the contract and out of the contract as well. Payable does this for you, any function in Solidity with the modifier Payable ensures that the function can send and receive Ether\n    *\n    */\n    function fund\n                ()\n                public\n                payable\n                requireIsOperational\n                paidEnough(RegistrationFee)\n                checkPayment(RegistrationFee, payable(msg.sender))\n    {\n\n        /* Validate that the ariline is already registered */\n        require(flightSuretyData.getAirlineRegistrationStatus(msg.sender), 'Airline is not registered');\n\n        /* Validate that the airline has not been already paid the funding */\n        require(!flightSuretyData.getAirlineOperationalStatus(msg.sender), 'Airline was already funded');\n\n        flightSuretyData.fund{value:RegistrationFee}(msg.sender);\n    }\n\n   /**\n    * @dev \n    *\n    */\n    function getFunding\n                      (address account)\n                      public\n                      view\n                      requireIsOperational\n                      returns(uint256)\n    {\n        return flightSuretyData.getFunding(account);\n    }      \n\n   /**\n    * @dev Register a future flight for insuring.\n    *\n    */  \n    function registerFlight\n                                (\n                                    string memory flightNumber,\n                                    uint256 timestamp\n                                )\n                                external\n    {\n        /* Validate airline operational status */\n        require(flightSuretyData.getAirlineOperationalStatus(msg.sender));\n        \n        /* Validate that the flight has not been already registered */\n        require(!flightSuretyData.getFlightStatus(\n            msg.sender, flightNumber, timestamp), \n            \"This flight has already been registered\"\n        );\n\n        /* Register the new flight */\n        flightSuretyData.registerFlight(msg.sender, flightNumber, timestamp);\n    }\n\n   /**\n    * @dev Called after oracle has updated flight status\n    *\n    */  \n    function processFlightStatus\n                                (\n                                    address airline,\n                                    string memory flight,\n                                    uint256 timestamp,\n                                    uint8 statusCode\n                                )\n                                internal\n                                pure\n    {\n    }\n\n    // Oracle managment\n\n    // Incremented to add pseudo-randomness at various points\n    uint8 private nonce = 0;    \n\n    // Fee to be paid when registering oracle\n    uint256 public constant REGISTRATION_FEE = 1 ether;\n\n    // Number of oracles that must respond for valid status\n    uint256 private constant MIN_RESPONSES = 3;\n\n    struct Oracle {\n        bool isRegistered;\n        uint8[3] indexes;        \n    }\n\n    // Track all registered oracles\n    mapping(address => Oracle) private oracles;\n\n    // Model for responses from oracles\n    struct ResponseInfo {\n        address requester;                              // Account that requested status\n        bool isOpen;                                    // If open, oracle responses are accepted\n        mapping(uint8 => address[]) responses;          // Mapping key is the status code reported\n                                                        // This lets us group responses and identify                                                       \n                                                        // the response that majority of the oracles\n    }\n\n    // Track all oracle responses\n    // Key = hash(index, flight, timestamp)\n    mapping(bytes32 => ResponseInfo) private oracleResponses;\n\n    /* Event triggered when a new airlines registers and needs votation to be authorized to enter */\n    event VoteRequestEvent(address airline);\n\n\n    // Event fired each time an oracle submits a response\n    event FlightStatusInfo(address airline, string flight, uint256 timestamp, uint8 status);\n\n    event OracleReport(address airline, string flight, uint256 timestamp, uint8 status);\n\n    // Event fired when flight status request is submitted\n    // Oracles track this and if they have a matching index\n    // they fetch data and submit a response\n    event OracleRequest(uint8 index, address airline, string flight, uint256 timestamp);\n\n    // Register an oracle with the contract\n    function registerOracle\n                            (\n                            )\n                            external\n                            payable\n    {\n        // Require registration fee\n        require(msg.value >= REGISTRATION_FEE, \"Registration fee is required\");\n\n        uint8[3] memory indexes = generateIndexes(msg.sender);\n\n        oracles[msg.sender] = Oracle({\n                                        isRegistered: true,\n                                        indexes: indexes\n                                    });\n    }\n\n    function getMyIndexes\n                            (\n                            )\n                            view\n                            external\n                            returns(uint8[3] memory)\n    {\n        require(oracles[msg.sender].isRegistered, \"Not registered as an oracle\");\n\n        return oracles[msg.sender].indexes;\n    }\n\n    // Called by oracle when a response is available to an outstanding request\n    // For the response to be accepted, there must be a pending request that is open\n    // and matches one of the three Indexes randomly assigned to the oracle at the\n    // time of registration (i.e. uninvited oracles are not welcome)\n    function submitOracleResponse\n                        (\n                            uint8 index,\n                            address airline,\n                            string memory flight,\n                            uint256 timestamp,\n                            uint8 statusCode\n                        )\n                        external\n    {\n        require((oracles[msg.sender].indexes[0] == index) || (oracles[msg.sender].indexes[1] == index) || (oracles[msg.sender].indexes[2] == index), \"Index does not match oracle request\");\n\n\n        bytes32 key = keccak256(abi.encodePacked(index, airline, flight, timestamp)); \n        require(oracleResponses[key].isOpen, \"Flight or timestamp do not match oracle request\");\n\n        oracleResponses[key].responses[statusCode].push(msg.sender);\n\n        // Information isn't considered verified until at least MIN_RESPONSES\n        // oracles respond with the *** same *** information\n        emit OracleReport(airline, flight, timestamp, statusCode);\n        if (oracleResponses[key].responses[statusCode].length >= MIN_RESPONSES) {\n\n            emit FlightStatusInfo(airline, flight, timestamp, statusCode);\n\n            // Handle flight status as appropriate\n            processFlightStatus(airline, flight, timestamp, statusCode);\n        }\n    }\n\n    function getFlightKey\n                        (\n                            address airline,\n                            string memory flight,\n                            uint256 timestamp\n                        )\n                        pure\n                        internal\n                        returns(bytes32) \n    {\n        return keccak256(abi.encodePacked(airline, flight, timestamp));\n    }\n\n    // Returns array of three non-duplicating integers from 0-9\n    function generateIndexes\n                            (                       \n                                address account         \n                            )\n                            internal\n                            returns(uint8[3] memory)\n    {\n        uint8[3] memory indexes;\n        indexes[0] = getRandomIndex(account);\n        \n        indexes[1] = indexes[0];\n        while(indexes[1] == indexes[0]) {\n            indexes[1] = getRandomIndex(account);\n        }\n\n        indexes[2] = indexes[1];\n        while((indexes[2] == indexes[0]) || (indexes[2] == indexes[1])) {\n            indexes[2] = getRandomIndex(account);\n        }\n\n        return indexes;\n    }\n\n    // Returns array of three non-duplicating integers from 0-9\n    function getRandomIndex\n                            (\n                                address account\n                            )\n                            internal\n                            returns (uint8)\n    {\n        uint8 maxValue = 10;\n\n        // Pseudo random number...the incrementing nonce adds variation\n        uint8 random = uint8(uint256(keccak256(abi.encodePacked(blockhash(block.number - nonce++), account))) % maxValue);\n\n        if (nonce > 250) {\n            nonce = 0;  // Can only fetch blockhashes for last 256 blocks so we adapt\n        }\n\n        return random;\n    }\n}\n\n/**\n    We add a reference to the Data Contract. For this we create an interface.\n    We are telling the app contract how to interact with the data contract\n */\nabstract contract FlightSuretyData {\n    function isOperational() public view virtual returns(bool);\n    function registerAirline(address airline, bool fundComplete) external virtual;\n    function getAirlineOperationalStatus(address airlineAddress) external view virtual returns(bool);\n    function getAirlineRegistrationStatus(address airlineAddress) external view virtual returns(bool);\n    function getRegisteredAirlines() external view virtual returns(uint256);\n    function getRegisteredAirlinesAccounts() external view virtual returns(address [] memory);\n    function fund(address account) external virtual payable;\n    function getFlightStatus(address airline, string memory flightNumber, uint256 timestamp) external virtual view returns(bool);\n    function registerFlight(address airline, string memory flight, uint256 timestamp) external virtual;\n    function getFunding(address account) external view virtual returns(uint256);\n    function getVotersLength(address account) external view virtual returns(uint256);\n    function getVoter(address account) external view virtual returns(address[] memory);\n    function addVoteToAirline(address enteringAirline, uint newVote) external virtual;\n    function getVotesQty(address airline) external virtual view returns(uint);\n    function deleteVoteCounter(address airline) external virtual;\n}",
  "sourcePath": "/Users/juani/code/courses/udacity_blockchain_developer/flight-surety/contracts/FlightSuretyApp.sol",
  "compiler": {
    "name": "solc",
    "version": "0.8.10+commit.fc410830.Emscripten.clang"
  },
  "schemaVersion": "3.4.11",
  "updatedAt": "2023-02-12T03:44:00.776Z",
  "devdoc": {
    "kind": "dev",
    "methods": {
      "constructor": {
        "details": "Contract constructor"
      },
      "fund()": {
        "details": "When writing a smart contract, you need to ensure that money is being sent to the contract and out of the contract as well. Payable does this for you, any function in Solidity with the modifier Payable ensures that the function can send and receive Ether"
      },
      "getRegisteredAirlinesAccounts()": {
        "details": "Get the addresses of all the registered airlines"
      },
      "registerAirline(address)": {
        "details": "Add an airline to the registration queue"
      },
      "registerFlight(string,uint256)": {
        "details": "Register a future flight for insuring."
      },
      "totalRegisteredAirlines()": {
        "details": "This method returns the total number of registered airlines"
      },
      "voteAirline(address,bool)": {
        "details": "This method gives a vote to an applicant airline, when the total airlines registered       are more than 5. "
      }
    },
    "version": 1
  },
  "userdoc": {
    "kind": "user",
    "methods": {},
    "version": 1
  }
}